{
	"contracts/EscrowService.sol": {
		"EscrowService": {
			"abi": [
				{
					"inputs": [
						{
							"internalType": "address",
							"name": "_auctionManager",
							"type": "address"
						}
					],
					"stateMutability": "nonpayable",
					"type": "constructor"
				},
				{
					"anonymous": false,
					"inputs": [
						{
							"indexed": false,
							"internalType": "uint256",
							"name": "auctionId",
							"type": "uint256"
						},
						{
							"indexed": false,
							"internalType": "uint256",
							"name": "amount",
							"type": "uint256"
						}
					],
					"name": "FundsDeposited",
					"type": "event"
				},
				{
					"anonymous": false,
					"inputs": [
						{
							"indexed": false,
							"internalType": "uint256",
							"name": "auctionId",
							"type": "uint256"
						},
						{
							"indexed": false,
							"internalType": "address",
							"name": "recipient",
							"type": "address"
						},
						{
							"indexed": false,
							"internalType": "uint256",
							"name": "amount",
							"type": "uint256"
						}
					],
					"name": "FundsReleased",
					"type": "event"
				},
				{
					"inputs": [],
					"name": "auctionManager",
					"outputs": [
						{
							"internalType": "address",
							"name": "",
							"type": "address"
						}
					],
					"stateMutability": "view",
					"type": "function"
				},
				{
					"inputs": [
						{
							"internalType": "uint256",
							"name": "_auctionId",
							"type": "uint256"
						}
					],
					"name": "depositFunds",
					"outputs": [],
					"stateMutability": "payable",
					"type": "function"
				},
				{
					"inputs": [
						{
							"internalType": "uint256",
							"name": "",
							"type": "uint256"
						}
					],
					"name": "escrowBalances",
					"outputs": [
						{
							"internalType": "uint256",
							"name": "",
							"type": "uint256"
						}
					],
					"stateMutability": "view",
					"type": "function"
				},
				{
					"inputs": [
						{
							"internalType": "uint256",
							"name": "_auctionId",
							"type": "uint256"
						},
						{
							"internalType": "address payable",
							"name": "_recipient",
							"type": "address"
						}
					],
					"name": "releaseFunds",
					"outputs": [],
					"stateMutability": "nonpayable",
					"type": "function"
				}
			],
			"devdoc": {
				"kind": "dev",
				"methods": {},
				"version": 1
			},
			"evm": {
				"assembly": "    /* \"contracts/EscrowService.sol\":87:1130  contract EscrowService {... */\n  mstore(0x40, 0x80)\n    /* \"contracts/EscrowService.sol\":356:442  constructor(address _auctionManager) {... */\n  callvalue\n  dup1\n  iszero\n  tag_1\n  jumpi\n  0x00\n  dup1\n  revert\ntag_1:\n  pop\n  mload(0x40)\n  sub(codesize, bytecodeSize)\n  dup1\n  bytecodeSize\n  dup4\n  codecopy\n  dup2\n  dup2\n  add\n  0x40\n  mstore\n  dup2\n  add\n  swap1\n  tag_2\n  swap2\n  swap1\n  tag_3\n  jump\t// in\ntag_2:\n    /* \"contracts/EscrowService.sol\":420:435  _auctionManager */\n  dup1\n    /* \"contracts/EscrowService.sol\":403:417  auctionManager */\n  0x00\n  dup1\n    /* \"contracts/EscrowService.sol\":403:435  auctionManager = _auctionManager */\n  0x0100\n  exp\n  dup2\n  sload\n  dup2\n  0xffffffffffffffffffffffffffffffffffffffff\n  mul\n  not\n  and\n  swap1\n  dup4\n  0xffffffffffffffffffffffffffffffffffffffff\n  and\n  mul\n  or\n  swap1\n  sstore\n  pop\n    /* \"contracts/EscrowService.sol\":356:442  constructor(address _auctionManager) {... */\n  pop\n    /* \"contracts/EscrowService.sol\":87:1130  contract EscrowService {... */\n  jump(tag_6)\n    /* \"#utility.yul\":7:150   */\ntag_8:\n  0x00\n    /* \"#utility.yul\":95:101   */\n  dup2\n    /* \"#utility.yul\":89:102   */\n  mload\n    /* \"#utility.yul\":80:102   */\n  swap1\n  pop\n    /* \"#utility.yul\":111:144   */\n  tag_10\n    /* \"#utility.yul\":138:143   */\n  dup2\n    /* \"#utility.yul\":111:144   */\n  tag_11\n  jump\t// in\ntag_10:\n    /* \"#utility.yul\":70:150   */\n  swap3\n  swap2\n  pop\n  pop\n  jump\t// out\n    /* \"#utility.yul\":156:440   */\ntag_3:\n  0x00\n    /* \"#utility.yul\":275:277   */\n  0x20\n    /* \"#utility.yul\":263:272   */\n  dup3\n    /* \"#utility.yul\":254:261   */\n  dup5\n    /* \"#utility.yul\":250:273   */\n  sub\n    /* \"#utility.yul\":246:278   */\n  slt\n    /* \"#utility.yul\":243:245   */\n  iszero\n  tag_13\n  jumpi\n    /* \"#utility.yul\":291:292   */\n  0x00\n    /* \"#utility.yul\":288:289   */\n  dup1\n    /* \"#utility.yul\":281:293   */\n  revert\n    /* \"#utility.yul\":243:245   */\ntag_13:\n    /* \"#utility.yul\":334:335   */\n  0x00\n    /* \"#utility.yul\":359:423   */\n  tag_14\n    /* \"#utility.yul\":415:422   */\n  dup5\n    /* \"#utility.yul\":406:412   */\n  dup3\n    /* \"#utility.yul\":395:404   */\n  dup6\n    /* \"#utility.yul\":391:413   */\n  add\n    /* \"#utility.yul\":359:423   */\n  tag_8\n  jump\t// in\ntag_14:\n    /* \"#utility.yul\":349:423   */\n  swap2\n  pop\n    /* \"#utility.yul\":305:433   */\n  pop\n    /* \"#utility.yul\":233:440   */\n  swap3\n  swap2\n  pop\n  pop\n  jump\t// out\n    /* \"#utility.yul\":446:542   */\ntag_15:\n  0x00\n    /* \"#utility.yul\":512:536   */\n  tag_17\n    /* \"#utility.yul\":530:535   */\n  dup3\n    /* \"#utility.yul\":512:536   */\n  tag_18\n  jump\t// in\ntag_17:\n    /* \"#utility.yul\":501:536   */\n  swap1\n  pop\n    /* \"#utility.yul\":491:542   */\n  swap2\n  swap1\n  pop\n  jump\t// out\n    /* \"#utility.yul\":548:674   */\ntag_18:\n  0x00\n    /* \"#utility.yul\":625:667   */\n  0xffffffffffffffffffffffffffffffffffffffff\n    /* \"#utility.yul\":618:623   */\n  dup3\n    /* \"#utility.yul\":614:668   */\n  and\n    /* \"#utility.yul\":603:668   */\n  swap1\n  pop\n    /* \"#utility.yul\":593:674   */\n  swap2\n  swap1\n  pop\n  jump\t// out\n    /* \"#utility.yul\":680:802   */\ntag_11:\n    /* \"#utility.yul\":753:777   */\n  tag_21\n    /* \"#utility.yul\":771:776   */\n  dup2\n    /* \"#utility.yul\":753:777   */\n  tag_15\n  jump\t// in\ntag_21:\n    /* \"#utility.yul\":746:751   */\n  dup2\n    /* \"#utility.yul\":743:778   */\n  eq\n    /* \"#utility.yul\":733:735   */\n  tag_22\n  jumpi\n    /* \"#utility.yul\":792:793   */\n  0x00\n    /* \"#utility.yul\":789:790   */\n  dup1\n    /* \"#utility.yul\":782:794   */\n  revert\n    /* \"#utility.yul\":733:735   */\ntag_22:\n    /* \"#utility.yul\":723:802   */\n  pop\n  jump\t// out\n    /* \"contracts/EscrowService.sol\":87:1130  contract EscrowService {... */\ntag_6:\n  dataSize(sub_0)\n  dup1\n  dataOffset(sub_0)\n  0x00\n  codecopy\n  0x00\n  return\nstop\n\nsub_0: assembly {\n        /* \"contracts/EscrowService.sol\":87:1130  contract EscrowService {... */\n      mstore(0x40, 0x80)\n      jumpi(tag_1, lt(calldatasize, 0x04))\n      shr(0xe0, calldataload(0x00))\n      dup1\n      0x1af23a59\n      eq\n      tag_2\n      jumpi\n      dup1\n      0x3b76594d\n      eq\n      tag_3\n      jumpi\n      dup1\n      0x43ebf45a\n      eq\n      tag_4\n      jumpi\n      dup1\n      0xb0192f9a\n      eq\n      tag_5\n      jumpi\n    tag_1:\n      0x00\n      dup1\n      revert\n        /* \"contracts/EscrowService.sol\":702:1128  function releaseFunds(uint256 _auctionId, address payable _recipient) external {... */\n    tag_2:\n      callvalue\n      dup1\n      iszero\n      tag_6\n      jumpi\n      0x00\n      dup1\n      revert\n    tag_6:\n      pop\n      tag_7\n      0x04\n      dup1\n      calldatasize\n      sub\n      dup2\n      add\n      swap1\n      tag_8\n      swap2\n      swap1\n      tag_9\n      jump\t// in\n    tag_8:\n      tag_10\n      jump\t// in\n    tag_7:\n      stop\n        /* \"contracts/EscrowService.sol\":452:692  function depositFunds(uint256 _auctionId) external payable {... */\n    tag_3:\n      tag_11\n      0x04\n      dup1\n      calldatasize\n      sub\n      dup2\n      add\n      swap1\n      tag_12\n      swap2\n      swap1\n      tag_13\n      jump\t// in\n    tag_12:\n      tag_14\n      jump\t// in\n    tag_11:\n      stop\n        /* \"contracts/EscrowService.sol\":151:200  mapping(uint256 => uint256) public escrowBalances */\n    tag_4:\n      callvalue\n      dup1\n      iszero\n      tag_15\n      jumpi\n      0x00\n      dup1\n      revert\n    tag_15:\n      pop\n      tag_16\n      0x04\n      dup1\n      calldatasize\n      sub\n      dup2\n      add\n      swap1\n      tag_17\n      swap2\n      swap1\n      tag_13\n      jump\t// in\n    tag_17:\n      tag_18\n      jump\t// in\n    tag_16:\n      mload(0x40)\n      tag_19\n      swap2\n      swap1\n      tag_20\n      jump\t// in\n    tag_19:\n      mload(0x40)\n      dup1\n      swap2\n      sub\n      swap1\n      return\n        /* \"contracts/EscrowService.sol\":116:145  address public auctionManager */\n    tag_5:\n      callvalue\n      dup1\n      iszero\n      tag_21\n      jumpi\n      0x00\n      dup1\n      revert\n    tag_21:\n      pop\n      tag_22\n      tag_23\n      jump\t// in\n    tag_22:\n      mload(0x40)\n      tag_24\n      swap2\n      swap1\n      tag_25\n      jump\t// in\n    tag_24:\n      mload(0x40)\n      dup1\n      swap2\n      sub\n      swap1\n      return\n        /* \"contracts/EscrowService.sol\":702:1128  function releaseFunds(uint256 _auctionId, address payable _recipient) external {... */\n    tag_10:\n        /* \"contracts/EscrowService.sol\":813:827  auctionManager */\n      0x00\n      dup1\n      sload\n      swap1\n      0x0100\n      exp\n      swap1\n      div\n      0xffffffffffffffffffffffffffffffffffffffff\n      and\n        /* \"contracts/EscrowService.sol\":799:827  msg.sender == auctionManager */\n      0xffffffffffffffffffffffffffffffffffffffff\n      and\n        /* \"contracts/EscrowService.sol\":799:809  msg.sender */\n      caller\n        /* \"contracts/EscrowService.sol\":799:827  msg.sender == auctionManager */\n      0xffffffffffffffffffffffffffffffffffffffff\n      and\n      eq\n        /* \"contracts/EscrowService.sol\":791:870  require(msg.sender == auctionManager, \"Only auction manager can release funds\") */\n      tag_27\n      jumpi\n      mload(0x40)\n      0x08c379a000000000000000000000000000000000000000000000000000000000\n      dup2\n      mstore\n      0x04\n      add\n      tag_28\n      swap1\n      tag_29\n      jump\t// in\n    tag_28:\n      mload(0x40)\n      dup1\n      swap2\n      sub\n      swap1\n      revert\n    tag_27:\n        /* \"contracts/EscrowService.sol\":880:894  uint256 amount */\n      0x00\n        /* \"contracts/EscrowService.sol\":897:911  escrowBalances */\n      0x01\n        /* \"contracts/EscrowService.sol\":897:923  escrowBalances[_auctionId] */\n      0x00\n        /* \"contracts/EscrowService.sol\":912:922  _auctionId */\n      dup5\n        /* \"contracts/EscrowService.sol\":897:923  escrowBalances[_auctionId] */\n      dup2\n      mstore\n      0x20\n      add\n      swap1\n      dup2\n      mstore\n      0x20\n      add\n      0x00\n      keccak256\n      sload\n        /* \"contracts/EscrowService.sol\":880:923  uint256 amount = escrowBalances[_auctionId] */\n      swap1\n      pop\n        /* \"contracts/EscrowService.sol\":950:951  0 */\n      0x00\n        /* \"contracts/EscrowService.sol\":941:947  amount */\n      dup2\n        /* \"contracts/EscrowService.sol\":941:951  amount > 0 */\n      gt\n        /* \"contracts/EscrowService.sol\":933:975  require(amount > 0, \"No funds to release\") */\n      tag_30\n      jumpi\n      mload(0x40)\n      0x08c379a000000000000000000000000000000000000000000000000000000000\n      dup2\n      mstore\n      0x04\n      add\n      tag_31\n      swap1\n      tag_32\n      jump\t// in\n    tag_31:\n      mload(0x40)\n      dup1\n      swap2\n      sub\n      swap1\n      revert\n    tag_30:\n        /* \"contracts/EscrowService.sol\":1023:1024  0 */\n      0x00\n        /* \"contracts/EscrowService.sol\":994:1008  escrowBalances */\n      0x01\n        /* \"contracts/EscrowService.sol\":994:1020  escrowBalances[_auctionId] */\n      0x00\n        /* \"contracts/EscrowService.sol\":1009:1019  _auctionId */\n      dup6\n        /* \"contracts/EscrowService.sol\":994:1020  escrowBalances[_auctionId] */\n      dup2\n      mstore\n      0x20\n      add\n      swap1\n      dup2\n      mstore\n      0x20\n      add\n      0x00\n      keccak256\n        /* \"contracts/EscrowService.sol\":994:1024  escrowBalances[_auctionId] = 0 */\n      dup2\n      swap1\n      sstore\n      pop\n        /* \"contracts/EscrowService.sol\":1034:1044  _recipient */\n      dup2\n        /* \"contracts/EscrowService.sol\":1034:1053  _recipient.transfer */\n      0xffffffffffffffffffffffffffffffffffffffff\n      and\n        /* \"contracts/EscrowService.sol\":1034:1061  _recipient.transfer(amount) */\n      0x08fc\n        /* \"contracts/EscrowService.sol\":1054:1060  amount */\n      dup3\n        /* \"contracts/EscrowService.sol\":1034:1061  _recipient.transfer(amount) */\n      swap1\n      dup2\n      iszero\n      mul\n      swap1\n      mload(0x40)\n      0x00\n      mload(0x40)\n      dup1\n      dup4\n      sub\n      dup2\n      dup6\n      dup9\n      dup9\n      call\n      swap4\n      pop\n      pop\n      pop\n      pop\n      iszero\n      dup1\n      iszero\n      tag_34\n      jumpi\n      returndatasize\n      0x00\n      dup1\n      returndatacopy\n      revert(0x00, returndatasize)\n    tag_34:\n      pop\n        /* \"contracts/EscrowService.sol\":1076:1121  FundsReleased(_auctionId, _recipient, amount) */\n      0x6e3c6096795c8298a218b2cfb8bde42726ff7c9a3d27b4d3ba41ab7f74feb5fb\n        /* \"contracts/EscrowService.sol\":1090:1100  _auctionId */\n      dup4\n        /* \"contracts/EscrowService.sol\":1102:1112  _recipient */\n      dup4\n        /* \"contracts/EscrowService.sol\":1114:1120  amount */\n      dup4\n        /* \"contracts/EscrowService.sol\":1076:1121  FundsReleased(_auctionId, _recipient, amount) */\n      mload(0x40)\n      tag_35\n      swap4\n      swap3\n      swap2\n      swap1\n      tag_36\n      jump\t// in\n    tag_35:\n      mload(0x40)\n      dup1\n      swap2\n      sub\n      swap1\n      log1\n        /* \"contracts/EscrowService.sol\":702:1128  function releaseFunds(uint256 _auctionId, address payable _recipient) external {... */\n      pop\n      pop\n      pop\n      jump\t// out\n        /* \"contracts/EscrowService.sol\":452:692  function depositFunds(uint256 _auctionId) external payable {... */\n    tag_14:\n        /* \"contracts/EscrowService.sol\":541:542  0 */\n      0x00\n        /* \"contracts/EscrowService.sol\":529:538  msg.value */\n      callvalue\n        /* \"contracts/EscrowService.sol\":529:542  msg.value > 0 */\n      gt\n        /* \"contracts/EscrowService.sol\":521:584  require(msg.value > 0, \"Deposit amount must be greater than 0\") */\n      tag_38\n      jumpi\n      mload(0x40)\n      0x08c379a000000000000000000000000000000000000000000000000000000000\n      dup2\n      mstore\n      0x04\n      add\n      tag_39\n      swap1\n      tag_40\n      jump\t// in\n    tag_39:\n      mload(0x40)\n      dup1\n      swap2\n      sub\n      swap1\n      revert\n    tag_38:\n        /* \"contracts/EscrowService.sol\":624:633  msg.value */\n      callvalue\n        /* \"contracts/EscrowService.sol\":594:608  escrowBalances */\n      0x01\n        /* \"contracts/EscrowService.sol\":594:620  escrowBalances[_auctionId] */\n      0x00\n        /* \"contracts/EscrowService.sol\":609:619  _auctionId */\n      dup4\n        /* \"contracts/EscrowService.sol\":594:620  escrowBalances[_auctionId] */\n      dup2\n      mstore\n      0x20\n      add\n      swap1\n      dup2\n      mstore\n      0x20\n      add\n      0x00\n      keccak256\n      0x00\n        /* \"contracts/EscrowService.sol\":594:633  escrowBalances[_auctionId] += msg.value */\n      dup3\n      dup3\n      sload\n      tag_41\n      swap2\n      swap1\n      tag_42\n      jump\t// in\n    tag_41:\n      swap3\n      pop\n      pop\n      dup2\n      swap1\n      sstore\n      pop\n        /* \"contracts/EscrowService.sol\":648:685  FundsDeposited(_auctionId, msg.value) */\n      0x26679fa1f3868c950e9362f1106cf73f3318de0280e0411a3c68e4b463eadd4f\n        /* \"contracts/EscrowService.sol\":663:673  _auctionId */\n      dup2\n        /* \"contracts/EscrowService.sol\":675:684  msg.value */\n      callvalue\n        /* \"contracts/EscrowService.sol\":648:685  FundsDeposited(_auctionId, msg.value) */\n      mload(0x40)\n      tag_43\n      swap3\n      swap2\n      swap1\n      tag_44\n      jump\t// in\n    tag_43:\n      mload(0x40)\n      dup1\n      swap2\n      sub\n      swap1\n      log1\n        /* \"contracts/EscrowService.sol\":452:692  function depositFunds(uint256 _auctionId) external payable {... */\n      pop\n      jump\t// out\n        /* \"contracts/EscrowService.sol\":151:200  mapping(uint256 => uint256) public escrowBalances */\n    tag_18:\n      mstore(0x20, 0x01)\n      dup1\n      0x00\n      mstore\n      keccak256(0x00, 0x40)\n      0x00\n      swap2\n      pop\n      swap1\n      pop\n      sload\n      dup2\n      jump\t// out\n        /* \"contracts/EscrowService.sol\":116:145  address public auctionManager */\n    tag_23:\n      0x00\n      dup1\n      sload\n      swap1\n      0x0100\n      exp\n      swap1\n      div\n      0xffffffffffffffffffffffffffffffffffffffff\n      and\n      dup2\n      jump\t// out\n        /* \"#utility.yul\":7:162   */\n    tag_46:\n      0x00\n        /* \"#utility.yul\":99:105   */\n      dup2\n        /* \"#utility.yul\":86:106   */\n      calldataload\n        /* \"#utility.yul\":77:106   */\n      swap1\n      pop\n        /* \"#utility.yul\":115:156   */\n      tag_48\n        /* \"#utility.yul\":150:155   */\n      dup2\n        /* \"#utility.yul\":115:156   */\n      tag_49\n      jump\t// in\n    tag_48:\n        /* \"#utility.yul\":67:162   */\n      swap3\n      swap2\n      pop\n      pop\n      jump\t// out\n        /* \"#utility.yul\":168:307   */\n    tag_50:\n      0x00\n        /* \"#utility.yul\":252:258   */\n      dup2\n        /* \"#utility.yul\":239:259   */\n      calldataload\n        /* \"#utility.yul\":230:259   */\n      swap1\n      pop\n        /* \"#utility.yul\":268:301   */\n      tag_52\n        /* \"#utility.yul\":295:300   */\n      dup2\n        /* \"#utility.yul\":268:301   */\n      tag_53\n      jump\t// in\n    tag_52:\n        /* \"#utility.yul\":220:307   */\n      swap3\n      swap2\n      pop\n      pop\n      jump\t// out\n        /* \"#utility.yul\":313:575   */\n    tag_13:\n      0x00\n        /* \"#utility.yul\":421:423   */\n      0x20\n        /* \"#utility.yul\":409:418   */\n      dup3\n        /* \"#utility.yul\":400:407   */\n      dup5\n        /* \"#utility.yul\":396:419   */\n      sub\n        /* \"#utility.yul\":392:424   */\n      slt\n        /* \"#utility.yul\":389:391   */\n      iszero\n      tag_55\n      jumpi\n        /* \"#utility.yul\":437:438   */\n      0x00\n        /* \"#utility.yul\":434:435   */\n      dup1\n        /* \"#utility.yul\":427:439   */\n      revert\n        /* \"#utility.yul\":389:391   */\n    tag_55:\n        /* \"#utility.yul\":480:481   */\n      0x00\n        /* \"#utility.yul\":505:558   */\n      tag_56\n        /* \"#utility.yul\":550:557   */\n      dup5\n        /* \"#utility.yul\":541:547   */\n      dup3\n        /* \"#utility.yul\":530:539   */\n      dup6\n        /* \"#utility.yul\":526:548   */\n      add\n        /* \"#utility.yul\":505:558   */\n      tag_50\n      jump\t// in\n    tag_56:\n        /* \"#utility.yul\":495:558   */\n      swap2\n      pop\n        /* \"#utility.yul\":451:568   */\n      pop\n        /* \"#utility.yul\":379:575   */\n      swap3\n      swap2\n      pop\n      pop\n      jump\t// out\n        /* \"#utility.yul\":581:1004   */\n    tag_9:\n      0x00\n      dup1\n        /* \"#utility.yul\":714:716   */\n      0x40\n        /* \"#utility.yul\":702:711   */\n      dup4\n        /* \"#utility.yul\":693:700   */\n      dup6\n        /* \"#utility.yul\":689:712   */\n      sub\n        /* \"#utility.yul\":685:717   */\n      slt\n        /* \"#utility.yul\":682:684   */\n      iszero\n      tag_58\n      jumpi\n        /* \"#utility.yul\":730:731   */\n      0x00\n        /* \"#utility.yul\":727:728   */\n      dup1\n        /* \"#utility.yul\":720:732   */\n      revert\n        /* \"#utility.yul\":682:684   */\n    tag_58:\n        /* \"#utility.yul\":773:774   */\n      0x00\n        /* \"#utility.yul\":798:851   */\n      tag_59\n        /* \"#utility.yul\":843:850   */\n      dup6\n        /* \"#utility.yul\":834:840   */\n      dup3\n        /* \"#utility.yul\":823:832   */\n      dup7\n        /* \"#utility.yul\":819:841   */\n      add\n        /* \"#utility.yul\":798:851   */\n      tag_50\n      jump\t// in\n    tag_59:\n        /* \"#utility.yul\":788:851   */\n      swap3\n      pop\n        /* \"#utility.yul\":744:861   */\n      pop\n        /* \"#utility.yul\":900:902   */\n      0x20\n        /* \"#utility.yul\":926:987   */\n      tag_60\n        /* \"#utility.yul\":979:986   */\n      dup6\n        /* \"#utility.yul\":970:976   */\n      dup3\n        /* \"#utility.yul\":959:968   */\n      dup7\n        /* \"#utility.yul\":955:977   */\n      add\n        /* \"#utility.yul\":926:987   */\n      tag_46\n      jump\t// in\n    tag_60:\n        /* \"#utility.yul\":916:987   */\n      swap2\n      pop\n        /* \"#utility.yul\":871:997   */\n      pop\n        /* \"#utility.yul\":672:1004   */\n      swap3\n      pop\n      swap3\n      swap1\n      pop\n      jump\t// out\n        /* \"#utility.yul\":1010:1157   */\n    tag_61:\n        /* \"#utility.yul\":1105:1150   */\n      tag_63\n        /* \"#utility.yul\":1144:1149   */\n      dup2\n        /* \"#utility.yul\":1105:1150   */\n      tag_64\n      jump\t// in\n    tag_63:\n        /* \"#utility.yul\":1100:1103   */\n      dup3\n        /* \"#utility.yul\":1093:1151   */\n      mstore\n        /* \"#utility.yul\":1083:1157   */\n      pop\n      pop\n      jump\t// out\n        /* \"#utility.yul\":1163:1281   */\n    tag_65:\n        /* \"#utility.yul\":1250:1274   */\n      tag_67\n        /* \"#utility.yul\":1268:1273   */\n      dup2\n        /* \"#utility.yul\":1250:1274   */\n      tag_68\n      jump\t// in\n    tag_67:\n        /* \"#utility.yul\":1245:1248   */\n      dup3\n        /* \"#utility.yul\":1238:1275   */\n      mstore\n        /* \"#utility.yul\":1228:1281   */\n      pop\n      pop\n      jump\t// out\n        /* \"#utility.yul\":1287:1656   */\n    tag_69:\n      0x00\n        /* \"#utility.yul\":1450:1517   */\n      tag_71\n        /* \"#utility.yul\":1514:1516   */\n      0x25\n        /* \"#utility.yul\":1509:1512   */\n      dup4\n        /* \"#utility.yul\":1450:1517   */\n      tag_72\n      jump\t// in\n    tag_71:\n        /* \"#utility.yul\":1443:1517   */\n      swap2\n      pop\n        /* \"#utility.yul\":1547:1581   */\n      0x4465706f73697420616d6f756e74206d75737420626520677265617465722074\n        /* \"#utility.yul\":1543:1544   */\n      0x00\n        /* \"#utility.yul\":1538:1541   */\n      dup4\n        /* \"#utility.yul\":1534:1545   */\n      add\n        /* \"#utility.yul\":1527:1582   */\n      mstore\n        /* \"#utility.yul\":1613:1620   */\n      0x68616e2030000000000000000000000000000000000000000000000000000000\n        /* \"#utility.yul\":1608:1610   */\n      0x20\n        /* \"#utility.yul\":1603:1606   */\n      dup4\n        /* \"#utility.yul\":1599:1611   */\n      add\n        /* \"#utility.yul\":1592:1621   */\n      mstore\n        /* \"#utility.yul\":1647:1649   */\n      0x40\n        /* \"#utility.yul\":1642:1645   */\n      dup3\n        /* \"#utility.yul\":1638:1650   */\n      add\n        /* \"#utility.yul\":1631:1650   */\n      swap1\n      pop\n        /* \"#utility.yul\":1433:1656   */\n      swap2\n      swap1\n      pop\n      jump\t// out\n        /* \"#utility.yul\":1662:2032   */\n    tag_73:\n      0x00\n        /* \"#utility.yul\":1825:1892   */\n      tag_75\n        /* \"#utility.yul\":1889:1891   */\n      0x26\n        /* \"#utility.yul\":1884:1887   */\n      dup4\n        /* \"#utility.yul\":1825:1892   */\n      tag_72\n      jump\t// in\n    tag_75:\n        /* \"#utility.yul\":1818:1892   */\n      swap2\n      pop\n        /* \"#utility.yul\":1922:1956   */\n      0x4f6e6c792061756374696f6e206d616e616765722063616e2072656c65617365\n        /* \"#utility.yul\":1918:1919   */\n      0x00\n        /* \"#utility.yul\":1913:1916   */\n      dup4\n        /* \"#utility.yul\":1909:1920   */\n      add\n        /* \"#utility.yul\":1902:1957   */\n      mstore\n        /* \"#utility.yul\":1988:1996   */\n      0x2066756e64730000000000000000000000000000000000000000000000000000\n        /* \"#utility.yul\":1983:1985   */\n      0x20\n        /* \"#utility.yul\":1978:1981   */\n      dup4\n        /* \"#utility.yul\":1974:1986   */\n      add\n        /* \"#utility.yul\":1967:1997   */\n      mstore\n        /* \"#utility.yul\":2023:2025   */\n      0x40\n        /* \"#utility.yul\":2018:2021   */\n      dup3\n        /* \"#utility.yul\":2014:2026   */\n      add\n        /* \"#utility.yul\":2007:2026   */\n      swap1\n      pop\n        /* \"#utility.yul\":1808:2032   */\n      swap2\n      swap1\n      pop\n      jump\t// out\n        /* \"#utility.yul\":2038:2355   */\n    tag_76:\n      0x00\n        /* \"#utility.yul\":2201:2268   */\n      tag_78\n        /* \"#utility.yul\":2265:2267   */\n      0x13\n        /* \"#utility.yul\":2260:2263   */\n      dup4\n        /* \"#utility.yul\":2201:2268   */\n      tag_72\n      jump\t// in\n    tag_78:\n        /* \"#utility.yul\":2194:2268   */\n      swap2\n      pop\n        /* \"#utility.yul\":2298:2319   */\n      0x4e6f2066756e647320746f2072656c6561736500000000000000000000000000\n        /* \"#utility.yul\":2294:2295   */\n      0x00\n        /* \"#utility.yul\":2289:2292   */\n      dup4\n        /* \"#utility.yul\":2285:2296   */\n      add\n        /* \"#utility.yul\":2278:2320   */\n      mstore\n        /* \"#utility.yul\":2346:2348   */\n      0x20\n        /* \"#utility.yul\":2341:2344   */\n      dup3\n        /* \"#utility.yul\":2337:2349   */\n      add\n        /* \"#utility.yul\":2330:2349   */\n      swap1\n      pop\n        /* \"#utility.yul\":2184:2355   */\n      swap2\n      swap1\n      pop\n      jump\t// out\n        /* \"#utility.yul\":2361:2479   */\n    tag_79:\n        /* \"#utility.yul\":2448:2472   */\n      tag_81\n        /* \"#utility.yul\":2466:2471   */\n      dup2\n        /* \"#utility.yul\":2448:2472   */\n      tag_82\n      jump\t// in\n    tag_81:\n        /* \"#utility.yul\":2443:2446   */\n      dup3\n        /* \"#utility.yul\":2436:2473   */\n      mstore\n        /* \"#utility.yul\":2426:2479   */\n      pop\n      pop\n      jump\t// out\n        /* \"#utility.yul\":2485:2707   */\n    tag_25:\n      0x00\n        /* \"#utility.yul\":2616:2618   */\n      0x20\n        /* \"#utility.yul\":2605:2614   */\n      dup3\n        /* \"#utility.yul\":2601:2619   */\n      add\n        /* \"#utility.yul\":2593:2619   */\n      swap1\n      pop\n        /* \"#utility.yul\":2629:2700   */\n      tag_84\n        /* \"#utility.yul\":2697:2698   */\n      0x00\n        /* \"#utility.yul\":2686:2695   */\n      dup4\n        /* \"#utility.yul\":2682:2699   */\n      add\n        /* \"#utility.yul\":2673:2679   */\n      dup5\n        /* \"#utility.yul\":2629:2700   */\n      tag_65\n      jump\t// in\n    tag_84:\n        /* \"#utility.yul\":2583:2707   */\n      swap3\n      swap2\n      pop\n      pop\n      jump\t// out\n        /* \"#utility.yul\":2713:3132   */\n    tag_40:\n      0x00\n        /* \"#utility.yul\":2917:2919   */\n      0x20\n        /* \"#utility.yul\":2906:2915   */\n      dup3\n        /* \"#utility.yul\":2902:2920   */\n      add\n        /* \"#utility.yul\":2894:2920   */\n      swap1\n      pop\n        /* \"#utility.yul\":2966:2975   */\n      dup2\n        /* \"#utility.yul\":2960:2964   */\n      dup2\n        /* \"#utility.yul\":2956:2976   */\n      sub\n        /* \"#utility.yul\":2952:2953   */\n      0x00\n        /* \"#utility.yul\":2941:2950   */\n      dup4\n        /* \"#utility.yul\":2937:2954   */\n      add\n        /* \"#utility.yul\":2930:2977   */\n      mstore\n        /* \"#utility.yul\":2994:3125   */\n      tag_86\n        /* \"#utility.yul\":3120:3124   */\n      dup2\n        /* \"#utility.yul\":2994:3125   */\n      tag_69\n      jump\t// in\n    tag_86:\n        /* \"#utility.yul\":2986:3125   */\n      swap1\n      pop\n        /* \"#utility.yul\":2884:3132   */\n      swap2\n      swap1\n      pop\n      jump\t// out\n        /* \"#utility.yul\":3138:3557   */\n    tag_29:\n      0x00\n        /* \"#utility.yul\":3342:3344   */\n      0x20\n        /* \"#utility.yul\":3331:3340   */\n      dup3\n        /* \"#utility.yul\":3327:3345   */\n      add\n        /* \"#utility.yul\":3319:3345   */\n      swap1\n      pop\n        /* \"#utility.yul\":3391:3400   */\n      dup2\n        /* \"#utility.yul\":3385:3389   */\n      dup2\n        /* \"#utility.yul\":3381:3401   */\n      sub\n        /* \"#utility.yul\":3377:3378   */\n      0x00\n        /* \"#utility.yul\":3366:3375   */\n      dup4\n        /* \"#utility.yul\":3362:3379   */\n      add\n        /* \"#utility.yul\":3355:3402   */\n      mstore\n        /* \"#utility.yul\":3419:3550   */\n      tag_88\n        /* \"#utility.yul\":3545:3549   */\n      dup2\n        /* \"#utility.yul\":3419:3550   */\n      tag_73\n      jump\t// in\n    tag_88:\n        /* \"#utility.yul\":3411:3550   */\n      swap1\n      pop\n        /* \"#utility.yul\":3309:3557   */\n      swap2\n      swap1\n      pop\n      jump\t// out\n        /* \"#utility.yul\":3563:3982   */\n    tag_32:\n      0x00\n        /* \"#utility.yul\":3767:3769   */\n      0x20\n        /* \"#utility.yul\":3756:3765   */\n      dup3\n        /* \"#utility.yul\":3752:3770   */\n      add\n        /* \"#utility.yul\":3744:3770   */\n      swap1\n      pop\n        /* \"#utility.yul\":3816:3825   */\n      dup2\n        /* \"#utility.yul\":3810:3814   */\n      dup2\n        /* \"#utility.yul\":3806:3826   */\n      sub\n        /* \"#utility.yul\":3802:3803   */\n      0x00\n        /* \"#utility.yul\":3791:3800   */\n      dup4\n        /* \"#utility.yul\":3787:3804   */\n      add\n        /* \"#utility.yul\":3780:3827   */\n      mstore\n        /* \"#utility.yul\":3844:3975   */\n      tag_90\n        /* \"#utility.yul\":3970:3974   */\n      dup2\n        /* \"#utility.yul\":3844:3975   */\n      tag_76\n      jump\t// in\n    tag_90:\n        /* \"#utility.yul\":3836:3975   */\n      swap1\n      pop\n        /* \"#utility.yul\":3734:3982   */\n      swap2\n      swap1\n      pop\n      jump\t// out\n        /* \"#utility.yul\":3988:4210   */\n    tag_20:\n      0x00\n        /* \"#utility.yul\":4119:4121   */\n      0x20\n        /* \"#utility.yul\":4108:4117   */\n      dup3\n        /* \"#utility.yul\":4104:4122   */\n      add\n        /* \"#utility.yul\":4096:4122   */\n      swap1\n      pop\n        /* \"#utility.yul\":4132:4203   */\n      tag_92\n        /* \"#utility.yul\":4200:4201   */\n      0x00\n        /* \"#utility.yul\":4189:4198   */\n      dup4\n        /* \"#utility.yul\":4185:4202   */\n      add\n        /* \"#utility.yul\":4176:4182   */\n      dup5\n        /* \"#utility.yul\":4132:4203   */\n      tag_79\n      jump\t// in\n    tag_92:\n        /* \"#utility.yul\":4086:4210   */\n      swap3\n      swap2\n      pop\n      pop\n      jump\t// out\n        /* \"#utility.yul\":4216:4674   */\n    tag_36:\n      0x00\n        /* \"#utility.yul\":4411:4413   */\n      0x60\n        /* \"#utility.yul\":4400:4409   */\n      dup3\n        /* \"#utility.yul\":4396:4414   */\n      add\n        /* \"#utility.yul\":4388:4414   */\n      swap1\n      pop\n        /* \"#utility.yul\":4424:4495   */\n      tag_94\n        /* \"#utility.yul\":4492:4493   */\n      0x00\n        /* \"#utility.yul\":4481:4490   */\n      dup4\n        /* \"#utility.yul\":4477:4494   */\n      add\n        /* \"#utility.yul\":4468:4474   */\n      dup7\n        /* \"#utility.yul\":4424:4495   */\n      tag_79\n      jump\t// in\n    tag_94:\n        /* \"#utility.yul\":4505:4585   */\n      tag_95\n        /* \"#utility.yul\":4581:4583   */\n      0x20\n        /* \"#utility.yul\":4570:4579   */\n      dup4\n        /* \"#utility.yul\":4566:4584   */\n      add\n        /* \"#utility.yul\":4557:4563   */\n      dup6\n        /* \"#utility.yul\":4505:4585   */\n      tag_61\n      jump\t// in\n    tag_95:\n        /* \"#utility.yul\":4595:4667   */\n      tag_96\n        /* \"#utility.yul\":4663:4665   */\n      0x40\n        /* \"#utility.yul\":4652:4661   */\n      dup4\n        /* \"#utility.yul\":4648:4666   */\n      add\n        /* \"#utility.yul\":4639:4645   */\n      dup5\n        /* \"#utility.yul\":4595:4667   */\n      tag_79\n      jump\t// in\n    tag_96:\n        /* \"#utility.yul\":4378:4674   */\n      swap5\n      swap4\n      pop\n      pop\n      pop\n      pop\n      jump\t// out\n        /* \"#utility.yul\":4680:5012   */\n    tag_44:\n      0x00\n        /* \"#utility.yul\":4839:4841   */\n      0x40\n        /* \"#utility.yul\":4828:4837   */\n      dup3\n        /* \"#utility.yul\":4824:4842   */\n      add\n        /* \"#utility.yul\":4816:4842   */\n      swap1\n      pop\n        /* \"#utility.yul\":4852:4923   */\n      tag_98\n        /* \"#utility.yul\":4920:4921   */\n      0x00\n        /* \"#utility.yul\":4909:4918   */\n      dup4\n        /* \"#utility.yul\":4905:4922   */\n      add\n        /* \"#utility.yul\":4896:4902   */\n      dup6\n        /* \"#utility.yul\":4852:4923   */\n      tag_79\n      jump\t// in\n    tag_98:\n        /* \"#utility.yul\":4933:5005   */\n      tag_99\n        /* \"#utility.yul\":5001:5003   */\n      0x20\n        /* \"#utility.yul\":4990:4999   */\n      dup4\n        /* \"#utility.yul\":4986:5004   */\n      add\n        /* \"#utility.yul\":4977:4983   */\n      dup5\n        /* \"#utility.yul\":4933:5005   */\n      tag_79\n      jump\t// in\n    tag_99:\n        /* \"#utility.yul\":4806:5012   */\n      swap4\n      swap3\n      pop\n      pop\n      pop\n      jump\t// out\n        /* \"#utility.yul\":5018:5187   */\n    tag_72:\n      0x00\n        /* \"#utility.yul\":5136:5142   */\n      dup3\n        /* \"#utility.yul\":5131:5134   */\n      dup3\n        /* \"#utility.yul\":5124:5143   */\n      mstore\n        /* \"#utility.yul\":5176:5180   */\n      0x20\n        /* \"#utility.yul\":5171:5174   */\n      dup3\n        /* \"#utility.yul\":5167:5181   */\n      add\n        /* \"#utility.yul\":5152:5181   */\n      swap1\n      pop\n        /* \"#utility.yul\":5114:5187   */\n      swap3\n      swap2\n      pop\n      pop\n      jump\t// out\n        /* \"#utility.yul\":5193:5498   */\n    tag_42:\n      0x00\n        /* \"#utility.yul\":5252:5272   */\n      tag_102\n        /* \"#utility.yul\":5270:5271   */\n      dup3\n        /* \"#utility.yul\":5252:5272   */\n      tag_82\n      jump\t// in\n    tag_102:\n        /* \"#utility.yul\":5247:5272   */\n      swap2\n      pop\n        /* \"#utility.yul\":5286:5306   */\n      tag_103\n        /* \"#utility.yul\":5304:5305   */\n      dup4\n        /* \"#utility.yul\":5286:5306   */\n      tag_82\n      jump\t// in\n    tag_103:\n        /* \"#utility.yul\":5281:5306   */\n      swap3\n      pop\n        /* \"#utility.yul\":5440:5441   */\n      dup3\n        /* \"#utility.yul\":5372:5438   */\n      0xffffffffffffffffffffffffffffffffffffffffffffffffffffffffffffffff\n        /* \"#utility.yul\":5368:5442   */\n      sub\n        /* \"#utility.yul\":5365:5366   */\n      dup3\n        /* \"#utility.yul\":5362:5443   */\n      gt\n        /* \"#utility.yul\":5359:5361   */\n      iszero\n      tag_104\n      jumpi\n        /* \"#utility.yul\":5446:5464   */\n      tag_105\n      tag_106\n      jump\t// in\n    tag_105:\n        /* \"#utility.yul\":5359:5361   */\n    tag_104:\n        /* \"#utility.yul\":5490:5491   */\n      dup3\n        /* \"#utility.yul\":5487:5488   */\n      dup3\n        /* \"#utility.yul\":5483:5492   */\n      add\n        /* \"#utility.yul\":5476:5492   */\n      swap1\n      pop\n        /* \"#utility.yul\":5237:5498   */\n      swap3\n      swap2\n      pop\n      pop\n      jump\t// out\n        /* \"#utility.yul\":5504:5600   */\n    tag_68:\n      0x00\n        /* \"#utility.yul\":5570:5594   */\n      tag_108\n        /* \"#utility.yul\":5588:5593   */\n      dup3\n        /* \"#utility.yul\":5570:5594   */\n      tag_109\n      jump\t// in\n    tag_108:\n        /* \"#utility.yul\":5559:5594   */\n      swap1\n      pop\n        /* \"#utility.yul\":5549:5600   */\n      swap2\n      swap1\n      pop\n      jump\t// out\n        /* \"#utility.yul\":5606:5710   */\n    tag_110:\n      0x00\n        /* \"#utility.yul\":5680:5704   */\n      tag_112\n        /* \"#utility.yul\":5698:5703   */\n      dup3\n        /* \"#utility.yul\":5680:5704   */\n      tag_109\n      jump\t// in\n    tag_112:\n        /* \"#utility.yul\":5669:5704   */\n      swap1\n      pop\n        /* \"#utility.yul\":5659:5710   */\n      swap2\n      swap1\n      pop\n      jump\t// out\n        /* \"#utility.yul\":5716:5842   */\n    tag_109:\n      0x00\n        /* \"#utility.yul\":5793:5835   */\n      0xffffffffffffffffffffffffffffffffffffffff\n        /* \"#utility.yul\":5786:5791   */\n      dup3\n        /* \"#utility.yul\":5782:5836   */\n      and\n        /* \"#utility.yul\":5771:5836   */\n      swap1\n      pop\n        /* \"#utility.yul\":5761:5842   */\n      swap2\n      swap1\n      pop\n      jump\t// out\n        /* \"#utility.yul\":5848:5925   */\n    tag_82:\n      0x00\n        /* \"#utility.yul\":5914:5919   */\n      dup2\n        /* \"#utility.yul\":5903:5919   */\n      swap1\n      pop\n        /* \"#utility.yul\":5893:5925   */\n      swap2\n      swap1\n      pop\n      jump\t// out\n        /* \"#utility.yul\":5931:6065   */\n    tag_64:\n      0x00\n        /* \"#utility.yul\":6022:6059   */\n      tag_116\n        /* \"#utility.yul\":6053:6058   */\n      dup3\n        /* \"#utility.yul\":6022:6059   */\n      tag_117\n      jump\t// in\n    tag_116:\n        /* \"#utility.yul\":6009:6059   */\n      swap1\n      pop\n        /* \"#utility.yul\":5999:6065   */\n      swap2\n      swap1\n      pop\n      jump\t// out\n        /* \"#utility.yul\":6071:6197   */\n    tag_117:\n      0x00\n        /* \"#utility.yul\":6154:6191   */\n      tag_119\n        /* \"#utility.yul\":6185:6190   */\n      dup3\n        /* \"#utility.yul\":6154:6191   */\n      tag_120\n      jump\t// in\n    tag_119:\n        /* \"#utility.yul\":6141:6191   */\n      swap1\n      pop\n        /* \"#utility.yul\":6131:6197   */\n      swap2\n      swap1\n      pop\n      jump\t// out\n        /* \"#utility.yul\":6203:6316   */\n    tag_120:\n      0x00\n        /* \"#utility.yul\":6286:6310   */\n      tag_122\n        /* \"#utility.yul\":6304:6309   */\n      dup3\n        /* \"#utility.yul\":6286:6310   */\n      tag_109\n      jump\t// in\n    tag_122:\n        /* \"#utility.yul\":6273:6310   */\n      swap1\n      pop\n        /* \"#utility.yul\":6263:6316   */\n      swap2\n      swap1\n      pop\n      jump\t// out\n        /* \"#utility.yul\":6322:6502   */\n    tag_106:\n        /* \"#utility.yul\":6370:6447   */\n      0x4e487b7100000000000000000000000000000000000000000000000000000000\n        /* \"#utility.yul\":6367:6368   */\n      0x00\n        /* \"#utility.yul\":6360:6448   */\n      mstore\n        /* \"#utility.yul\":6467:6471   */\n      0x11\n        /* \"#utility.yul\":6464:6465   */\n      0x04\n        /* \"#utility.yul\":6457:6472   */\n      mstore\n        /* \"#utility.yul\":6491:6495   */\n      0x24\n        /* \"#utility.yul\":6488:6489   */\n      0x00\n        /* \"#utility.yul\":6481:6496   */\n      revert\n        /* \"#utility.yul\":6508:6646   */\n    tag_49:\n        /* \"#utility.yul\":6589:6621   */\n      tag_125\n        /* \"#utility.yul\":6615:6620   */\n      dup2\n        /* \"#utility.yul\":6589:6621   */\n      tag_110\n      jump\t// in\n    tag_125:\n        /* \"#utility.yul\":6582:6587   */\n      dup2\n        /* \"#utility.yul\":6579:6622   */\n      eq\n        /* \"#utility.yul\":6569:6571   */\n      tag_126\n      jumpi\n        /* \"#utility.yul\":6636:6637   */\n      0x00\n        /* \"#utility.yul\":6633:6634   */\n      dup1\n        /* \"#utility.yul\":6626:6638   */\n      revert\n        /* \"#utility.yul\":6569:6571   */\n    tag_126:\n        /* \"#utility.yul\":6559:6646   */\n      pop\n      jump\t// out\n        /* \"#utility.yul\":6652:6774   */\n    tag_53:\n        /* \"#utility.yul\":6725:6749   */\n      tag_128\n        /* \"#utility.yul\":6743:6748   */\n      dup2\n        /* \"#utility.yul\":6725:6749   */\n      tag_82\n      jump\t// in\n    tag_128:\n        /* \"#utility.yul\":6718:6723   */\n      dup2\n        /* \"#utility.yul\":6715:6750   */\n      eq\n        /* \"#utility.yul\":6705:6707   */\n      tag_129\n      jumpi\n        /* \"#utility.yul\":6764:6765   */\n      0x00\n        /* \"#utility.yul\":6761:6762   */\n      dup1\n        /* \"#utility.yul\":6754:6766   */\n      revert\n        /* \"#utility.yul\":6705:6707   */\n    tag_129:\n        /* \"#utility.yul\":6695:6774   */\n      pop\n      jump\t// out\n\n    auxdata: 0xa264697066735822122009d9b757f8b57e6571d966df5db3d8609f1a33fbe1cf578a9279b6a30af1fb4864736f6c63430008000033\n}\n",
				"bytecode": {
					"linkReferences": {},
					"object": "608060405234801561001057600080fd5b506040516108a93803806108a98339818101604052810190610032919061008d565b806000806101000a81548173ffffffffffffffffffffffffffffffffffffffff021916908373ffffffffffffffffffffffffffffffffffffffff160217905550506100ff565b600081519050610087816100e8565b92915050565b60006020828403121561009f57600080fd5b60006100ad84828501610078565b91505092915050565b60006100c1826100c8565b9050919050565b600073ffffffffffffffffffffffffffffffffffffffff82169050919050565b6100f1816100b6565b81146100fc57600080fd5b50565b61079b8061010e6000396000f3fe60806040526004361061003f5760003560e01c80631af23a59146100445780633b76594d1461006d57806343ebf45a14610089578063b0192f9a146100c6575b600080fd5b34801561005057600080fd5b5061006b600480360381019061006691906103b2565b6100f1565b005b61008760048036038101906100829190610389565b61027a565b005b34801561009557600080fd5b506100b060048036038101906100ab9190610389565b610323565b6040516100bd91906105a2565b60405180910390f35b3480156100d257600080fd5b506100db61033b565b6040516100e89190610527565b60405180910390f35b60008054906101000a900473ffffffffffffffffffffffffffffffffffffffff1673ffffffffffffffffffffffffffffffffffffffff163373ffffffffffffffffffffffffffffffffffffffff161461017f576040517f08c379a000000000000000000000000000000000000000000000000000000000815260040161017690610562565b60405180910390fd5b600060016000848152602001908152602001600020549050600081116101da576040517f08c379a00000000000000000000000000000000000000000000000000000000081526004016101d190610582565b60405180910390fd5b600060016000858152602001908152602001600020819055508173ffffffffffffffffffffffffffffffffffffffff166108fc829081150290604051600060405180830381858888f19350505050158015610239573d6000803e3d6000fd5b507f6e3c6096795c8298a218b2cfb8bde42726ff7c9a3d27b4d3ba41ab7f74feb5fb83838360405161026d939291906105bd565b60405180910390a1505050565b600034116102bd576040517f08c379a00000000000000000000000000000000000000000000000000000000081526004016102b490610542565b60405180910390fd5b346001600083815260200190815260200160002060008282546102e0919061062e565b925050819055507f26679fa1f3868c950e9362f1106cf73f3318de0280e0411a3c68e4b463eadd4f81346040516103189291906105f4565b60405180910390a150565b60016020528060005260406000206000915090505481565b60008054906101000a900473ffffffffffffffffffffffffffffffffffffffff1681565b60008135905061036e81610737565b92915050565b6000813590506103838161074e565b92915050565b60006020828403121561039b57600080fd5b60006103a984828501610374565b91505092915050565b600080604083850312156103c557600080fd5b60006103d385828601610374565b92505060206103e48582860161035f565b9150509250929050565b6103f7816106d2565b82525050565b61040681610684565b82525050565b600061041960258361061d565b91507f4465706f73697420616d6f756e74206d7573742062652067726561746572207460008301527f68616e20300000000000000000000000000000000000000000000000000000006020830152604082019050919050565b600061047f60268361061d565b91507f4f6e6c792061756374696f6e206d616e616765722063616e2072656c6561736560008301527f2066756e647300000000000000000000000000000000000000000000000000006020830152604082019050919050565b60006104e560138361061d565b91507f4e6f2066756e647320746f2072656c65617365000000000000000000000000006000830152602082019050919050565b610521816106c8565b82525050565b600060208201905061053c60008301846103fd565b92915050565b6000602082019050818103600083015261055b8161040c565b9050919050565b6000602082019050818103600083015261057b81610472565b9050919050565b6000602082019050818103600083015261059b816104d8565b9050919050565b60006020820190506105b76000830184610518565b92915050565b60006060820190506105d26000830186610518565b6105df60208301856103ee565b6105ec6040830184610518565b949350505050565b60006040820190506106096000830185610518565b6106166020830184610518565b9392505050565b600082825260208201905092915050565b6000610639826106c8565b9150610644836106c8565b9250827fffffffffffffffffffffffffffffffffffffffffffffffffffffffffffffffff0382111561067957610678610708565b5b828201905092915050565b600061068f826106a8565b9050919050565b60006106a1826106a8565b9050919050565b600073ffffffffffffffffffffffffffffffffffffffff82169050919050565b6000819050919050565b60006106dd826106e4565b9050919050565b60006106ef826106f6565b9050919050565b6000610701826106a8565b9050919050565b7f4e487b7100000000000000000000000000000000000000000000000000000000600052601160045260246000fd5b61074081610696565b811461074b57600080fd5b50565b610757816106c8565b811461076257600080fd5b5056fea264697066735822122009d9b757f8b57e6571d966df5db3d8609f1a33fbe1cf578a9279b6a30af1fb4864736f6c63430008000033",
					"opcodes": "PUSH1 0x80 PUSH1 0x40 MSTORE CALLVALUE DUP1 ISZERO PUSH2 0x10 JUMPI PUSH1 0x0 DUP1 REVERT JUMPDEST POP PUSH1 0x40 MLOAD PUSH2 0x8A9 CODESIZE SUB DUP1 PUSH2 0x8A9 DUP4 CODECOPY DUP2 DUP2 ADD PUSH1 0x40 MSTORE DUP2 ADD SWAP1 PUSH2 0x32 SWAP2 SWAP1 PUSH2 0x8D JUMP JUMPDEST DUP1 PUSH1 0x0 DUP1 PUSH2 0x100 EXP DUP2 SLOAD DUP2 PUSH20 0xFFFFFFFFFFFFFFFFFFFFFFFFFFFFFFFFFFFFFFFF MUL NOT AND SWAP1 DUP4 PUSH20 0xFFFFFFFFFFFFFFFFFFFFFFFFFFFFFFFFFFFFFFFF AND MUL OR SWAP1 SSTORE POP POP PUSH2 0xFF JUMP JUMPDEST PUSH1 0x0 DUP2 MLOAD SWAP1 POP PUSH2 0x87 DUP2 PUSH2 0xE8 JUMP JUMPDEST SWAP3 SWAP2 POP POP JUMP JUMPDEST PUSH1 0x0 PUSH1 0x20 DUP3 DUP5 SUB SLT ISZERO PUSH2 0x9F JUMPI PUSH1 0x0 DUP1 REVERT JUMPDEST PUSH1 0x0 PUSH2 0xAD DUP5 DUP3 DUP6 ADD PUSH2 0x78 JUMP JUMPDEST SWAP2 POP POP SWAP3 SWAP2 POP POP JUMP JUMPDEST PUSH1 0x0 PUSH2 0xC1 DUP3 PUSH2 0xC8 JUMP JUMPDEST SWAP1 POP SWAP2 SWAP1 POP JUMP JUMPDEST PUSH1 0x0 PUSH20 0xFFFFFFFFFFFFFFFFFFFFFFFFFFFFFFFFFFFFFFFF DUP3 AND SWAP1 POP SWAP2 SWAP1 POP JUMP JUMPDEST PUSH2 0xF1 DUP2 PUSH2 0xB6 JUMP JUMPDEST DUP2 EQ PUSH2 0xFC JUMPI PUSH1 0x0 DUP1 REVERT JUMPDEST POP JUMP JUMPDEST PUSH2 0x79B DUP1 PUSH2 0x10E PUSH1 0x0 CODECOPY PUSH1 0x0 RETURN INVALID PUSH1 0x80 PUSH1 0x40 MSTORE PUSH1 0x4 CALLDATASIZE LT PUSH2 0x3F JUMPI PUSH1 0x0 CALLDATALOAD PUSH1 0xE0 SHR DUP1 PUSH4 0x1AF23A59 EQ PUSH2 0x44 JUMPI DUP1 PUSH4 0x3B76594D EQ PUSH2 0x6D JUMPI DUP1 PUSH4 0x43EBF45A EQ PUSH2 0x89 JUMPI DUP1 PUSH4 0xB0192F9A EQ PUSH2 0xC6 JUMPI JUMPDEST PUSH1 0x0 DUP1 REVERT JUMPDEST CALLVALUE DUP1 ISZERO PUSH2 0x50 JUMPI PUSH1 0x0 DUP1 REVERT JUMPDEST POP PUSH2 0x6B PUSH1 0x4 DUP1 CALLDATASIZE SUB DUP2 ADD SWAP1 PUSH2 0x66 SWAP2 SWAP1 PUSH2 0x3B2 JUMP JUMPDEST PUSH2 0xF1 JUMP JUMPDEST STOP JUMPDEST PUSH2 0x87 PUSH1 0x4 DUP1 CALLDATASIZE SUB DUP2 ADD SWAP1 PUSH2 0x82 SWAP2 SWAP1 PUSH2 0x389 JUMP JUMPDEST PUSH2 0x27A JUMP JUMPDEST STOP JUMPDEST CALLVALUE DUP1 ISZERO PUSH2 0x95 JUMPI PUSH1 0x0 DUP1 REVERT JUMPDEST POP PUSH2 0xB0 PUSH1 0x4 DUP1 CALLDATASIZE SUB DUP2 ADD SWAP1 PUSH2 0xAB SWAP2 SWAP1 PUSH2 0x389 JUMP JUMPDEST PUSH2 0x323 JUMP JUMPDEST PUSH1 0x40 MLOAD PUSH2 0xBD SWAP2 SWAP1 PUSH2 0x5A2 JUMP JUMPDEST PUSH1 0x40 MLOAD DUP1 SWAP2 SUB SWAP1 RETURN JUMPDEST CALLVALUE DUP1 ISZERO PUSH2 0xD2 JUMPI PUSH1 0x0 DUP1 REVERT JUMPDEST POP PUSH2 0xDB PUSH2 0x33B JUMP JUMPDEST PUSH1 0x40 MLOAD PUSH2 0xE8 SWAP2 SWAP1 PUSH2 0x527 JUMP JUMPDEST PUSH1 0x40 MLOAD DUP1 SWAP2 SUB SWAP1 RETURN JUMPDEST PUSH1 0x0 DUP1 SLOAD SWAP1 PUSH2 0x100 EXP SWAP1 DIV PUSH20 0xFFFFFFFFFFFFFFFFFFFFFFFFFFFFFFFFFFFFFFFF AND PUSH20 0xFFFFFFFFFFFFFFFFFFFFFFFFFFFFFFFFFFFFFFFF AND CALLER PUSH20 0xFFFFFFFFFFFFFFFFFFFFFFFFFFFFFFFFFFFFFFFF AND EQ PUSH2 0x17F JUMPI PUSH1 0x40 MLOAD PUSH32 0x8C379A000000000000000000000000000000000000000000000000000000000 DUP2 MSTORE PUSH1 0x4 ADD PUSH2 0x176 SWAP1 PUSH2 0x562 JUMP JUMPDEST PUSH1 0x40 MLOAD DUP1 SWAP2 SUB SWAP1 REVERT JUMPDEST PUSH1 0x0 PUSH1 0x1 PUSH1 0x0 DUP5 DUP2 MSTORE PUSH1 0x20 ADD SWAP1 DUP2 MSTORE PUSH1 0x20 ADD PUSH1 0x0 KECCAK256 SLOAD SWAP1 POP PUSH1 0x0 DUP2 GT PUSH2 0x1DA JUMPI PUSH1 0x40 MLOAD PUSH32 0x8C379A000000000000000000000000000000000000000000000000000000000 DUP2 MSTORE PUSH1 0x4 ADD PUSH2 0x1D1 SWAP1 PUSH2 0x582 JUMP JUMPDEST PUSH1 0x40 MLOAD DUP1 SWAP2 SUB SWAP1 REVERT JUMPDEST PUSH1 0x0 PUSH1 0x1 PUSH1 0x0 DUP6 DUP2 MSTORE PUSH1 0x20 ADD SWAP1 DUP2 MSTORE PUSH1 0x20 ADD PUSH1 0x0 KECCAK256 DUP2 SWAP1 SSTORE POP DUP2 PUSH20 0xFFFFFFFFFFFFFFFFFFFFFFFFFFFFFFFFFFFFFFFF AND PUSH2 0x8FC DUP3 SWAP1 DUP2 ISZERO MUL SWAP1 PUSH1 0x40 MLOAD PUSH1 0x0 PUSH1 0x40 MLOAD DUP1 DUP4 SUB DUP2 DUP6 DUP9 DUP9 CALL SWAP4 POP POP POP POP ISZERO DUP1 ISZERO PUSH2 0x239 JUMPI RETURNDATASIZE PUSH1 0x0 DUP1 RETURNDATACOPY RETURNDATASIZE PUSH1 0x0 REVERT JUMPDEST POP PUSH32 0x6E3C6096795C8298A218B2CFB8BDE42726FF7C9A3D27B4D3BA41AB7F74FEB5FB DUP4 DUP4 DUP4 PUSH1 0x40 MLOAD PUSH2 0x26D SWAP4 SWAP3 SWAP2 SWAP1 PUSH2 0x5BD JUMP JUMPDEST PUSH1 0x40 MLOAD DUP1 SWAP2 SUB SWAP1 LOG1 POP POP POP JUMP JUMPDEST PUSH1 0x0 CALLVALUE GT PUSH2 0x2BD JUMPI PUSH1 0x40 MLOAD PUSH32 0x8C379A000000000000000000000000000000000000000000000000000000000 DUP2 MSTORE PUSH1 0x4 ADD PUSH2 0x2B4 SWAP1 PUSH2 0x542 JUMP JUMPDEST PUSH1 0x40 MLOAD DUP1 SWAP2 SUB SWAP1 REVERT JUMPDEST CALLVALUE PUSH1 0x1 PUSH1 0x0 DUP4 DUP2 MSTORE PUSH1 0x20 ADD SWAP1 DUP2 MSTORE PUSH1 0x20 ADD PUSH1 0x0 KECCAK256 PUSH1 0x0 DUP3 DUP3 SLOAD PUSH2 0x2E0 SWAP2 SWAP1 PUSH2 0x62E JUMP JUMPDEST SWAP3 POP POP DUP2 SWAP1 SSTORE POP PUSH32 0x26679FA1F3868C950E9362F1106CF73F3318DE0280E0411A3C68E4B463EADD4F DUP2 CALLVALUE PUSH1 0x40 MLOAD PUSH2 0x318 SWAP3 SWAP2 SWAP1 PUSH2 0x5F4 JUMP JUMPDEST PUSH1 0x40 MLOAD DUP1 SWAP2 SUB SWAP1 LOG1 POP JUMP JUMPDEST PUSH1 0x1 PUSH1 0x20 MSTORE DUP1 PUSH1 0x0 MSTORE PUSH1 0x40 PUSH1 0x0 KECCAK256 PUSH1 0x0 SWAP2 POP SWAP1 POP SLOAD DUP2 JUMP JUMPDEST PUSH1 0x0 DUP1 SLOAD SWAP1 PUSH2 0x100 EXP SWAP1 DIV PUSH20 0xFFFFFFFFFFFFFFFFFFFFFFFFFFFFFFFFFFFFFFFF AND DUP2 JUMP JUMPDEST PUSH1 0x0 DUP2 CALLDATALOAD SWAP1 POP PUSH2 0x36E DUP2 PUSH2 0x737 JUMP JUMPDEST SWAP3 SWAP2 POP POP JUMP JUMPDEST PUSH1 0x0 DUP2 CALLDATALOAD SWAP1 POP PUSH2 0x383 DUP2 PUSH2 0x74E JUMP JUMPDEST SWAP3 SWAP2 POP POP JUMP JUMPDEST PUSH1 0x0 PUSH1 0x20 DUP3 DUP5 SUB SLT ISZERO PUSH2 0x39B JUMPI PUSH1 0x0 DUP1 REVERT JUMPDEST PUSH1 0x0 PUSH2 0x3A9 DUP5 DUP3 DUP6 ADD PUSH2 0x374 JUMP JUMPDEST SWAP2 POP POP SWAP3 SWAP2 POP POP JUMP JUMPDEST PUSH1 0x0 DUP1 PUSH1 0x40 DUP4 DUP6 SUB SLT ISZERO PUSH2 0x3C5 JUMPI PUSH1 0x0 DUP1 REVERT JUMPDEST PUSH1 0x0 PUSH2 0x3D3 DUP6 DUP3 DUP7 ADD PUSH2 0x374 JUMP JUMPDEST SWAP3 POP POP PUSH1 0x20 PUSH2 0x3E4 DUP6 DUP3 DUP7 ADD PUSH2 0x35F JUMP JUMPDEST SWAP2 POP POP SWAP3 POP SWAP3 SWAP1 POP JUMP JUMPDEST PUSH2 0x3F7 DUP2 PUSH2 0x6D2 JUMP JUMPDEST DUP3 MSTORE POP POP JUMP JUMPDEST PUSH2 0x406 DUP2 PUSH2 0x684 JUMP JUMPDEST DUP3 MSTORE POP POP JUMP JUMPDEST PUSH1 0x0 PUSH2 0x419 PUSH1 0x25 DUP4 PUSH2 0x61D JUMP JUMPDEST SWAP2 POP PUSH32 0x4465706F73697420616D6F756E74206D75737420626520677265617465722074 PUSH1 0x0 DUP4 ADD MSTORE PUSH32 0x68616E2030000000000000000000000000000000000000000000000000000000 PUSH1 0x20 DUP4 ADD MSTORE PUSH1 0x40 DUP3 ADD SWAP1 POP SWAP2 SWAP1 POP JUMP JUMPDEST PUSH1 0x0 PUSH2 0x47F PUSH1 0x26 DUP4 PUSH2 0x61D JUMP JUMPDEST SWAP2 POP PUSH32 0x4F6E6C792061756374696F6E206D616E616765722063616E2072656C65617365 PUSH1 0x0 DUP4 ADD MSTORE PUSH32 0x2066756E64730000000000000000000000000000000000000000000000000000 PUSH1 0x20 DUP4 ADD MSTORE PUSH1 0x40 DUP3 ADD SWAP1 POP SWAP2 SWAP1 POP JUMP JUMPDEST PUSH1 0x0 PUSH2 0x4E5 PUSH1 0x13 DUP4 PUSH2 0x61D JUMP JUMPDEST SWAP2 POP PUSH32 0x4E6F2066756E647320746F2072656C6561736500000000000000000000000000 PUSH1 0x0 DUP4 ADD MSTORE PUSH1 0x20 DUP3 ADD SWAP1 POP SWAP2 SWAP1 POP JUMP JUMPDEST PUSH2 0x521 DUP2 PUSH2 0x6C8 JUMP JUMPDEST DUP3 MSTORE POP POP JUMP JUMPDEST PUSH1 0x0 PUSH1 0x20 DUP3 ADD SWAP1 POP PUSH2 0x53C PUSH1 0x0 DUP4 ADD DUP5 PUSH2 0x3FD JUMP JUMPDEST SWAP3 SWAP2 POP POP JUMP JUMPDEST PUSH1 0x0 PUSH1 0x20 DUP3 ADD SWAP1 POP DUP2 DUP2 SUB PUSH1 0x0 DUP4 ADD MSTORE PUSH2 0x55B DUP2 PUSH2 0x40C JUMP JUMPDEST SWAP1 POP SWAP2 SWAP1 POP JUMP JUMPDEST PUSH1 0x0 PUSH1 0x20 DUP3 ADD SWAP1 POP DUP2 DUP2 SUB PUSH1 0x0 DUP4 ADD MSTORE PUSH2 0x57B DUP2 PUSH2 0x472 JUMP JUMPDEST SWAP1 POP SWAP2 SWAP1 POP JUMP JUMPDEST PUSH1 0x0 PUSH1 0x20 DUP3 ADD SWAP1 POP DUP2 DUP2 SUB PUSH1 0x0 DUP4 ADD MSTORE PUSH2 0x59B DUP2 PUSH2 0x4D8 JUMP JUMPDEST SWAP1 POP SWAP2 SWAP1 POP JUMP JUMPDEST PUSH1 0x0 PUSH1 0x20 DUP3 ADD SWAP1 POP PUSH2 0x5B7 PUSH1 0x0 DUP4 ADD DUP5 PUSH2 0x518 JUMP JUMPDEST SWAP3 SWAP2 POP POP JUMP JUMPDEST PUSH1 0x0 PUSH1 0x60 DUP3 ADD SWAP1 POP PUSH2 0x5D2 PUSH1 0x0 DUP4 ADD DUP7 PUSH2 0x518 JUMP JUMPDEST PUSH2 0x5DF PUSH1 0x20 DUP4 ADD DUP6 PUSH2 0x3EE JUMP JUMPDEST PUSH2 0x5EC PUSH1 0x40 DUP4 ADD DUP5 PUSH2 0x518 JUMP JUMPDEST SWAP5 SWAP4 POP POP POP POP JUMP JUMPDEST PUSH1 0x0 PUSH1 0x40 DUP3 ADD SWAP1 POP PUSH2 0x609 PUSH1 0x0 DUP4 ADD DUP6 PUSH2 0x518 JUMP JUMPDEST PUSH2 0x616 PUSH1 0x20 DUP4 ADD DUP5 PUSH2 0x518 JUMP JUMPDEST SWAP4 SWAP3 POP POP POP JUMP JUMPDEST PUSH1 0x0 DUP3 DUP3 MSTORE PUSH1 0x20 DUP3 ADD SWAP1 POP SWAP3 SWAP2 POP POP JUMP JUMPDEST PUSH1 0x0 PUSH2 0x639 DUP3 PUSH2 0x6C8 JUMP JUMPDEST SWAP2 POP PUSH2 0x644 DUP4 PUSH2 0x6C8 JUMP JUMPDEST SWAP3 POP DUP3 PUSH32 0xFFFFFFFFFFFFFFFFFFFFFFFFFFFFFFFFFFFFFFFFFFFFFFFFFFFFFFFFFFFFFFFF SUB DUP3 GT ISZERO PUSH2 0x679 JUMPI PUSH2 0x678 PUSH2 0x708 JUMP JUMPDEST JUMPDEST DUP3 DUP3 ADD SWAP1 POP SWAP3 SWAP2 POP POP JUMP JUMPDEST PUSH1 0x0 PUSH2 0x68F DUP3 PUSH2 0x6A8 JUMP JUMPDEST SWAP1 POP SWAP2 SWAP1 POP JUMP JUMPDEST PUSH1 0x0 PUSH2 0x6A1 DUP3 PUSH2 0x6A8 JUMP JUMPDEST SWAP1 POP SWAP2 SWAP1 POP JUMP JUMPDEST PUSH1 0x0 PUSH20 0xFFFFFFFFFFFFFFFFFFFFFFFFFFFFFFFFFFFFFFFF DUP3 AND SWAP1 POP SWAP2 SWAP1 POP JUMP JUMPDEST PUSH1 0x0 DUP2 SWAP1 POP SWAP2 SWAP1 POP JUMP JUMPDEST PUSH1 0x0 PUSH2 0x6DD DUP3 PUSH2 0x6E4 JUMP JUMPDEST SWAP1 POP SWAP2 SWAP1 POP JUMP JUMPDEST PUSH1 0x0 PUSH2 0x6EF DUP3 PUSH2 0x6F6 JUMP JUMPDEST SWAP1 POP SWAP2 SWAP1 POP JUMP JUMPDEST PUSH1 0x0 PUSH2 0x701 DUP3 PUSH2 0x6A8 JUMP JUMPDEST SWAP1 POP SWAP2 SWAP1 POP JUMP JUMPDEST PUSH32 0x4E487B7100000000000000000000000000000000000000000000000000000000 PUSH1 0x0 MSTORE PUSH1 0x11 PUSH1 0x4 MSTORE PUSH1 0x24 PUSH1 0x0 REVERT JUMPDEST PUSH2 0x740 DUP2 PUSH2 0x696 JUMP JUMPDEST DUP2 EQ PUSH2 0x74B JUMPI PUSH1 0x0 DUP1 REVERT JUMPDEST POP JUMP JUMPDEST PUSH2 0x757 DUP2 PUSH2 0x6C8 JUMP JUMPDEST DUP2 EQ PUSH2 0x762 JUMPI PUSH1 0x0 DUP1 REVERT JUMPDEST POP JUMP INVALID LOG2 PUSH5 0x6970667358 0x22 SLT KECCAK256 MULMOD 0xD9 0xB7 JUMPI 0xF8 0xB5 PUSH31 0x6571D966DF5DB3D8609F1A33FBE1CF578A9279B6A30AF1FB4864736F6C6343 STOP ADDMOD STOP STOP CALLER "
				},
				"gasEstimates": {
					"creation": {
						"codeDepositCost": "389400",
						"executionCost": "infinite",
						"totalCost": "infinite"
					},
					"external": {
						"auctionManager()": "1255",
						"depositFunds(uint256)": "infinite",
						"escrowBalances(uint256)": "infinite",
						"releaseFunds(uint256,address)": "infinite"
					}
				},
				"methodIdentifiers": {
					"auctionManager()": "b0192f9a",
					"depositFunds(uint256)": "3b76594d",
					"escrowBalances(uint256)": "43ebf45a",
					"releaseFunds(uint256,address)": "1af23a59"
				}
			},
			"storageLayout": {
				"storage": [
					{
						"astId": 3,
						"contract": "contracts/EscrowService.sol:EscrowService",
						"label": "auctionManager",
						"offset": 0,
						"slot": "0",
						"type": "t_address"
					},
					{
						"astId": 7,
						"contract": "contracts/EscrowService.sol:EscrowService",
						"label": "escrowBalances",
						"offset": 0,
						"slot": "1",
						"type": "t_mapping(t_uint256,t_uint256)"
					}
				],
				"types": {
					"t_address": {
						"encoding": "inplace",
						"label": "address",
						"numberOfBytes": "20"
					},
					"t_mapping(t_uint256,t_uint256)": {
						"encoding": "mapping",
						"key": "t_uint256",
						"label": "mapping(uint256 => uint256)",
						"numberOfBytes": "32",
						"value": "t_uint256"
					},
					"t_uint256": {
						"encoding": "inplace",
						"label": "uint256",
						"numberOfBytes": "32"
					}
				}
			},
			"userdoc": {
				"kind": "user",
				"methods": {},
				"version": 1
			}
		}
	}
}