{
	"contracts/BiddingContract.sol": {
		"BiddingContract": {
			"abi": [
				{
					"anonymous": false,
					"inputs": [
						{
							"indexed": false,
							"internalType": "uint256",
							"name": "auctionId",
							"type": "uint256"
						},
						{
							"indexed": false,
							"internalType": "address",
							"name": "bidder",
							"type": "address"
						},
						{
							"indexed": false,
							"internalType": "uint256",
							"name": "amount",
							"type": "uint256"
						}
					],
					"name": "BidPlaced",
					"type": "event"
				},
				{
					"anonymous": false,
					"inputs": [
						{
							"indexed": false,
							"internalType": "uint256",
							"name": "auctionId",
							"type": "uint256"
						},
						{
							"indexed": false,
							"internalType": "address",
							"name": "bidder",
							"type": "address"
						},
						{
							"indexed": false,
							"internalType": "uint256",
							"name": "amount",
							"type": "uint256"
						}
					],
					"name": "BidWithdrawn",
					"type": "event"
				},
				{
					"inputs": [
						{
							"internalType": "uint256",
							"name": "",
							"type": "uint256"
						},
						{
							"internalType": "uint256",
							"name": "",
							"type": "uint256"
						}
					],
					"name": "auctionBids",
					"outputs": [
						{
							"internalType": "address",
							"name": "bidder",
							"type": "address"
						},
						{
							"internalType": "uint256",
							"name": "amount",
							"type": "uint256"
						},
						{
							"internalType": "uint256",
							"name": "timestamp",
							"type": "uint256"
						}
					],
					"stateMutability": "view",
					"type": "function"
				},
				{
					"inputs": [
						{
							"internalType": "uint256",
							"name": "",
							"type": "uint256"
						}
					],
					"name": "highestBids",
					"outputs": [
						{
							"internalType": "address",
							"name": "bidder",
							"type": "address"
						},
						{
							"internalType": "uint256",
							"name": "amount",
							"type": "uint256"
						},
						{
							"internalType": "uint256",
							"name": "timestamp",
							"type": "uint256"
						}
					],
					"stateMutability": "view",
					"type": "function"
				},
				{
					"inputs": [
						{
							"internalType": "uint256",
							"name": "_auctionId",
							"type": "uint256"
						}
					],
					"name": "placeBid",
					"outputs": [],
					"stateMutability": "payable",
					"type": "function"
				}
			],
			"devdoc": {
				"kind": "dev",
				"methods": {},
				"version": 1
			},
			"evm": {
				"assembly": "    /* \"contracts/BiddingContract.sol\":85:1228  contract BiddingContract {... */\n  mstore(0x40, 0x80)\n  callvalue\n  dup1\n  iszero\n  tag_1\n  jumpi\n  0x00\n  dup1\n  revert\ntag_1:\n  pop\n  dataSize(sub_0)\n  dup1\n  dataOffset(sub_0)\n  0x00\n  codecopy\n  0x00\n  return\nstop\n\nsub_0: assembly {\n        /* \"contracts/BiddingContract.sol\":85:1228  contract BiddingContract {... */\n      mstore(0x40, 0x80)\n      jumpi(tag_1, lt(calldatasize, 0x04))\n      shr(0xe0, calldataload(0x00))\n      dup1\n      0x111cb258\n      eq\n      tag_2\n      jumpi\n      dup1\n      0x5f93de49\n      eq\n      tag_3\n      jumpi\n      dup1\n      0x9979ef45\n      eq\n      tag_4\n      jumpi\n    tag_1:\n      0x00\n      dup1\n      revert\n        /* \"contracts/BiddingContract.sol\":269:311  mapping(uint256 => Bid) public highestBids */\n    tag_2:\n      callvalue\n      dup1\n      iszero\n      tag_5\n      jumpi\n      0x00\n      dup1\n      revert\n    tag_5:\n      pop\n      tag_6\n      0x04\n      dup1\n      calldatasize\n      sub\n      dup2\n      add\n      swap1\n      tag_7\n      swap2\n      swap1\n      tag_8\n      jump\t// in\n    tag_7:\n      tag_9\n      jump\t// in\n    tag_6:\n      mload(0x40)\n      tag_10\n      swap4\n      swap3\n      swap2\n      swap1\n      tag_11\n      jump\t// in\n    tag_10:\n      mload(0x40)\n      dup1\n      swap2\n      sub\n      swap1\n      return\n        /* \"contracts/BiddingContract.sol\":219:263  mapping(uint256 => Bid[]) public auctionBids */\n    tag_3:\n      callvalue\n      dup1\n      iszero\n      tag_12\n      jumpi\n      0x00\n      dup1\n      revert\n    tag_12:\n      pop\n      tag_13\n      0x04\n      dup1\n      calldatasize\n      sub\n      dup2\n      add\n      swap1\n      tag_14\n      swap2\n      swap1\n      tag_15\n      jump\t// in\n    tag_14:\n      tag_16\n      jump\t// in\n    tag_13:\n      mload(0x40)\n      tag_17\n      swap4\n      swap3\n      swap2\n      swap1\n      tag_11\n      jump\t// in\n    tag_17:\n      mload(0x40)\n      dup1\n      swap2\n      sub\n      swap1\n      return\n        /* \"contracts/BiddingContract.sol\":474:1226  function placeBid(uint256 _auctionId) external payable {... */\n    tag_4:\n      tag_18\n      0x04\n      dup1\n      calldatasize\n      sub\n      dup2\n      add\n      swap1\n      tag_19\n      swap2\n      swap1\n      tag_8\n      jump\t// in\n    tag_19:\n      tag_20\n      jump\t// in\n    tag_18:\n      stop\n        /* \"contracts/BiddingContract.sol\":269:311  mapping(uint256 => Bid) public highestBids */\n    tag_9:\n      mstore(0x20, 0x01)\n      dup1\n      0x00\n      mstore\n      keccak256(0x00, 0x40)\n      0x00\n      swap2\n      pop\n      swap1\n      pop\n      dup1\n      0x00\n      add\n      0x00\n      swap1\n      sload\n      swap1\n      0x0100\n      exp\n      swap1\n      div\n      0xffffffffffffffffffffffffffffffffffffffff\n      and\n      swap1\n      dup1\n      0x01\n      add\n      sload\n      swap1\n      dup1\n      0x02\n      add\n      sload\n      swap1\n      pop\n      dup4\n      jump\t// out\n        /* \"contracts/BiddingContract.sol\":219:263  mapping(uint256 => Bid[]) public auctionBids */\n    tag_16:\n      mstore(0x20, 0x00)\n      dup2\n      0x00\n      mstore\n      keccak256(0x00, 0x40)\n      dup2\n      dup2\n      sload\n      dup2\n      lt\n      tag_21\n      jumpi\n      0x00\n      dup1\n      revert\n    tag_21:\n      swap1\n      0x00\n      mstore\n      keccak256(0x00, 0x20)\n      swap1\n      0x03\n      mul\n      add\n      0x00\n      swap2\n      pop\n      swap2\n      pop\n      pop\n      dup1\n      0x00\n      add\n      0x00\n      swap1\n      sload\n      swap1\n      0x0100\n      exp\n      swap1\n      div\n      0xffffffffffffffffffffffffffffffffffffffff\n      and\n      swap1\n      dup1\n      0x01\n      add\n      sload\n      swap1\n      dup1\n      0x02\n      add\n      sload\n      swap1\n      pop\n      dup4\n      jump\t// out\n        /* \"contracts/BiddingContract.sol\":474:1226  function placeBid(uint256 _auctionId) external payable {... */\n    tag_20:\n        /* \"contracts/BiddingContract.sol\":559:560  0 */\n      0x00\n        /* \"contracts/BiddingContract.sol\":547:556  msg.value */\n      callvalue\n        /* \"contracts/BiddingContract.sol\":547:560  msg.value > 0 */\n      gt\n        /* \"contracts/BiddingContract.sol\":539:598  require(msg.value > 0, \"Bid amount must be greater than 0\") */\n      tag_24\n      jumpi\n      mload(0x40)\n      0x08c379a000000000000000000000000000000000000000000000000000000000\n      dup2\n      mstore\n      0x04\n      add\n      tag_25\n      swap1\n      tag_26\n      jump\t// in\n    tag_25:\n      mload(0x40)\n      dup1\n      swap2\n      sub\n      swap1\n      revert\n    tag_24:\n        /* \"contracts/BiddingContract.sol\":628:639  highestBids */\n      0x01\n        /* \"contracts/BiddingContract.sol\":628:651  highestBids[_auctionId] */\n      0x00\n        /* \"contracts/BiddingContract.sol\":640:650  _auctionId */\n      dup3\n        /* \"contracts/BiddingContract.sol\":628:651  highestBids[_auctionId] */\n      dup2\n      mstore\n      0x20\n      add\n      swap1\n      dup2\n      mstore\n      0x20\n      add\n      0x00\n      keccak256\n        /* \"contracts/BiddingContract.sol\":628:658  highestBids[_auctionId].amount */\n      0x01\n      add\n      sload\n        /* \"contracts/BiddingContract.sol\":616:625  msg.value */\n      callvalue\n        /* \"contracts/BiddingContract.sol\":616:658  msg.value > highestBids[_auctionId].amount */\n      gt\n        /* \"contracts/BiddingContract.sol\":608:706  require(msg.value > highestBids[_auctionId].amount, \"Bid must be higher than current highest bid\") */\n      tag_27\n      jumpi\n      mload(0x40)\n      0x08c379a000000000000000000000000000000000000000000000000000000000\n      dup2\n      mstore\n      0x04\n      add\n      tag_28\n      swap1\n      tag_29\n      jump\t// in\n    tag_28:\n      mload(0x40)\n      dup1\n      swap2\n      sub\n      swap1\n      revert\n    tag_27:\n        /* \"contracts/BiddingContract.sol\":771:772  0 */\n      0x00\n        /* \"contracts/BiddingContract.sol\":729:773  highestBids[_auctionId].bidder != address(0) */\n      0xffffffffffffffffffffffffffffffffffffffff\n      and\n        /* \"contracts/BiddingContract.sol\":729:740  highestBids */\n      0x01\n        /* \"contracts/BiddingContract.sol\":729:752  highestBids[_auctionId] */\n      0x00\n        /* \"contracts/BiddingContract.sol\":741:751  _auctionId */\n      dup4\n        /* \"contracts/BiddingContract.sol\":729:752  highestBids[_auctionId] */\n      dup2\n      mstore\n      0x20\n      add\n      swap1\n      dup2\n      mstore\n      0x20\n      add\n      0x00\n      keccak256\n        /* \"contracts/BiddingContract.sol\":729:759  highestBids[_auctionId].bidder */\n      0x00\n      add\n      0x00\n      swap1\n      sload\n      swap1\n      0x0100\n      exp\n      swap1\n      div\n      0xffffffffffffffffffffffffffffffffffffffff\n      and\n        /* \"contracts/BiddingContract.sol\":729:773  highestBids[_auctionId].bidder != address(0) */\n      0xffffffffffffffffffffffffffffffffffffffff\n      and\n      eq\n        /* \"contracts/BiddingContract.sol\":725:926  if (highestBids[_auctionId].bidder != address(0)) {... */\n      tag_30\n      jumpi\n        /* \"contracts/BiddingContract.sol\":843:854  highestBids */\n      0x01\n        /* \"contracts/BiddingContract.sol\":843:866  highestBids[_auctionId] */\n      0x00\n        /* \"contracts/BiddingContract.sol\":855:865  _auctionId */\n      dup3\n        /* \"contracts/BiddingContract.sol\":843:866  highestBids[_auctionId] */\n      dup2\n      mstore\n      0x20\n      add\n      swap1\n      dup2\n      mstore\n      0x20\n      add\n      0x00\n      keccak256\n        /* \"contracts/BiddingContract.sol\":843:873  highestBids[_auctionId].bidder */\n      0x00\n      add\n      0x00\n      swap1\n      sload\n      swap1\n      0x0100\n      exp\n      swap1\n      div\n      0xffffffffffffffffffffffffffffffffffffffff\n      and\n        /* \"contracts/BiddingContract.sol\":835:883  payable(highestBids[_auctionId].bidder).transfer */\n      0xffffffffffffffffffffffffffffffffffffffff\n      and\n        /* \"contracts/BiddingContract.sol\":835:915  payable(highestBids[_auctionId].bidder).transfer(highestBids[_auctionId].amount) */\n      0x08fc\n        /* \"contracts/BiddingContract.sol\":884:895  highestBids */\n      0x01\n        /* \"contracts/BiddingContract.sol\":884:907  highestBids[_auctionId] */\n      0x00\n        /* \"contracts/BiddingContract.sol\":896:906  _auctionId */\n      dup5\n        /* \"contracts/BiddingContract.sol\":884:907  highestBids[_auctionId] */\n      dup2\n      mstore\n      0x20\n      add\n      swap1\n      dup2\n      mstore\n      0x20\n      add\n      0x00\n      keccak256\n        /* \"contracts/BiddingContract.sol\":884:914  highestBids[_auctionId].amount */\n      0x01\n      add\n      sload\n        /* \"contracts/BiddingContract.sol\":835:915  payable(highestBids[_auctionId].bidder).transfer(highestBids[_auctionId].amount) */\n      swap1\n      dup2\n      iszero\n      mul\n      swap1\n      mload(0x40)\n      0x00\n      mload(0x40)\n      dup1\n      dup4\n      sub\n      dup2\n      dup6\n      dup9\n      dup9\n      call\n      swap4\n      pop\n      pop\n      pop\n      pop\n      iszero\n      dup1\n      iszero\n      tag_32\n      jumpi\n      returndatasize\n      0x00\n      dup1\n      returndatacopy\n      revert(0x00, returndatasize)\n    tag_32:\n      pop\n        /* \"contracts/BiddingContract.sol\":725:926  if (highestBids[_auctionId].bidder != address(0)) {... */\n    tag_30:\n        /* \"contracts/BiddingContract.sol\":970:1088  Bid({... */\n      mload(0x40)\n      dup1\n      0x60\n      add\n      0x40\n      mstore\n      dup1\n        /* \"contracts/BiddingContract.sol\":996:1006  msg.sender */\n      caller\n        /* \"contracts/BiddingContract.sol\":970:1088  Bid({... */\n      0xffffffffffffffffffffffffffffffffffffffff\n      and\n      dup2\n      mstore\n      0x20\n      add\n        /* \"contracts/BiddingContract.sol\":1028:1037  msg.value */\n      callvalue\n        /* \"contracts/BiddingContract.sol\":970:1088  Bid({... */\n      dup2\n      mstore\n      0x20\n      add\n        /* \"contracts/BiddingContract.sol\":1062:1077  block.timestamp */\n      timestamp\n        /* \"contracts/BiddingContract.sol\":970:1088  Bid({... */\n      dup2\n      mstore\n      pop\n        /* \"contracts/BiddingContract.sol\":944:955  highestBids */\n      0x01\n        /* \"contracts/BiddingContract.sol\":944:967  highestBids[_auctionId] */\n      0x00\n        /* \"contracts/BiddingContract.sol\":956:966  _auctionId */\n      dup4\n        /* \"contracts/BiddingContract.sol\":944:967  highestBids[_auctionId] */\n      dup2\n      mstore\n      0x20\n      add\n      swap1\n      dup2\n      mstore\n      0x20\n      add\n      0x00\n      keccak256\n        /* \"contracts/BiddingContract.sol\":944:1088  highestBids[_auctionId] = Bid({... */\n      0x00\n      dup3\n      add\n      mload\n      dup2\n      0x00\n      add\n      exp(0x0100, 0x00)\n      dup2\n      sload\n      dup2\n      0xffffffffffffffffffffffffffffffffffffffff\n      mul\n      not\n      and\n      swap1\n      dup4\n      0xffffffffffffffffffffffffffffffffffffffff\n      and\n      mul\n      or\n      swap1\n      sstore\n      pop\n      0x20\n      dup3\n      add\n      mload\n      dup2\n      0x01\n      add\n      sstore\n      0x40\n      dup3\n      add\n      mload\n      dup2\n      0x02\n      add\n      sstore\n      swap1\n      pop\n      pop\n        /* \"contracts/BiddingContract.sol\":1107:1118  auctionBids */\n      0x00\n        /* \"contracts/BiddingContract.sol\":1107:1130  auctionBids[_auctionId] */\n      dup1\n        /* \"contracts/BiddingContract.sol\":1119:1129  _auctionId */\n      dup3\n        /* \"contracts/BiddingContract.sol\":1107:1130  auctionBids[_auctionId] */\n      dup2\n      mstore\n      0x20\n      add\n      swap1\n      dup2\n      mstore\n      0x20\n      add\n      0x00\n      keccak256\n        /* \"contracts/BiddingContract.sol\":1136:1147  highestBids */\n      0x01\n        /* \"contracts/BiddingContract.sol\":1136:1159  highestBids[_auctionId] */\n      0x00\n        /* \"contracts/BiddingContract.sol\":1148:1158  _auctionId */\n      dup4\n        /* \"contracts/BiddingContract.sol\":1136:1159  highestBids[_auctionId] */\n      dup2\n      mstore\n      0x20\n      add\n      swap1\n      dup2\n      mstore\n      0x20\n      add\n      0x00\n      keccak256\n        /* \"contracts/BiddingContract.sol\":1107:1160  auctionBids[_auctionId].push(highestBids[_auctionId]) */\n      swap1\n      dup1\n      0x01\n      dup2\n      sload\n      add\n      dup1\n      dup3\n      sstore\n      dup1\n      swap2\n      pop\n      pop\n      0x01\n      swap1\n      sub\n      swap1\n      0x00\n      mstore\n      keccak256(0x00, 0x20)\n      swap1\n      0x03\n      mul\n      add\n      0x00\n      swap1\n      swap2\n      swap1\n      swap2\n      swap1\n      swap2\n      pop\n      0x00\n      dup3\n      add\n      0x00\n      swap1\n      sload\n      swap1\n      0x0100\n      exp\n      swap1\n      div\n      0xffffffffffffffffffffffffffffffffffffffff\n      and\n      dup2\n      0x00\n      add\n      exp(0x0100, 0x00)\n      dup2\n      sload\n      dup2\n      0xffffffffffffffffffffffffffffffffffffffff\n      mul\n      not\n      and\n      swap1\n      dup4\n      0xffffffffffffffffffffffffffffffffffffffff\n      and\n      mul\n      or\n      swap1\n      sstore\n      pop\n      0x01\n      dup3\n      add\n      sload\n      dup2\n      0x01\n      add\n      sstore\n      0x02\n      dup3\n      add\n      sload\n      dup2\n      0x02\n      add\n      sstore\n      pop\n      pop\n        /* \"contracts/BiddingContract.sol\":1175:1219  BidPlaced(_auctionId, msg.sender, msg.value) */\n      0x0e54eff26401bf69b81b26f60bd85ef47f5d85275c1d268d84f68d6897431c47\n        /* \"contracts/BiddingContract.sol\":1185:1195  _auctionId */\n      dup2\n        /* \"contracts/BiddingContract.sol\":1197:1207  msg.sender */\n      caller\n        /* \"contracts/BiddingContract.sol\":1209:1218  msg.value */\n      callvalue\n        /* \"contracts/BiddingContract.sol\":1175:1219  BidPlaced(_auctionId, msg.sender, msg.value) */\n      mload(0x40)\n      tag_34\n      swap4\n      swap3\n      swap2\n      swap1\n      tag_35\n      jump\t// in\n    tag_34:\n      mload(0x40)\n      dup1\n      swap2\n      sub\n      swap1\n      log1\n        /* \"contracts/BiddingContract.sol\":474:1226  function placeBid(uint256 _auctionId) external payable {... */\n      pop\n      jump\t// out\n        /* \"#utility.yul\":7:146   */\n    tag_37:\n      0x00\n        /* \"#utility.yul\":91:97   */\n      dup2\n        /* \"#utility.yul\":78:98   */\n      calldataload\n        /* \"#utility.yul\":69:98   */\n      swap1\n      pop\n        /* \"#utility.yul\":107:140   */\n      tag_39\n        /* \"#utility.yul\":134:139   */\n      dup2\n        /* \"#utility.yul\":107:140   */\n      tag_40\n      jump\t// in\n    tag_39:\n        /* \"#utility.yul\":59:146   */\n      swap3\n      swap2\n      pop\n      pop\n      jump\t// out\n        /* \"#utility.yul\":152:414   */\n    tag_8:\n      0x00\n        /* \"#utility.yul\":260:262   */\n      0x20\n        /* \"#utility.yul\":248:257   */\n      dup3\n        /* \"#utility.yul\":239:246   */\n      dup5\n        /* \"#utility.yul\":235:258   */\n      sub\n        /* \"#utility.yul\":231:263   */\n      slt\n        /* \"#utility.yul\":228:230   */\n      iszero\n      tag_42\n      jumpi\n        /* \"#utility.yul\":276:277   */\n      0x00\n        /* \"#utility.yul\":273:274   */\n      dup1\n        /* \"#utility.yul\":266:278   */\n      revert\n        /* \"#utility.yul\":228:230   */\n    tag_42:\n        /* \"#utility.yul\":319:320   */\n      0x00\n        /* \"#utility.yul\":344:397   */\n      tag_43\n        /* \"#utility.yul\":389:396   */\n      dup5\n        /* \"#utility.yul\":380:386   */\n      dup3\n        /* \"#utility.yul\":369:378   */\n      dup6\n        /* \"#utility.yul\":365:387   */\n      add\n        /* \"#utility.yul\":344:397   */\n      tag_37\n      jump\t// in\n    tag_43:\n        /* \"#utility.yul\":334:397   */\n      swap2\n      pop\n        /* \"#utility.yul\":290:407   */\n      pop\n        /* \"#utility.yul\":218:414   */\n      swap3\n      swap2\n      pop\n      pop\n      jump\t// out\n        /* \"#utility.yul\":420:827   */\n    tag_15:\n      0x00\n      dup1\n        /* \"#utility.yul\":545:547   */\n      0x40\n        /* \"#utility.yul\":533:542   */\n      dup4\n        /* \"#utility.yul\":524:531   */\n      dup6\n        /* \"#utility.yul\":520:543   */\n      sub\n        /* \"#utility.yul\":516:548   */\n      slt\n        /* \"#utility.yul\":513:515   */\n      iszero\n      tag_45\n      jumpi\n        /* \"#utility.yul\":561:562   */\n      0x00\n        /* \"#utility.yul\":558:559   */\n      dup1\n        /* \"#utility.yul\":551:563   */\n      revert\n        /* \"#utility.yul\":513:515   */\n    tag_45:\n        /* \"#utility.yul\":604:605   */\n      0x00\n        /* \"#utility.yul\":629:682   */\n      tag_46\n        /* \"#utility.yul\":674:681   */\n      dup6\n        /* \"#utility.yul\":665:671   */\n      dup3\n        /* \"#utility.yul\":654:663   */\n      dup7\n        /* \"#utility.yul\":650:672   */\n      add\n        /* \"#utility.yul\":629:682   */\n      tag_37\n      jump\t// in\n    tag_46:\n        /* \"#utility.yul\":619:682   */\n      swap3\n      pop\n        /* \"#utility.yul\":575:692   */\n      pop\n        /* \"#utility.yul\":731:733   */\n      0x20\n        /* \"#utility.yul\":757:810   */\n      tag_47\n        /* \"#utility.yul\":802:809   */\n      dup6\n        /* \"#utility.yul\":793:799   */\n      dup3\n        /* \"#utility.yul\":782:791   */\n      dup7\n        /* \"#utility.yul\":778:800   */\n      add\n        /* \"#utility.yul\":757:810   */\n      tag_37\n      jump\t// in\n    tag_47:\n        /* \"#utility.yul\":747:810   */\n      swap2\n      pop\n        /* \"#utility.yul\":702:820   */\n      pop\n        /* \"#utility.yul\":503:827   */\n      swap3\n      pop\n      swap3\n      swap1\n      pop\n      jump\t// out\n        /* \"#utility.yul\":833:951   */\n    tag_48:\n        /* \"#utility.yul\":920:944   */\n      tag_50\n        /* \"#utility.yul\":938:943   */\n      dup2\n        /* \"#utility.yul\":920:944   */\n      tag_51\n      jump\t// in\n    tag_50:\n        /* \"#utility.yul\":915:918   */\n      dup3\n        /* \"#utility.yul\":908:945   */\n      mstore\n        /* \"#utility.yul\":898:951   */\n      pop\n      pop\n      jump\t// out\n        /* \"#utility.yul\":957:1332   */\n    tag_52:\n      0x00\n        /* \"#utility.yul\":1120:1187   */\n      tag_54\n        /* \"#utility.yul\":1184:1186   */\n      0x2b\n        /* \"#utility.yul\":1179:1182   */\n      dup4\n        /* \"#utility.yul\":1120:1187   */\n      tag_55\n      jump\t// in\n    tag_54:\n        /* \"#utility.yul\":1113:1187   */\n      swap2\n      pop\n        /* \"#utility.yul\":1217:1251   */\n      0x426964206d75737420626520686967686572207468616e2063757272656e7420\n        /* \"#utility.yul\":1213:1214   */\n      0x00\n        /* \"#utility.yul\":1208:1211   */\n      dup4\n        /* \"#utility.yul\":1204:1215   */\n      add\n        /* \"#utility.yul\":1197:1252   */\n      mstore\n        /* \"#utility.yul\":1283:1296   */\n      0x6869676865737420626964000000000000000000000000000000000000000000\n        /* \"#utility.yul\":1278:1280   */\n      0x20\n        /* \"#utility.yul\":1273:1276   */\n      dup4\n        /* \"#utility.yul\":1269:1281   */\n      add\n        /* \"#utility.yul\":1262:1297   */\n      mstore\n        /* \"#utility.yul\":1323:1325   */\n      0x40\n        /* \"#utility.yul\":1318:1321   */\n      dup3\n        /* \"#utility.yul\":1314:1326   */\n      add\n        /* \"#utility.yul\":1307:1326   */\n      swap1\n      pop\n        /* \"#utility.yul\":1103:1332   */\n      swap2\n      swap1\n      pop\n      jump\t// out\n        /* \"#utility.yul\":1338:1703   */\n    tag_56:\n      0x00\n        /* \"#utility.yul\":1501:1568   */\n      tag_58\n        /* \"#utility.yul\":1565:1567   */\n      0x21\n        /* \"#utility.yul\":1560:1563   */\n      dup4\n        /* \"#utility.yul\":1501:1568   */\n      tag_55\n      jump\t// in\n    tag_58:\n        /* \"#utility.yul\":1494:1568   */\n      swap2\n      pop\n        /* \"#utility.yul\":1598:1632   */\n      0x42696420616d6f756e74206d7573742062652067726561746572207468616e20\n        /* \"#utility.yul\":1594:1595   */\n      0x00\n        /* \"#utility.yul\":1589:1592   */\n      dup4\n        /* \"#utility.yul\":1585:1596   */\n      add\n        /* \"#utility.yul\":1578:1633   */\n      mstore\n        /* \"#utility.yul\":1664:1667   */\n      0x3000000000000000000000000000000000000000000000000000000000000000\n        /* \"#utility.yul\":1659:1661   */\n      0x20\n        /* \"#utility.yul\":1654:1657   */\n      dup4\n        /* \"#utility.yul\":1650:1662   */\n      add\n        /* \"#utility.yul\":1643:1668   */\n      mstore\n        /* \"#utility.yul\":1694:1696   */\n      0x40\n        /* \"#utility.yul\":1689:1692   */\n      dup3\n        /* \"#utility.yul\":1685:1697   */\n      add\n        /* \"#utility.yul\":1678:1697   */\n      swap1\n      pop\n        /* \"#utility.yul\":1484:1703   */\n      swap2\n      swap1\n      pop\n      jump\t// out\n        /* \"#utility.yul\":1709:1827   */\n    tag_59:\n        /* \"#utility.yul\":1796:1820   */\n      tag_61\n        /* \"#utility.yul\":1814:1819   */\n      dup2\n        /* \"#utility.yul\":1796:1820   */\n      tag_62\n      jump\t// in\n    tag_61:\n        /* \"#utility.yul\":1791:1794   */\n      dup3\n        /* \"#utility.yul\":1784:1821   */\n      mstore\n        /* \"#utility.yul\":1774:1827   */\n      pop\n      pop\n      jump\t// out\n        /* \"#utility.yul\":1833:2275   */\n    tag_11:\n      0x00\n        /* \"#utility.yul\":2020:2022   */\n      0x60\n        /* \"#utility.yul\":2009:2018   */\n      dup3\n        /* \"#utility.yul\":2005:2023   */\n      add\n        /* \"#utility.yul\":1997:2023   */\n      swap1\n      pop\n        /* \"#utility.yul\":2033:2104   */\n      tag_64\n        /* \"#utility.yul\":2101:2102   */\n      0x00\n        /* \"#utility.yul\":2090:2099   */\n      dup4\n        /* \"#utility.yul\":2086:2103   */\n      add\n        /* \"#utility.yul\":2077:2083   */\n      dup7\n        /* \"#utility.yul\":2033:2104   */\n      tag_48\n      jump\t// in\n    tag_64:\n        /* \"#utility.yul\":2114:2186   */\n      tag_65\n        /* \"#utility.yul\":2182:2184   */\n      0x20\n        /* \"#utility.yul\":2171:2180   */\n      dup4\n        /* \"#utility.yul\":2167:2185   */\n      add\n        /* \"#utility.yul\":2158:2164   */\n      dup6\n        /* \"#utility.yul\":2114:2186   */\n      tag_59\n      jump\t// in\n    tag_65:\n        /* \"#utility.yul\":2196:2268   */\n      tag_66\n        /* \"#utility.yul\":2264:2266   */\n      0x40\n        /* \"#utility.yul\":2253:2262   */\n      dup4\n        /* \"#utility.yul\":2249:2267   */\n      add\n        /* \"#utility.yul\":2240:2246   */\n      dup5\n        /* \"#utility.yul\":2196:2268   */\n      tag_59\n      jump\t// in\n    tag_66:\n        /* \"#utility.yul\":1987:2275   */\n      swap5\n      swap4\n      pop\n      pop\n      pop\n      pop\n      jump\t// out\n        /* \"#utility.yul\":2281:2700   */\n    tag_29:\n      0x00\n        /* \"#utility.yul\":2485:2487   */\n      0x20\n        /* \"#utility.yul\":2474:2483   */\n      dup3\n        /* \"#utility.yul\":2470:2488   */\n      add\n        /* \"#utility.yul\":2462:2488   */\n      swap1\n      pop\n        /* \"#utility.yul\":2534:2543   */\n      dup2\n        /* \"#utility.yul\":2528:2532   */\n      dup2\n        /* \"#utility.yul\":2524:2544   */\n      sub\n        /* \"#utility.yul\":2520:2521   */\n      0x00\n        /* \"#utility.yul\":2509:2518   */\n      dup4\n        /* \"#utility.yul\":2505:2522   */\n      add\n        /* \"#utility.yul\":2498:2545   */\n      mstore\n        /* \"#utility.yul\":2562:2693   */\n      tag_68\n        /* \"#utility.yul\":2688:2692   */\n      dup2\n        /* \"#utility.yul\":2562:2693   */\n      tag_52\n      jump\t// in\n    tag_68:\n        /* \"#utility.yul\":2554:2693   */\n      swap1\n      pop\n        /* \"#utility.yul\":2452:2700   */\n      swap2\n      swap1\n      pop\n      jump\t// out\n        /* \"#utility.yul\":2706:3125   */\n    tag_26:\n      0x00\n        /* \"#utility.yul\":2910:2912   */\n      0x20\n        /* \"#utility.yul\":2899:2908   */\n      dup3\n        /* \"#utility.yul\":2895:2913   */\n      add\n        /* \"#utility.yul\":2887:2913   */\n      swap1\n      pop\n        /* \"#utility.yul\":2959:2968   */\n      dup2\n        /* \"#utility.yul\":2953:2957   */\n      dup2\n        /* \"#utility.yul\":2949:2969   */\n      sub\n        /* \"#utility.yul\":2945:2946   */\n      0x00\n        /* \"#utility.yul\":2934:2943   */\n      dup4\n        /* \"#utility.yul\":2930:2947   */\n      add\n        /* \"#utility.yul\":2923:2970   */\n      mstore\n        /* \"#utility.yul\":2987:3118   */\n      tag_70\n        /* \"#utility.yul\":3113:3117   */\n      dup2\n        /* \"#utility.yul\":2987:3118   */\n      tag_56\n      jump\t// in\n    tag_70:\n        /* \"#utility.yul\":2979:3118   */\n      swap1\n      pop\n        /* \"#utility.yul\":2877:3125   */\n      swap2\n      swap1\n      pop\n      jump\t// out\n        /* \"#utility.yul\":3131:3573   */\n    tag_35:\n      0x00\n        /* \"#utility.yul\":3318:3320   */\n      0x60\n        /* \"#utility.yul\":3307:3316   */\n      dup3\n        /* \"#utility.yul\":3303:3321   */\n      add\n        /* \"#utility.yul\":3295:3321   */\n      swap1\n      pop\n        /* \"#utility.yul\":3331:3402   */\n      tag_72\n        /* \"#utility.yul\":3399:3400   */\n      0x00\n        /* \"#utility.yul\":3388:3397   */\n      dup4\n        /* \"#utility.yul\":3384:3401   */\n      add\n        /* \"#utility.yul\":3375:3381   */\n      dup7\n        /* \"#utility.yul\":3331:3402   */\n      tag_59\n      jump\t// in\n    tag_72:\n        /* \"#utility.yul\":3412:3484   */\n      tag_73\n        /* \"#utility.yul\":3480:3482   */\n      0x20\n        /* \"#utility.yul\":3469:3478   */\n      dup4\n        /* \"#utility.yul\":3465:3483   */\n      add\n        /* \"#utility.yul\":3456:3462   */\n      dup6\n        /* \"#utility.yul\":3412:3484   */\n      tag_48\n      jump\t// in\n    tag_73:\n        /* \"#utility.yul\":3494:3566   */\n      tag_74\n        /* \"#utility.yul\":3562:3564   */\n      0x40\n        /* \"#utility.yul\":3551:3560   */\n      dup4\n        /* \"#utility.yul\":3547:3565   */\n      add\n        /* \"#utility.yul\":3538:3544   */\n      dup5\n        /* \"#utility.yul\":3494:3566   */\n      tag_59\n      jump\t// in\n    tag_74:\n        /* \"#utility.yul\":3285:3573   */\n      swap5\n      swap4\n      pop\n      pop\n      pop\n      pop\n      jump\t// out\n        /* \"#utility.yul\":3579:3748   */\n    tag_55:\n      0x00\n        /* \"#utility.yul\":3697:3703   */\n      dup3\n        /* \"#utility.yul\":3692:3695   */\n      dup3\n        /* \"#utility.yul\":3685:3704   */\n      mstore\n        /* \"#utility.yul\":3737:3741   */\n      0x20\n        /* \"#utility.yul\":3732:3735   */\n      dup3\n        /* \"#utility.yul\":3728:3742   */\n      add\n        /* \"#utility.yul\":3713:3742   */\n      swap1\n      pop\n        /* \"#utility.yul\":3675:3748   */\n      swap3\n      swap2\n      pop\n      pop\n      jump\t// out\n        /* \"#utility.yul\":3754:3850   */\n    tag_51:\n      0x00\n        /* \"#utility.yul\":3820:3844   */\n      tag_77\n        /* \"#utility.yul\":3838:3843   */\n      dup3\n        /* \"#utility.yul\":3820:3844   */\n      tag_78\n      jump\t// in\n    tag_77:\n        /* \"#utility.yul\":3809:3844   */\n      swap1\n      pop\n        /* \"#utility.yul\":3799:3850   */\n      swap2\n      swap1\n      pop\n      jump\t// out\n        /* \"#utility.yul\":3856:3982   */\n    tag_78:\n      0x00\n        /* \"#utility.yul\":3933:3975   */\n      0xffffffffffffffffffffffffffffffffffffffff\n        /* \"#utility.yul\":3926:3931   */\n      dup3\n        /* \"#utility.yul\":3922:3976   */\n      and\n        /* \"#utility.yul\":3911:3976   */\n      swap1\n      pop\n        /* \"#utility.yul\":3901:3982   */\n      swap2\n      swap1\n      pop\n      jump\t// out\n        /* \"#utility.yul\":3988:4065   */\n    tag_62:\n      0x00\n        /* \"#utility.yul\":4054:4059   */\n      dup2\n        /* \"#utility.yul\":4043:4059   */\n      swap1\n      pop\n        /* \"#utility.yul\":4033:4065   */\n      swap2\n      swap1\n      pop\n      jump\t// out\n        /* \"#utility.yul\":4071:4193   */\n    tag_40:\n        /* \"#utility.yul\":4144:4168   */\n      tag_82\n        /* \"#utility.yul\":4162:4167   */\n      dup2\n        /* \"#utility.yul\":4144:4168   */\n      tag_62\n      jump\t// in\n    tag_82:\n        /* \"#utility.yul\":4137:4142   */\n      dup2\n        /* \"#utility.yul\":4134:4169   */\n      eq\n        /* \"#utility.yul\":4124:4126   */\n      tag_83\n      jumpi\n        /* \"#utility.yul\":4183:4184   */\n      0x00\n        /* \"#utility.yul\":4180:4181   */\n      dup1\n        /* \"#utility.yul\":4173:4185   */\n      revert\n        /* \"#utility.yul\":4124:4126   */\n    tag_83:\n        /* \"#utility.yul\":4114:4193   */\n      pop\n      jump\t// out\n\n    auxdata: 0xa2646970667358221220885cd2cb99d20a8f26968064737e4d0be6eb26aa9c9ca6fee822afc987f928b564736f6c63430008000033\n}\n",
				"bytecode": {
					"linkReferences": {},
					"object": "608060405234801561001057600080fd5b50610774806100206000396000f3fe6080604052600436106100345760003560e01c8063111cb258146100395780635f93de49146100785780639979ef45146100b7575b600080fd5b34801561004557600080fd5b50610060600480360381019061005b91906104dd565b6100d3565b60405161006f9392919061062c565b60405180910390f35b34801561008457600080fd5b5061009f600480360381019061009a9190610506565b61011d565b6040516100ae9392919061062c565b60405180910390f35b6100d160048036038101906100cc91906104dd565b610184565b005b60016020528060005260406000206000915090508060000160009054906101000a900473ffffffffffffffffffffffffffffffffffffffff16908060010154908060020154905083565b6000602052816000526040600020818154811061013957600080fd5b9060005260206000209060030201600091509150508060000160009054906101000a900473ffffffffffffffffffffffffffffffffffffffff16908060010154908060020154905083565b600034116101c7576040517f08c379a00000000000000000000000000000000000000000000000000000000081526004016101be90610683565b60405180910390fd5b6001600082815260200190815260200160002060010154341161021f576040517f08c379a000000000000000000000000000000000000000000000000000000000815260040161021690610663565b60405180910390fd5b600073ffffffffffffffffffffffffffffffffffffffff166001600083815260200190815260200160002060000160009054906101000a900473ffffffffffffffffffffffffffffffffffffffff1673ffffffffffffffffffffffffffffffffffffffff161461031d576001600082815260200190815260200160002060000160009054906101000a900473ffffffffffffffffffffffffffffffffffffffff1673ffffffffffffffffffffffffffffffffffffffff166108fc60016000848152602001908152602001600020600101549081150290604051600060405180830381858888f1935050505015801561031b573d6000803e3d6000fd5b505b60405180606001604052803373ffffffffffffffffffffffffffffffffffffffff168152602001348152602001428152506001600083815260200190815260200160002060008201518160000160006101000a81548173ffffffffffffffffffffffffffffffffffffffff021916908373ffffffffffffffffffffffffffffffffffffffff16021790555060208201518160010155604082015181600201559050506000808281526020019081526020016000206001600083815260200190815260200160002090806001815401808255809150506001900390600052602060002090600302016000909190919091506000820160009054906101000a900473ffffffffffffffffffffffffffffffffffffffff168160000160006101000a81548173ffffffffffffffffffffffffffffffffffffffff021916908373ffffffffffffffffffffffffffffffffffffffff160217905550600182015481600101556002820154816002015550507f0e54eff26401bf69b81b26f60bd85ef47f5d85275c1d268d84f68d6897431c478133346040516104bd939291906106a3565b60405180910390a150565b6000813590506104d781610727565b92915050565b6000602082840312156104ef57600080fd5b60006104fd848285016104c8565b91505092915050565b6000806040838503121561051957600080fd5b6000610527858286016104c8565b9250506020610538858286016104c8565b9150509250929050565b61054b816106eb565b82525050565b600061055e602b836106da565b91507f426964206d75737420626520686967686572207468616e2063757272656e742060008301527f68696768657374206269640000000000000000000000000000000000000000006020830152604082019050919050565b60006105c46021836106da565b91507f42696420616d6f756e74206d7573742062652067726561746572207468616e2060008301527f30000000000000000000000000000000000000000000000000000000000000006020830152604082019050919050565b6106268161071d565b82525050565b60006060820190506106416000830186610542565b61064e602083018561061d565b61065b604083018461061d565b949350505050565b6000602082019050818103600083015261067c81610551565b9050919050565b6000602082019050818103600083015261069c816105b7565b9050919050565b60006060820190506106b8600083018661061d565b6106c56020830185610542565b6106d2604083018461061d565b949350505050565b600082825260208201905092915050565b60006106f6826106fd565b9050919050565b600073ffffffffffffffffffffffffffffffffffffffff82169050919050565b6000819050919050565b6107308161071d565b811461073b57600080fd5b5056fea2646970667358221220885cd2cb99d20a8f26968064737e4d0be6eb26aa9c9ca6fee822afc987f928b564736f6c63430008000033",
					"opcodes": "PUSH1 0x80 PUSH1 0x40 MSTORE CALLVALUE DUP1 ISZERO PUSH2 0x10 JUMPI PUSH1 0x0 DUP1 REVERT JUMPDEST POP PUSH2 0x774 DUP1 PUSH2 0x20 PUSH1 0x0 CODECOPY PUSH1 0x0 RETURN INVALID PUSH1 0x80 PUSH1 0x40 MSTORE PUSH1 0x4 CALLDATASIZE LT PUSH2 0x34 JUMPI PUSH1 0x0 CALLDATALOAD PUSH1 0xE0 SHR DUP1 PUSH4 0x111CB258 EQ PUSH2 0x39 JUMPI DUP1 PUSH4 0x5F93DE49 EQ PUSH2 0x78 JUMPI DUP1 PUSH4 0x9979EF45 EQ PUSH2 0xB7 JUMPI JUMPDEST PUSH1 0x0 DUP1 REVERT JUMPDEST CALLVALUE DUP1 ISZERO PUSH2 0x45 JUMPI PUSH1 0x0 DUP1 REVERT JUMPDEST POP PUSH2 0x60 PUSH1 0x4 DUP1 CALLDATASIZE SUB DUP2 ADD SWAP1 PUSH2 0x5B SWAP2 SWAP1 PUSH2 0x4DD JUMP JUMPDEST PUSH2 0xD3 JUMP JUMPDEST PUSH1 0x40 MLOAD PUSH2 0x6F SWAP4 SWAP3 SWAP2 SWAP1 PUSH2 0x62C JUMP JUMPDEST PUSH1 0x40 MLOAD DUP1 SWAP2 SUB SWAP1 RETURN JUMPDEST CALLVALUE DUP1 ISZERO PUSH2 0x84 JUMPI PUSH1 0x0 DUP1 REVERT JUMPDEST POP PUSH2 0x9F PUSH1 0x4 DUP1 CALLDATASIZE SUB DUP2 ADD SWAP1 PUSH2 0x9A SWAP2 SWAP1 PUSH2 0x506 JUMP JUMPDEST PUSH2 0x11D JUMP JUMPDEST PUSH1 0x40 MLOAD PUSH2 0xAE SWAP4 SWAP3 SWAP2 SWAP1 PUSH2 0x62C JUMP JUMPDEST PUSH1 0x40 MLOAD DUP1 SWAP2 SUB SWAP1 RETURN JUMPDEST PUSH2 0xD1 PUSH1 0x4 DUP1 CALLDATASIZE SUB DUP2 ADD SWAP1 PUSH2 0xCC SWAP2 SWAP1 PUSH2 0x4DD JUMP JUMPDEST PUSH2 0x184 JUMP JUMPDEST STOP JUMPDEST PUSH1 0x1 PUSH1 0x20 MSTORE DUP1 PUSH1 0x0 MSTORE PUSH1 0x40 PUSH1 0x0 KECCAK256 PUSH1 0x0 SWAP2 POP SWAP1 POP DUP1 PUSH1 0x0 ADD PUSH1 0x0 SWAP1 SLOAD SWAP1 PUSH2 0x100 EXP SWAP1 DIV PUSH20 0xFFFFFFFFFFFFFFFFFFFFFFFFFFFFFFFFFFFFFFFF AND SWAP1 DUP1 PUSH1 0x1 ADD SLOAD SWAP1 DUP1 PUSH1 0x2 ADD SLOAD SWAP1 POP DUP4 JUMP JUMPDEST PUSH1 0x0 PUSH1 0x20 MSTORE DUP2 PUSH1 0x0 MSTORE PUSH1 0x40 PUSH1 0x0 KECCAK256 DUP2 DUP2 SLOAD DUP2 LT PUSH2 0x139 JUMPI PUSH1 0x0 DUP1 REVERT JUMPDEST SWAP1 PUSH1 0x0 MSTORE PUSH1 0x20 PUSH1 0x0 KECCAK256 SWAP1 PUSH1 0x3 MUL ADD PUSH1 0x0 SWAP2 POP SWAP2 POP POP DUP1 PUSH1 0x0 ADD PUSH1 0x0 SWAP1 SLOAD SWAP1 PUSH2 0x100 EXP SWAP1 DIV PUSH20 0xFFFFFFFFFFFFFFFFFFFFFFFFFFFFFFFFFFFFFFFF AND SWAP1 DUP1 PUSH1 0x1 ADD SLOAD SWAP1 DUP1 PUSH1 0x2 ADD SLOAD SWAP1 POP DUP4 JUMP JUMPDEST PUSH1 0x0 CALLVALUE GT PUSH2 0x1C7 JUMPI PUSH1 0x40 MLOAD PUSH32 0x8C379A000000000000000000000000000000000000000000000000000000000 DUP2 MSTORE PUSH1 0x4 ADD PUSH2 0x1BE SWAP1 PUSH2 0x683 JUMP JUMPDEST PUSH1 0x40 MLOAD DUP1 SWAP2 SUB SWAP1 REVERT JUMPDEST PUSH1 0x1 PUSH1 0x0 DUP3 DUP2 MSTORE PUSH1 0x20 ADD SWAP1 DUP2 MSTORE PUSH1 0x20 ADD PUSH1 0x0 KECCAK256 PUSH1 0x1 ADD SLOAD CALLVALUE GT PUSH2 0x21F JUMPI PUSH1 0x40 MLOAD PUSH32 0x8C379A000000000000000000000000000000000000000000000000000000000 DUP2 MSTORE PUSH1 0x4 ADD PUSH2 0x216 SWAP1 PUSH2 0x663 JUMP JUMPDEST PUSH1 0x40 MLOAD DUP1 SWAP2 SUB SWAP1 REVERT JUMPDEST PUSH1 0x0 PUSH20 0xFFFFFFFFFFFFFFFFFFFFFFFFFFFFFFFFFFFFFFFF AND PUSH1 0x1 PUSH1 0x0 DUP4 DUP2 MSTORE PUSH1 0x20 ADD SWAP1 DUP2 MSTORE PUSH1 0x20 ADD PUSH1 0x0 KECCAK256 PUSH1 0x0 ADD PUSH1 0x0 SWAP1 SLOAD SWAP1 PUSH2 0x100 EXP SWAP1 DIV PUSH20 0xFFFFFFFFFFFFFFFFFFFFFFFFFFFFFFFFFFFFFFFF AND PUSH20 0xFFFFFFFFFFFFFFFFFFFFFFFFFFFFFFFFFFFFFFFF AND EQ PUSH2 0x31D JUMPI PUSH1 0x1 PUSH1 0x0 DUP3 DUP2 MSTORE PUSH1 0x20 ADD SWAP1 DUP2 MSTORE PUSH1 0x20 ADD PUSH1 0x0 KECCAK256 PUSH1 0x0 ADD PUSH1 0x0 SWAP1 SLOAD SWAP1 PUSH2 0x100 EXP SWAP1 DIV PUSH20 0xFFFFFFFFFFFFFFFFFFFFFFFFFFFFFFFFFFFFFFFF AND PUSH20 0xFFFFFFFFFFFFFFFFFFFFFFFFFFFFFFFFFFFFFFFF AND PUSH2 0x8FC PUSH1 0x1 PUSH1 0x0 DUP5 DUP2 MSTORE PUSH1 0x20 ADD SWAP1 DUP2 MSTORE PUSH1 0x20 ADD PUSH1 0x0 KECCAK256 PUSH1 0x1 ADD SLOAD SWAP1 DUP2 ISZERO MUL SWAP1 PUSH1 0x40 MLOAD PUSH1 0x0 PUSH1 0x40 MLOAD DUP1 DUP4 SUB DUP2 DUP6 DUP9 DUP9 CALL SWAP4 POP POP POP POP ISZERO DUP1 ISZERO PUSH2 0x31B JUMPI RETURNDATASIZE PUSH1 0x0 DUP1 RETURNDATACOPY RETURNDATASIZE PUSH1 0x0 REVERT JUMPDEST POP JUMPDEST PUSH1 0x40 MLOAD DUP1 PUSH1 0x60 ADD PUSH1 0x40 MSTORE DUP1 CALLER PUSH20 0xFFFFFFFFFFFFFFFFFFFFFFFFFFFFFFFFFFFFFFFF AND DUP2 MSTORE PUSH1 0x20 ADD CALLVALUE DUP2 MSTORE PUSH1 0x20 ADD TIMESTAMP DUP2 MSTORE POP PUSH1 0x1 PUSH1 0x0 DUP4 DUP2 MSTORE PUSH1 0x20 ADD SWAP1 DUP2 MSTORE PUSH1 0x20 ADD PUSH1 0x0 KECCAK256 PUSH1 0x0 DUP3 ADD MLOAD DUP2 PUSH1 0x0 ADD PUSH1 0x0 PUSH2 0x100 EXP DUP2 SLOAD DUP2 PUSH20 0xFFFFFFFFFFFFFFFFFFFFFFFFFFFFFFFFFFFFFFFF MUL NOT AND SWAP1 DUP4 PUSH20 0xFFFFFFFFFFFFFFFFFFFFFFFFFFFFFFFFFFFFFFFF AND MUL OR SWAP1 SSTORE POP PUSH1 0x20 DUP3 ADD MLOAD DUP2 PUSH1 0x1 ADD SSTORE PUSH1 0x40 DUP3 ADD MLOAD DUP2 PUSH1 0x2 ADD SSTORE SWAP1 POP POP PUSH1 0x0 DUP1 DUP3 DUP2 MSTORE PUSH1 0x20 ADD SWAP1 DUP2 MSTORE PUSH1 0x20 ADD PUSH1 0x0 KECCAK256 PUSH1 0x1 PUSH1 0x0 DUP4 DUP2 MSTORE PUSH1 0x20 ADD SWAP1 DUP2 MSTORE PUSH1 0x20 ADD PUSH1 0x0 KECCAK256 SWAP1 DUP1 PUSH1 0x1 DUP2 SLOAD ADD DUP1 DUP3 SSTORE DUP1 SWAP2 POP POP PUSH1 0x1 SWAP1 SUB SWAP1 PUSH1 0x0 MSTORE PUSH1 0x20 PUSH1 0x0 KECCAK256 SWAP1 PUSH1 0x3 MUL ADD PUSH1 0x0 SWAP1 SWAP2 SWAP1 SWAP2 SWAP1 SWAP2 POP PUSH1 0x0 DUP3 ADD PUSH1 0x0 SWAP1 SLOAD SWAP1 PUSH2 0x100 EXP SWAP1 DIV PUSH20 0xFFFFFFFFFFFFFFFFFFFFFFFFFFFFFFFFFFFFFFFF AND DUP2 PUSH1 0x0 ADD PUSH1 0x0 PUSH2 0x100 EXP DUP2 SLOAD DUP2 PUSH20 0xFFFFFFFFFFFFFFFFFFFFFFFFFFFFFFFFFFFFFFFF MUL NOT AND SWAP1 DUP4 PUSH20 0xFFFFFFFFFFFFFFFFFFFFFFFFFFFFFFFFFFFFFFFF AND MUL OR SWAP1 SSTORE POP PUSH1 0x1 DUP3 ADD SLOAD DUP2 PUSH1 0x1 ADD SSTORE PUSH1 0x2 DUP3 ADD SLOAD DUP2 PUSH1 0x2 ADD SSTORE POP POP PUSH32 0xE54EFF26401BF69B81B26F60BD85EF47F5D85275C1D268D84F68D6897431C47 DUP2 CALLER CALLVALUE PUSH1 0x40 MLOAD PUSH2 0x4BD SWAP4 SWAP3 SWAP2 SWAP1 PUSH2 0x6A3 JUMP JUMPDEST PUSH1 0x40 MLOAD DUP1 SWAP2 SUB SWAP1 LOG1 POP JUMP JUMPDEST PUSH1 0x0 DUP2 CALLDATALOAD SWAP1 POP PUSH2 0x4D7 DUP2 PUSH2 0x727 JUMP JUMPDEST SWAP3 SWAP2 POP POP JUMP JUMPDEST PUSH1 0x0 PUSH1 0x20 DUP3 DUP5 SUB SLT ISZERO PUSH2 0x4EF JUMPI PUSH1 0x0 DUP1 REVERT JUMPDEST PUSH1 0x0 PUSH2 0x4FD DUP5 DUP3 DUP6 ADD PUSH2 0x4C8 JUMP JUMPDEST SWAP2 POP POP SWAP3 SWAP2 POP POP JUMP JUMPDEST PUSH1 0x0 DUP1 PUSH1 0x40 DUP4 DUP6 SUB SLT ISZERO PUSH2 0x519 JUMPI PUSH1 0x0 DUP1 REVERT JUMPDEST PUSH1 0x0 PUSH2 0x527 DUP6 DUP3 DUP7 ADD PUSH2 0x4C8 JUMP JUMPDEST SWAP3 POP POP PUSH1 0x20 PUSH2 0x538 DUP6 DUP3 DUP7 ADD PUSH2 0x4C8 JUMP JUMPDEST SWAP2 POP POP SWAP3 POP SWAP3 SWAP1 POP JUMP JUMPDEST PUSH2 0x54B DUP2 PUSH2 0x6EB JUMP JUMPDEST DUP3 MSTORE POP POP JUMP JUMPDEST PUSH1 0x0 PUSH2 0x55E PUSH1 0x2B DUP4 PUSH2 0x6DA JUMP JUMPDEST SWAP2 POP PUSH32 0x426964206D75737420626520686967686572207468616E2063757272656E7420 PUSH1 0x0 DUP4 ADD MSTORE PUSH32 0x6869676865737420626964000000000000000000000000000000000000000000 PUSH1 0x20 DUP4 ADD MSTORE PUSH1 0x40 DUP3 ADD SWAP1 POP SWAP2 SWAP1 POP JUMP JUMPDEST PUSH1 0x0 PUSH2 0x5C4 PUSH1 0x21 DUP4 PUSH2 0x6DA JUMP JUMPDEST SWAP2 POP PUSH32 0x42696420616D6F756E74206D7573742062652067726561746572207468616E20 PUSH1 0x0 DUP4 ADD MSTORE PUSH32 0x3000000000000000000000000000000000000000000000000000000000000000 PUSH1 0x20 DUP4 ADD MSTORE PUSH1 0x40 DUP3 ADD SWAP1 POP SWAP2 SWAP1 POP JUMP JUMPDEST PUSH2 0x626 DUP2 PUSH2 0x71D JUMP JUMPDEST DUP3 MSTORE POP POP JUMP JUMPDEST PUSH1 0x0 PUSH1 0x60 DUP3 ADD SWAP1 POP PUSH2 0x641 PUSH1 0x0 DUP4 ADD DUP7 PUSH2 0x542 JUMP JUMPDEST PUSH2 0x64E PUSH1 0x20 DUP4 ADD DUP6 PUSH2 0x61D JUMP JUMPDEST PUSH2 0x65B PUSH1 0x40 DUP4 ADD DUP5 PUSH2 0x61D JUMP JUMPDEST SWAP5 SWAP4 POP POP POP POP JUMP JUMPDEST PUSH1 0x0 PUSH1 0x20 DUP3 ADD SWAP1 POP DUP2 DUP2 SUB PUSH1 0x0 DUP4 ADD MSTORE PUSH2 0x67C DUP2 PUSH2 0x551 JUMP JUMPDEST SWAP1 POP SWAP2 SWAP1 POP JUMP JUMPDEST PUSH1 0x0 PUSH1 0x20 DUP3 ADD SWAP1 POP DUP2 DUP2 SUB PUSH1 0x0 DUP4 ADD MSTORE PUSH2 0x69C DUP2 PUSH2 0x5B7 JUMP JUMPDEST SWAP1 POP SWAP2 SWAP1 POP JUMP JUMPDEST PUSH1 0x0 PUSH1 0x60 DUP3 ADD SWAP1 POP PUSH2 0x6B8 PUSH1 0x0 DUP4 ADD DUP7 PUSH2 0x61D JUMP JUMPDEST PUSH2 0x6C5 PUSH1 0x20 DUP4 ADD DUP6 PUSH2 0x542 JUMP JUMPDEST PUSH2 0x6D2 PUSH1 0x40 DUP4 ADD DUP5 PUSH2 0x61D JUMP JUMPDEST SWAP5 SWAP4 POP POP POP POP JUMP JUMPDEST PUSH1 0x0 DUP3 DUP3 MSTORE PUSH1 0x20 DUP3 ADD SWAP1 POP SWAP3 SWAP2 POP POP JUMP JUMPDEST PUSH1 0x0 PUSH2 0x6F6 DUP3 PUSH2 0x6FD JUMP JUMPDEST SWAP1 POP SWAP2 SWAP1 POP JUMP JUMPDEST PUSH1 0x0 PUSH20 0xFFFFFFFFFFFFFFFFFFFFFFFFFFFFFFFFFFFFFFFF DUP3 AND SWAP1 POP SWAP2 SWAP1 POP JUMP JUMPDEST PUSH1 0x0 DUP2 SWAP1 POP SWAP2 SWAP1 POP JUMP JUMPDEST PUSH2 0x730 DUP2 PUSH2 0x71D JUMP JUMPDEST DUP2 EQ PUSH2 0x73B JUMPI PUSH1 0x0 DUP1 REVERT JUMPDEST POP JUMP INVALID LOG2 PUSH5 0x6970667358 0x22 SLT KECCAK256 DUP9 0x5C 0xD2 0xCB SWAP10 0xD2 EXP DUP16 0x26 SWAP7 DUP1 PUSH5 0x737E4D0BE6 0xEB 0x26 0xAA SWAP13 SWAP13 0xA6 INVALID 0xE8 0x22 0xAF 0xC9 DUP8 0xF9 0x28 0xB5 PUSH5 0x736F6C6343 STOP ADDMOD STOP STOP CALLER "
				},
				"gasEstimates": {
					"creation": {
						"codeDepositCost": "381600",
						"executionCost": "418",
						"totalCost": "382018"
					},
					"external": {
						"auctionBids(uint256,uint256)": "infinite",
						"highestBids(uint256)": "infinite",
						"placeBid(uint256)": "infinite"
					}
				},
				"methodIdentifiers": {
					"auctionBids(uint256,uint256)": "5f93de49",
					"highestBids(uint256)": "111cb258",
					"placeBid(uint256)": "9979ef45"
				}
			},
			"storageLayout": {
				"storage": [
					{
						"astId": 14,
						"contract": "contracts/BiddingContract.sol:BiddingContract",
						"label": "auctionBids",
						"offset": 0,
						"slot": "0",
						"type": "t_mapping(t_uint256,t_array(t_struct(Bid)8_storage)dyn_storage)"
					},
					{
						"astId": 19,
						"contract": "contracts/BiddingContract.sol:BiddingContract",
						"label": "highestBids",
						"offset": 0,
						"slot": "1",
						"type": "t_mapping(t_uint256,t_struct(Bid)8_storage)"
					}
				],
				"types": {
					"t_address": {
						"encoding": "inplace",
						"label": "address",
						"numberOfBytes": "20"
					},
					"t_array(t_struct(Bid)8_storage)dyn_storage": {
						"base": "t_struct(Bid)8_storage",
						"encoding": "dynamic_array",
						"label": "struct BiddingContract.Bid[]",
						"numberOfBytes": "32"
					},
					"t_mapping(t_uint256,t_array(t_struct(Bid)8_storage)dyn_storage)": {
						"encoding": "mapping",
						"key": "t_uint256",
						"label": "mapping(uint256 => struct BiddingContract.Bid[])",
						"numberOfBytes": "32",
						"value": "t_array(t_struct(Bid)8_storage)dyn_storage"
					},
					"t_mapping(t_uint256,t_struct(Bid)8_storage)": {
						"encoding": "mapping",
						"key": "t_uint256",
						"label": "mapping(uint256 => struct BiddingContract.Bid)",
						"numberOfBytes": "32",
						"value": "t_struct(Bid)8_storage"
					},
					"t_struct(Bid)8_storage": {
						"encoding": "inplace",
						"label": "struct BiddingContract.Bid",
						"members": [
							{
								"astId": 3,
								"contract": "contracts/BiddingContract.sol:BiddingContract",
								"label": "bidder",
								"offset": 0,
								"slot": "0",
								"type": "t_address"
							},
							{
								"astId": 5,
								"contract": "contracts/BiddingContract.sol:BiddingContract",
								"label": "amount",
								"offset": 0,
								"slot": "1",
								"type": "t_uint256"
							},
							{
								"astId": 7,
								"contract": "contracts/BiddingContract.sol:BiddingContract",
								"label": "timestamp",
								"offset": 0,
								"slot": "2",
								"type": "t_uint256"
							}
						],
						"numberOfBytes": "96"
					},
					"t_uint256": {
						"encoding": "inplace",
						"label": "uint256",
						"numberOfBytes": "32"
					}
				}
			},
			"userdoc": {
				"kind": "user",
				"methods": {},
				"version": 1
			}
		}
	}
}