{
	"contracts/AuctionManager.sol": {
		"AuctionManager": {
			"abi": [
				{
					"inputs": [],
					"stateMutability": "nonpayable",
					"type": "constructor"
				},
				{
					"anonymous": false,
					"inputs": [
						{
							"indexed": false,
							"internalType": "uint256",
							"name": "auctionId",
							"type": "uint256"
						},
						{
							"indexed": false,
							"internalType": "address",
							"name": "seller",
							"type": "address"
						},
						{
							"indexed": false,
							"internalType": "string",
							"name": "itemDescription",
							"type": "string"
						}
					],
					"name": "AuctionCreated",
					"type": "event"
				},
				{
					"anonymous": false,
					"inputs": [
						{
							"indexed": false,
							"internalType": "uint256",
							"name": "auctionId",
							"type": "uint256"
						}
					],
					"name": "AuctionEnded",
					"type": "event"
				},
				{
					"inputs": [],
					"name": "auctionCount",
					"outputs": [
						{
							"internalType": "uint256",
							"name": "",
							"type": "uint256"
						}
					],
					"stateMutability": "view",
					"type": "function"
				},
				{
					"inputs": [
						{
							"internalType": "uint256",
							"name": "",
							"type": "uint256"
						}
					],
					"name": "auctions",
					"outputs": [
						{
							"internalType": "uint256",
							"name": "id",
							"type": "uint256"
						},
						{
							"internalType": "address",
							"name": "seller",
							"type": "address"
						},
						{
							"internalType": "string",
							"name": "itemDescription",
							"type": "string"
						},
						{
							"internalType": "uint256",
							"name": "startingPrice",
							"type": "uint256"
						},
						{
							"internalType": "uint256",
							"name": "endTime",
							"type": "uint256"
						},
						{
							"internalType": "bool",
							"name": "isActive",
							"type": "bool"
						}
					],
					"stateMutability": "view",
					"type": "function"
				},
				{
					"inputs": [
						{
							"internalType": "string",
							"name": "_itemDescription",
							"type": "string"
						},
						{
							"internalType": "uint256",
							"name": "_startingPrice",
							"type": "uint256"
						},
						{
							"internalType": "uint256",
							"name": "_duration",
							"type": "uint256"
						}
					],
					"name": "createAuction",
					"outputs": [],
					"stateMutability": "nonpayable",
					"type": "function"
				},
				{
					"inputs": [
						{
							"internalType": "uint256",
							"name": "_auctionId",
							"type": "uint256"
						}
					],
					"name": "endAuction",
					"outputs": [],
					"stateMutability": "nonpayable",
					"type": "function"
				},
				{
					"inputs": [],
					"name": "owner",
					"outputs": [
						{
							"internalType": "address",
							"name": "",
							"type": "address"
						}
					],
					"stateMutability": "view",
					"type": "function"
				}
			],
			"devdoc": {
				"kind": "dev",
				"methods": {},
				"version": 1
			},
			"evm": {
				"assembly": "    /* \"contracts/AuctionManager.sol\":93:1687  contract AuctionManager {... */\n  mstore(0x40, 0x80)\n    /* \"contracts/AuctionManager.sol\":556:631  constructor() {... */\n  callvalue\n  dup1\n  iszero\n  tag_1\n  jumpi\n  0x00\n  dup1\n  revert\ntag_1:\n  pop\n    /* \"contracts/AuctionManager.sol\":588:598  msg.sender */\n  caller\n    /* \"contracts/AuctionManager.sol\":580:585  owner */\n  0x00\n  dup1\n    /* \"contracts/AuctionManager.sol\":580:598  owner = msg.sender */\n  0x0100\n  exp\n  dup2\n  sload\n  dup2\n  0xffffffffffffffffffffffffffffffffffffffff\n  mul\n  not\n  and\n  swap1\n  dup4\n  0xffffffffffffffffffffffffffffffffffffffff\n  and\n  mul\n  or\n  swap1\n  sstore\n  pop\n    /* \"contracts/AuctionManager.sol\":623:624  0 */\n  0x00\n    /* \"contracts/AuctionManager.sol\":608:620  auctionCount */\n  0x02\n    /* \"contracts/AuctionManager.sol\":608:624  auctionCount = 0 */\n  dup2\n  swap1\n  sstore\n  pop\n    /* \"contracts/AuctionManager.sol\":93:1687  contract AuctionManager {... */\n  dataSize(sub_0)\n  dup1\n  dataOffset(sub_0)\n  0x00\n  codecopy\n  0x00\n  return\nstop\n\nsub_0: assembly {\n        /* \"contracts/AuctionManager.sol\":93:1687  contract AuctionManager {... */\n      mstore(0x40, 0x80)\n      callvalue\n      dup1\n      iszero\n      tag_1\n      jumpi\n      0x00\n      dup1\n      revert\n    tag_1:\n      pop\n      jumpi(tag_2, lt(calldatasize, 0x04))\n      shr(0xe0, calldataload(0x00))\n      dup1\n      0x2ad71573\n      eq\n      tag_3\n      jumpi\n      dup1\n      0x2dbddb41\n      eq\n      tag_4\n      jumpi\n      dup1\n      0x571a26a0\n      eq\n      tag_5\n      jumpi\n      dup1\n      0x8da5cb5b\n      eq\n      tag_6\n      jumpi\n      dup1\n      0xb9a2de3a\n      eq\n      tag_7\n      jumpi\n    tag_2:\n      0x00\n      dup1\n      revert\n        /* \"contracts/AuctionManager.sol\":198:225  uint256 public auctionCount */\n    tag_3:\n      tag_8\n      tag_9\n      jump\t// in\n    tag_8:\n      mload(0x40)\n      tag_10\n      swap2\n      swap1\n      tag_11\n      jump\t// in\n    tag_10:\n      mload(0x40)\n      dup1\n      swap2\n      sub\n      swap1\n      return\n        /* \"contracts/AuctionManager.sol\":641:1352  function createAuction(... */\n    tag_4:\n      tag_12\n      0x04\n      dup1\n      calldatasize\n      sub\n      dup2\n      add\n      swap1\n      tag_13\n      swap2\n      swap1\n      tag_14\n      jump\t// in\n    tag_13:\n      tag_15\n      jump\t// in\n    tag_12:\n      stop\n        /* \"contracts/AuctionManager.sol\":149:192  mapping(uint256 => Auction) public auctions */\n    tag_5:\n      tag_16\n      0x04\n      dup1\n      calldatasize\n      sub\n      dup2\n      add\n      swap1\n      tag_17\n      swap2\n      swap1\n      tag_18\n      jump\t// in\n    tag_17:\n      tag_19\n      jump\t// in\n    tag_16:\n      mload(0x40)\n      tag_20\n      swap7\n      swap6\n      swap5\n      swap4\n      swap3\n      swap2\n      swap1\n      tag_21\n      jump\t// in\n    tag_20:\n      mload(0x40)\n      dup1\n      swap2\n      sub\n      swap1\n      return\n        /* \"contracts/AuctionManager.sol\":123:143  address public owner */\n    tag_6:\n      tag_22\n      tag_23\n      jump\t// in\n    tag_22:\n      mload(0x40)\n      tag_24\n      swap2\n      swap1\n      tag_25\n      jump\t// in\n    tag_24:\n      mload(0x40)\n      dup1\n      swap2\n      sub\n      swap1\n      return\n        /* \"contracts/AuctionManager.sol\":1362:1685  function endAuction(uint256 _auctionId) external {... */\n    tag_7:\n      tag_26\n      0x04\n      dup1\n      calldatasize\n      sub\n      dup2\n      add\n      swap1\n      tag_27\n      swap2\n      swap1\n      tag_18\n      jump\t// in\n    tag_27:\n      tag_28\n      jump\t// in\n    tag_26:\n      stop\n        /* \"contracts/AuctionManager.sol\":198:225  uint256 public auctionCount */\n    tag_9:\n      sload(0x02)\n      dup2\n      jump\t// out\n        /* \"contracts/AuctionManager.sol\":641:1352  function createAuction(... */\n    tag_15:\n        /* \"contracts/AuctionManager.sol\":813:814  0 */\n      0x00\n        /* \"contracts/AuctionManager.sol\":796:810  _startingPrice */\n      dup3\n        /* \"contracts/AuctionManager.sol\":796:814  _startingPrice > 0 */\n      gt\n        /* \"contracts/AuctionManager.sol\":788:856  require(_startingPrice > 0, \"Starting price must be greater than 0\") */\n      tag_30\n      jumpi\n      mload(0x40)\n      0x08c379a000000000000000000000000000000000000000000000000000000000\n      dup2\n      mstore\n      0x04\n      add\n      tag_31\n      swap1\n      tag_32\n      jump\t// in\n    tag_31:\n      mload(0x40)\n      dup1\n      swap2\n      sub\n      swap1\n      revert\n    tag_30:\n        /* \"contracts/AuctionManager.sol\":886:887  0 */\n      0x00\n        /* \"contracts/AuctionManager.sol\":874:883  _duration */\n      dup2\n        /* \"contracts/AuctionManager.sol\":874:887  _duration > 0 */\n      gt\n        /* \"contracts/AuctionManager.sol\":866:923  require(_duration > 0, \"Duration must be greater than 0\") */\n      tag_33\n      jumpi\n      mload(0x40)\n      0x08c379a000000000000000000000000000000000000000000000000000000000\n      dup2\n      mstore\n      0x04\n      add\n      tag_34\n      swap1\n      tag_35\n      jump\t// in\n    tag_34:\n      mload(0x40)\n      dup1\n      swap2\n      sub\n      swap1\n      revert\n    tag_33:\n        /* \"contracts/AuctionManager.sol\":942:962  uint256 newAuctionId */\n      0x00\n        /* \"contracts/AuctionManager.sol\":965:977  auctionCount */\n      0x02\n      0x00\n        /* \"contracts/AuctionManager.sol\":965:979  auctionCount++ */\n      dup2\n      sload\n      dup1\n      swap3\n      swap2\n      swap1\n      tag_36\n      swap1\n      tag_37\n      jump\t// in\n    tag_36:\n      swap2\n      swap1\n      pop\n      sstore\n        /* \"contracts/AuctionManager.sol\":942:979  uint256 newAuctionId = auctionCount++ */\n      swap1\n      pop\n        /* \"contracts/AuctionManager.sol\":1014:1263  Auction({... */\n      mload(0x40)\n      dup1\n      0xc0\n      add\n      0x40\n      mstore\n      dup1\n        /* \"contracts/AuctionManager.sol\":1040:1052  newAuctionId */\n      dup3\n        /* \"contracts/AuctionManager.sol\":1014:1263  Auction({... */\n      dup2\n      mstore\n      0x20\n      add\n        /* \"contracts/AuctionManager.sol\":1074:1084  msg.sender */\n      caller\n        /* \"contracts/AuctionManager.sol\":1014:1263  Auction({... */\n      0xffffffffffffffffffffffffffffffffffffffff\n      and\n      dup2\n      mstore\n      0x20\n      add\n        /* \"contracts/AuctionManager.sol\":1115:1131  _itemDescription */\n      dup6\n        /* \"contracts/AuctionManager.sol\":1014:1263  Auction({... */\n      dup2\n      mstore\n      0x20\n      add\n        /* \"contracts/AuctionManager.sol\":1160:1174  _startingPrice */\n      dup5\n        /* \"contracts/AuctionManager.sol\":1014:1263  Auction({... */\n      dup2\n      mstore\n      0x20\n      add\n        /* \"contracts/AuctionManager.sol\":1215:1224  _duration */\n      dup4\n        /* \"contracts/AuctionManager.sol\":1197:1212  block.timestamp */\n      timestamp\n        /* \"contracts/AuctionManager.sol\":1197:1224  block.timestamp + _duration */\n      tag_38\n      swap2\n      swap1\n      tag_39\n      jump\t// in\n    tag_38:\n        /* \"contracts/AuctionManager.sol\":1014:1263  Auction({... */\n      dup2\n      mstore\n      0x20\n      add\n        /* \"contracts/AuctionManager.sol\":1248:1252  true */\n      0x01\n        /* \"contracts/AuctionManager.sol\":1014:1263  Auction({... */\n      iszero\n      iszero\n      dup2\n      mstore\n      pop\n        /* \"contracts/AuctionManager.sol\":989:997  auctions */\n      0x01\n        /* \"contracts/AuctionManager.sol\":989:1011  auctions[newAuctionId] */\n      0x00\n        /* \"contracts/AuctionManager.sol\":998:1010  newAuctionId */\n      dup4\n        /* \"contracts/AuctionManager.sol\":989:1011  auctions[newAuctionId] */\n      dup2\n      mstore\n      0x20\n      add\n      swap1\n      dup2\n      mstore\n      0x20\n      add\n      0x00\n      keccak256\n        /* \"contracts/AuctionManager.sol\":989:1263  auctions[newAuctionId] = Auction({... */\n      0x00\n      dup3\n      add\n      mload\n      dup2\n      0x00\n      add\n      sstore\n      0x20\n      dup3\n      add\n      mload\n      dup2\n      0x01\n      add\n      exp(0x0100, 0x00)\n      dup2\n      sload\n      dup2\n      0xffffffffffffffffffffffffffffffffffffffff\n      mul\n      not\n      and\n      swap1\n      dup4\n      0xffffffffffffffffffffffffffffffffffffffff\n      and\n      mul\n      or\n      swap1\n      sstore\n      pop\n      0x40\n      dup3\n      add\n      mload\n      dup2\n      0x02\n      add\n      swap1\n      dup1\n      mload\n      swap1\n      0x20\n      add\n      swap1\n      tag_40\n      swap3\n      swap2\n      swap1\n      tag_41\n      jump\t// in\n    tag_40:\n      pop\n      0x60\n      dup3\n      add\n      mload\n      dup2\n      0x03\n      add\n      sstore\n      0x80\n      dup3\n      add\n      mload\n      dup2\n      0x04\n      add\n      sstore\n      0xa0\n      dup3\n      add\n      mload\n      dup2\n      0x05\n      add\n      exp(0x0100, 0x00)\n      dup2\n      sload\n      dup2\n      0xff\n      mul\n      not\n      and\n      swap1\n      dup4\n      iszero\n      iszero\n      mul\n      or\n      swap1\n      sstore\n      pop\n      swap1\n      pop\n      pop\n        /* \"contracts/AuctionManager.sol\":1287:1345  AuctionCreated(newAuctionId, msg.sender, _itemDescription) */\n      0xb928fabb4287b33fb3d59644b08cfd2e726532740f8ba9d42f17ece23fbff37f\n        /* \"contracts/AuctionManager.sol\":1302:1314  newAuctionId */\n      dup2\n        /* \"contracts/AuctionManager.sol\":1316:1326  msg.sender */\n      caller\n        /* \"contracts/AuctionManager.sol\":1328:1344  _itemDescription */\n      dup7\n        /* \"contracts/AuctionManager.sol\":1287:1345  AuctionCreated(newAuctionId, msg.sender, _itemDescription) */\n      mload(0x40)\n      tag_42\n      swap4\n      swap3\n      swap2\n      swap1\n      tag_43\n      jump\t// in\n    tag_42:\n      mload(0x40)\n      dup1\n      swap2\n      sub\n      swap1\n      log1\n        /* \"contracts/AuctionManager.sol\":641:1352  function createAuction(... */\n      pop\n      pop\n      pop\n      pop\n      jump\t// out\n        /* \"contracts/AuctionManager.sol\":149:192  mapping(uint256 => Auction) public auctions */\n    tag_19:\n      mstore(0x20, 0x01)\n      dup1\n      0x00\n      mstore\n      keccak256(0x00, 0x40)\n      0x00\n      swap2\n      pop\n      swap1\n      pop\n      dup1\n      0x00\n      add\n      sload\n      swap1\n      dup1\n      0x01\n      add\n      0x00\n      swap1\n      sload\n      swap1\n      0x0100\n      exp\n      swap1\n      div\n      0xffffffffffffffffffffffffffffffffffffffff\n      and\n      swap1\n      dup1\n      0x02\n      add\n      dup1\n      sload\n      tag_44\n      swap1\n      tag_45\n      jump\t// in\n    tag_44:\n      dup1\n      0x1f\n      add\n      0x20\n      dup1\n      swap2\n      div\n      mul\n      0x20\n      add\n      mload(0x40)\n      swap1\n      dup2\n      add\n      0x40\n      mstore\n      dup1\n      swap3\n      swap2\n      swap1\n      dup2\n      dup2\n      mstore\n      0x20\n      add\n      dup3\n      dup1\n      sload\n      tag_46\n      swap1\n      tag_45\n      jump\t// in\n    tag_46:\n      dup1\n      iszero\n      tag_47\n      jumpi\n      dup1\n      0x1f\n      lt\n      tag_48\n      jumpi\n      0x0100\n      dup1\n      dup4\n      sload\n      div\n      mul\n      dup4\n      mstore\n      swap2\n      0x20\n      add\n      swap2\n      jump(tag_47)\n    tag_48:\n      dup3\n      add\n      swap2\n      swap1\n      0x00\n      mstore\n      keccak256(0x00, 0x20)\n      swap1\n    tag_49:\n      dup2\n      sload\n      dup2\n      mstore\n      swap1\n      0x01\n      add\n      swap1\n      0x20\n      add\n      dup1\n      dup4\n      gt\n      tag_49\n      jumpi\n      dup3\n      swap1\n      sub\n      0x1f\n      and\n      dup3\n      add\n      swap2\n    tag_47:\n      pop\n      pop\n      pop\n      pop\n      pop\n      swap1\n      dup1\n      0x03\n      add\n      sload\n      swap1\n      dup1\n      0x04\n      add\n      sload\n      swap1\n      dup1\n      0x05\n      add\n      0x00\n      swap1\n      sload\n      swap1\n      0x0100\n      exp\n      swap1\n      div\n      0xff\n      and\n      swap1\n      pop\n      dup7\n      jump\t// out\n        /* \"contracts/AuctionManager.sol\":123:143  address public owner */\n    tag_23:\n      0x00\n      dup1\n      sload\n      swap1\n      0x0100\n      exp\n      swap1\n      div\n      0xffffffffffffffffffffffffffffffffffffffff\n      and\n      dup2\n      jump\t// out\n        /* \"contracts/AuctionManager.sol\":1362:1685  function endAuction(uint256 _auctionId) external {... */\n    tag_28:\n        /* \"contracts/AuctionManager.sol\":1443:1448  owner */\n      0x00\n      dup1\n      sload\n      swap1\n      0x0100\n      exp\n      swap1\n      div\n      0xffffffffffffffffffffffffffffffffffffffff\n      and\n        /* \"contracts/AuctionManager.sol\":1429:1448  msg.sender == owner */\n      0xffffffffffffffffffffffffffffffffffffffff\n      and\n        /* \"contracts/AuctionManager.sol\":1429:1439  msg.sender */\n      caller\n        /* \"contracts/AuctionManager.sol\":1429:1448  msg.sender == owner */\n      0xffffffffffffffffffffffffffffffffffffffff\n      and\n      eq\n        /* \"contracts/AuctionManager.sol\":1429:1493  msg.sender == owner || msg.sender == auctions[_auctionId].seller */\n      dup1\n      tag_51\n      jumpi\n      pop\n        /* \"contracts/AuctionManager.sol\":1466:1474  auctions */\n      0x01\n        /* \"contracts/AuctionManager.sol\":1466:1486  auctions[_auctionId] */\n      0x00\n        /* \"contracts/AuctionManager.sol\":1475:1485  _auctionId */\n      dup3\n        /* \"contracts/AuctionManager.sol\":1466:1486  auctions[_auctionId] */\n      dup2\n      mstore\n      0x20\n      add\n      swap1\n      dup2\n      mstore\n      0x20\n      add\n      0x00\n      keccak256\n        /* \"contracts/AuctionManager.sol\":1466:1493  auctions[_auctionId].seller */\n      0x01\n      add\n      0x00\n      swap1\n      sload\n      swap1\n      0x0100\n      exp\n      swap1\n      div\n      0xffffffffffffffffffffffffffffffffffffffff\n      and\n        /* \"contracts/AuctionManager.sol\":1452:1493  msg.sender == auctions[_auctionId].seller */\n      0xffffffffffffffffffffffffffffffffffffffff\n      and\n        /* \"contracts/AuctionManager.sol\":1452:1462  msg.sender */\n      caller\n        /* \"contracts/AuctionManager.sol\":1452:1493  msg.sender == auctions[_auctionId].seller */\n      0xffffffffffffffffffffffffffffffffffffffff\n      and\n      eq\n        /* \"contracts/AuctionManager.sol\":1429:1493  msg.sender == owner || msg.sender == auctions[_auctionId].seller */\n    tag_51:\n        /* \"contracts/AuctionManager.sol\":1421:1510  require(msg.sender == owner || msg.sender == auctions[_auctionId].seller, \"Unauthorized\") */\n      tag_52\n      jumpi\n      mload(0x40)\n      0x08c379a000000000000000000000000000000000000000000000000000000000\n      dup2\n      mstore\n      0x04\n      add\n      tag_53\n      swap1\n      tag_54\n      jump\t// in\n    tag_53:\n      mload(0x40)\n      dup1\n      swap2\n      sub\n      swap1\n      revert\n    tag_52:\n        /* \"contracts/AuctionManager.sol\":1528:1536  auctions */\n      0x01\n        /* \"contracts/AuctionManager.sol\":1528:1548  auctions[_auctionId] */\n      0x00\n        /* \"contracts/AuctionManager.sol\":1537:1547  _auctionId */\n      dup3\n        /* \"contracts/AuctionManager.sol\":1528:1548  auctions[_auctionId] */\n      dup2\n      mstore\n      0x20\n      add\n      swap1\n      dup2\n      mstore\n      0x20\n      add\n      0x00\n      keccak256\n        /* \"contracts/AuctionManager.sol\":1528:1557  auctions[_auctionId].isActive */\n      0x05\n      add\n      0x00\n      swap1\n      sload\n      swap1\n      0x0100\n      exp\n      swap1\n      div\n      0xff\n      and\n        /* \"contracts/AuctionManager.sol\":1520:1583  require(auctions[_auctionId].isActive, \"Auction already ended\") */\n      tag_55\n      jumpi\n      mload(0x40)\n      0x08c379a000000000000000000000000000000000000000000000000000000000\n      dup2\n      mstore\n      0x04\n      add\n      tag_56\n      swap1\n      tag_57\n      jump\t// in\n    tag_56:\n      mload(0x40)\n      dup1\n      swap2\n      sub\n      swap1\n      revert\n    tag_55:\n        /* \"contracts/AuctionManager.sol\":1634:1639  false */\n      0x00\n        /* \"contracts/AuctionManager.sol\":1602:1610  auctions */\n      0x01\n        /* \"contracts/AuctionManager.sol\":1602:1622  auctions[_auctionId] */\n      0x00\n        /* \"contracts/AuctionManager.sol\":1611:1621  _auctionId */\n      dup4\n        /* \"contracts/AuctionManager.sol\":1602:1622  auctions[_auctionId] */\n      dup2\n      mstore\n      0x20\n      add\n      swap1\n      dup2\n      mstore\n      0x20\n      add\n      0x00\n      keccak256\n        /* \"contracts/AuctionManager.sol\":1602:1631  auctions[_auctionId].isActive */\n      0x05\n      add\n      0x00\n        /* \"contracts/AuctionManager.sol\":1602:1639  auctions[_auctionId].isActive = false */\n      0x0100\n      exp\n      dup2\n      sload\n      dup2\n      0xff\n      mul\n      not\n      and\n      swap1\n      dup4\n      iszero\n      iszero\n      mul\n      or\n      swap1\n      sstore\n      pop\n        /* \"contracts/AuctionManager.sol\":1654:1678  AuctionEnded(_auctionId) */\n      0x45806e512b1f4f10e33e8b3cb64d1d11d998d8c554a95e0841fc1c701278bd5d\n        /* \"contracts/AuctionManager.sol\":1667:1677  _auctionId */\n      dup2\n        /* \"contracts/AuctionManager.sol\":1654:1678  AuctionEnded(_auctionId) */\n      mload(0x40)\n      tag_58\n      swap2\n      swap1\n      tag_11\n      jump\t// in\n    tag_58:\n      mload(0x40)\n      dup1\n      swap2\n      sub\n      swap1\n      log1\n        /* \"contracts/AuctionManager.sol\":1362:1685  function endAuction(uint256 _auctionId) external {... */\n      pop\n      jump\t// out\n    tag_41:\n      dup3\n      dup1\n      sload\n      tag_59\n      swap1\n      tag_45\n      jump\t// in\n    tag_59:\n      swap1\n      0x00\n      mstore\n      keccak256(0x00, 0x20)\n      swap1\n      0x1f\n      add\n      0x20\n      swap1\n      div\n      dup2\n      add\n      swap3\n      dup3\n      tag_61\n      jumpi\n      0x00\n      dup6\n      sstore\n      jump(tag_60)\n    tag_61:\n      dup3\n      0x1f\n      lt\n      tag_62\n      jumpi\n      dup1\n      mload\n      not(0xff)\n      and\n      dup4\n      dup1\n      add\n      or\n      dup6\n      sstore\n      jump(tag_60)\n    tag_62:\n      dup3\n      dup1\n      add\n      0x01\n      add\n      dup6\n      sstore\n      dup3\n      iszero\n      tag_60\n      jumpi\n      swap2\n      dup3\n      add\n    tag_63:\n      dup3\n      dup2\n      gt\n      iszero\n      tag_64\n      jumpi\n      dup3\n      mload\n      dup3\n      sstore\n      swap2\n      0x20\n      add\n      swap2\n      swap1\n      0x01\n      add\n      swap1\n      jump(tag_63)\n    tag_64:\n    tag_60:\n      pop\n      swap1\n      pop\n      tag_65\n      swap2\n      swap1\n      tag_66\n      jump\t// in\n    tag_65:\n      pop\n      swap1\n      jump\t// out\n    tag_66:\n    tag_67:\n      dup1\n      dup3\n      gt\n      iszero\n      tag_68\n      jumpi\n      0x00\n      dup2\n      0x00\n      swap1\n      sstore\n      pop\n      0x01\n      add\n      jump(tag_67)\n    tag_68:\n      pop\n      swap1\n      jump\t// out\n        /* \"#utility.yul\":7:351   */\n    tag_70:\n      0x00\n        /* \"#utility.yul\":110:175   */\n      tag_72\n        /* \"#utility.yul\":125:174   */\n      tag_73\n        /* \"#utility.yul\":167:173   */\n      dup5\n        /* \"#utility.yul\":125:174   */\n      tag_74\n      jump\t// in\n    tag_73:\n        /* \"#utility.yul\":110:175   */\n      tag_75\n      jump\t// in\n    tag_72:\n        /* \"#utility.yul\":101:175   */\n      swap1\n      pop\n        /* \"#utility.yul\":198:204   */\n      dup3\n        /* \"#utility.yul\":191:196   */\n      dup2\n        /* \"#utility.yul\":184:205   */\n      mstore\n        /* \"#utility.yul\":236:240   */\n      0x20\n        /* \"#utility.yul\":229:234   */\n      dup2\n        /* \"#utility.yul\":225:241   */\n      add\n        /* \"#utility.yul\":274:277   */\n      dup5\n        /* \"#utility.yul\":265:271   */\n      dup5\n        /* \"#utility.yul\":260:263   */\n      dup5\n        /* \"#utility.yul\":256:272   */\n      add\n        /* \"#utility.yul\":253:278   */\n      gt\n        /* \"#utility.yul\":250:252   */\n      iszero\n      tag_76\n      jumpi\n        /* \"#utility.yul\":291:292   */\n      0x00\n        /* \"#utility.yul\":288:289   */\n      dup1\n        /* \"#utility.yul\":281:293   */\n      revert\n        /* \"#utility.yul\":250:252   */\n    tag_76:\n        /* \"#utility.yul\":304:345   */\n      tag_77\n        /* \"#utility.yul\":338:344   */\n      dup5\n        /* \"#utility.yul\":333:336   */\n      dup3\n        /* \"#utility.yul\":328:331   */\n      dup6\n        /* \"#utility.yul\":304:345   */\n      tag_78\n      jump\t// in\n    tag_77:\n        /* \"#utility.yul\":91:351   */\n      pop\n      swap4\n      swap3\n      pop\n      pop\n      pop\n      jump\t// out\n        /* \"#utility.yul\":371:644   */\n    tag_79:\n      0x00\n        /* \"#utility.yul\":476:479   */\n      dup3\n        /* \"#utility.yul\":469:473   */\n      0x1f\n        /* \"#utility.yul\":461:467   */\n      dup4\n        /* \"#utility.yul\":457:474   */\n      add\n        /* \"#utility.yul\":453:480   */\n      slt\n        /* \"#utility.yul\":443:445   */\n      tag_81\n      jumpi\n        /* \"#utility.yul\":494:495   */\n      0x00\n        /* \"#utility.yul\":491:492   */\n      dup1\n        /* \"#utility.yul\":484:496   */\n      revert\n        /* \"#utility.yul\":443:445   */\n    tag_81:\n        /* \"#utility.yul\":534:540   */\n      dup2\n        /* \"#utility.yul\":521:541   */\n      calldataload\n        /* \"#utility.yul\":559:638   */\n      tag_82\n        /* \"#utility.yul\":634:637   */\n      dup5\n        /* \"#utility.yul\":626:632   */\n      dup3\n        /* \"#utility.yul\":619:623   */\n      0x20\n        /* \"#utility.yul\":611:617   */\n      dup7\n        /* \"#utility.yul\":607:624   */\n      add\n        /* \"#utility.yul\":559:638   */\n      tag_70\n      jump\t// in\n    tag_82:\n        /* \"#utility.yul\":550:638   */\n      swap2\n      pop\n        /* \"#utility.yul\":433:644   */\n      pop\n      swap3\n      swap2\n      pop\n      pop\n      jump\t// out\n        /* \"#utility.yul\":650:789   */\n    tag_83:\n      0x00\n        /* \"#utility.yul\":734:740   */\n      dup2\n        /* \"#utility.yul\":721:741   */\n      calldataload\n        /* \"#utility.yul\":712:741   */\n      swap1\n      pop\n        /* \"#utility.yul\":750:783   */\n      tag_85\n        /* \"#utility.yul\":777:782   */\n      dup2\n        /* \"#utility.yul\":750:783   */\n      tag_86\n      jump\t// in\n    tag_85:\n        /* \"#utility.yul\":702:789   */\n      swap3\n      swap2\n      pop\n      pop\n      jump\t// out\n        /* \"#utility.yul\":795:1460   */\n    tag_14:\n      0x00\n      dup1\n      0x00\n        /* \"#utility.yul\":947:949   */\n      0x60\n        /* \"#utility.yul\":935:944   */\n      dup5\n        /* \"#utility.yul\":926:933   */\n      dup7\n        /* \"#utility.yul\":922:945   */\n      sub\n        /* \"#utility.yul\":918:950   */\n      slt\n        /* \"#utility.yul\":915:917   */\n      iszero\n      tag_88\n      jumpi\n        /* \"#utility.yul\":963:964   */\n      0x00\n        /* \"#utility.yul\":960:961   */\n      dup1\n        /* \"#utility.yul\":953:965   */\n      revert\n        /* \"#utility.yul\":915:917   */\n    tag_88:\n        /* \"#utility.yul\":1034:1035   */\n      0x00\n        /* \"#utility.yul\":1023:1032   */\n      dup5\n        /* \"#utility.yul\":1019:1036   */\n      add\n        /* \"#utility.yul\":1006:1037   */\n      calldataload\n        /* \"#utility.yul\":1064:1082   */\n      0xffffffffffffffff\n        /* \"#utility.yul\":1056:1062   */\n      dup2\n        /* \"#utility.yul\":1053:1083   */\n      gt\n        /* \"#utility.yul\":1050:1052   */\n      iszero\n      tag_89\n      jumpi\n        /* \"#utility.yul\":1096:1097   */\n      0x00\n        /* \"#utility.yul\":1093:1094   */\n      dup1\n        /* \"#utility.yul\":1086:1098   */\n      revert\n        /* \"#utility.yul\":1050:1052   */\n    tag_89:\n        /* \"#utility.yul\":1124:1187   */\n      tag_90\n        /* \"#utility.yul\":1179:1186   */\n      dup7\n        /* \"#utility.yul\":1170:1176   */\n      dup3\n        /* \"#utility.yul\":1159:1168   */\n      dup8\n        /* \"#utility.yul\":1155:1177   */\n      add\n        /* \"#utility.yul\":1124:1187   */\n      tag_79\n      jump\t// in\n    tag_90:\n        /* \"#utility.yul\":1114:1187   */\n      swap4\n      pop\n        /* \"#utility.yul\":977:1197   */\n      pop\n        /* \"#utility.yul\":1236:1238   */\n      0x20\n        /* \"#utility.yul\":1262:1315   */\n      tag_91\n        /* \"#utility.yul\":1307:1314   */\n      dup7\n        /* \"#utility.yul\":1298:1304   */\n      dup3\n        /* \"#utility.yul\":1287:1296   */\n      dup8\n        /* \"#utility.yul\":1283:1305   */\n      add\n        /* \"#utility.yul\":1262:1315   */\n      tag_83\n      jump\t// in\n    tag_91:\n        /* \"#utility.yul\":1252:1315   */\n      swap3\n      pop\n        /* \"#utility.yul\":1207:1325   */\n      pop\n        /* \"#utility.yul\":1364:1366   */\n      0x40\n        /* \"#utility.yul\":1390:1443   */\n      tag_92\n        /* \"#utility.yul\":1435:1442   */\n      dup7\n        /* \"#utility.yul\":1426:1432   */\n      dup3\n        /* \"#utility.yul\":1415:1424   */\n      dup8\n        /* \"#utility.yul\":1411:1433   */\n      add\n        /* \"#utility.yul\":1390:1443   */\n      tag_83\n      jump\t// in\n    tag_92:\n        /* \"#utility.yul\":1380:1443   */\n      swap2\n      pop\n        /* \"#utility.yul\":1335:1453   */\n      pop\n        /* \"#utility.yul\":905:1460   */\n      swap3\n      pop\n      swap3\n      pop\n      swap3\n      jump\t// out\n        /* \"#utility.yul\":1466:1728   */\n    tag_18:\n      0x00\n        /* \"#utility.yul\":1574:1576   */\n      0x20\n        /* \"#utility.yul\":1562:1571   */\n      dup3\n        /* \"#utility.yul\":1553:1560   */\n      dup5\n        /* \"#utility.yul\":1549:1572   */\n      sub\n        /* \"#utility.yul\":1545:1577   */\n      slt\n        /* \"#utility.yul\":1542:1544   */\n      iszero\n      tag_94\n      jumpi\n        /* \"#utility.yul\":1590:1591   */\n      0x00\n        /* \"#utility.yul\":1587:1588   */\n      dup1\n        /* \"#utility.yul\":1580:1592   */\n      revert\n        /* \"#utility.yul\":1542:1544   */\n    tag_94:\n        /* \"#utility.yul\":1633:1634   */\n      0x00\n        /* \"#utility.yul\":1658:1711   */\n      tag_95\n        /* \"#utility.yul\":1703:1710   */\n      dup5\n        /* \"#utility.yul\":1694:1700   */\n      dup3\n        /* \"#utility.yul\":1683:1692   */\n      dup6\n        /* \"#utility.yul\":1679:1701   */\n      add\n        /* \"#utility.yul\":1658:1711   */\n      tag_83\n      jump\t// in\n    tag_95:\n        /* \"#utility.yul\":1648:1711   */\n      swap2\n      pop\n        /* \"#utility.yul\":1604:1721   */\n      pop\n        /* \"#utility.yul\":1532:1728   */\n      swap3\n      swap2\n      pop\n      pop\n      jump\t// out\n        /* \"#utility.yul\":1734:1852   */\n    tag_96:\n        /* \"#utility.yul\":1821:1845   */\n      tag_98\n        /* \"#utility.yul\":1839:1844   */\n      dup2\n        /* \"#utility.yul\":1821:1845   */\n      tag_99\n      jump\t// in\n    tag_98:\n        /* \"#utility.yul\":1816:1819   */\n      dup3\n        /* \"#utility.yul\":1809:1846   */\n      mstore\n        /* \"#utility.yul\":1799:1852   */\n      pop\n      pop\n      jump\t// out\n        /* \"#utility.yul\":1858:1967   */\n    tag_100:\n        /* \"#utility.yul\":1939:1960   */\n      tag_102\n        /* \"#utility.yul\":1954:1959   */\n      dup2\n        /* \"#utility.yul\":1939:1960   */\n      tag_103\n      jump\t// in\n    tag_102:\n        /* \"#utility.yul\":1934:1937   */\n      dup3\n        /* \"#utility.yul\":1927:1961   */\n      mstore\n        /* \"#utility.yul\":1917:1967   */\n      pop\n      pop\n      jump\t// out\n        /* \"#utility.yul\":1973:2337   */\n    tag_104:\n      0x00\n        /* \"#utility.yul\":2089:2128   */\n      tag_106\n        /* \"#utility.yul\":2122:2127   */\n      dup3\n        /* \"#utility.yul\":2089:2128   */\n      tag_107\n      jump\t// in\n    tag_106:\n        /* \"#utility.yul\":2144:2215   */\n      tag_108\n        /* \"#utility.yul\":2208:2214   */\n      dup2\n        /* \"#utility.yul\":2203:2206   */\n      dup6\n        /* \"#utility.yul\":2144:2215   */\n      tag_109\n      jump\t// in\n    tag_108:\n        /* \"#utility.yul\":2137:2215   */\n      swap4\n      pop\n        /* \"#utility.yul\":2224:2276   */\n      tag_110\n        /* \"#utility.yul\":2269:2275   */\n      dup2\n        /* \"#utility.yul\":2264:2267   */\n      dup6\n        /* \"#utility.yul\":2257:2261   */\n      0x20\n        /* \"#utility.yul\":2250:2255   */\n      dup7\n        /* \"#utility.yul\":2246:2262   */\n      add\n        /* \"#utility.yul\":2224:2276   */\n      tag_111\n      jump\t// in\n    tag_110:\n        /* \"#utility.yul\":2301:2330   */\n      tag_112\n        /* \"#utility.yul\":2323:2329   */\n      dup2\n        /* \"#utility.yul\":2301:2330   */\n      tag_113\n      jump\t// in\n    tag_112:\n        /* \"#utility.yul\":2296:2299   */\n      dup5\n        /* \"#utility.yul\":2292:2331   */\n      add\n        /* \"#utility.yul\":2285:2331   */\n      swap2\n      pop\n        /* \"#utility.yul\":2065:2337   */\n      pop\n      swap3\n      swap2\n      pop\n      pop\n      jump\t// out\n        /* \"#utility.yul\":2343:2653   */\n    tag_114:\n      0x00\n        /* \"#utility.yul\":2506:2573   */\n      tag_116\n        /* \"#utility.yul\":2570:2572   */\n      0x0c\n        /* \"#utility.yul\":2565:2568   */\n      dup4\n        /* \"#utility.yul\":2506:2573   */\n      tag_109\n      jump\t// in\n    tag_116:\n        /* \"#utility.yul\":2499:2573   */\n      swap2\n      pop\n        /* \"#utility.yul\":2603:2617   */\n      0x556e617574686f72697a65640000000000000000000000000000000000000000\n        /* \"#utility.yul\":2599:2600   */\n      0x00\n        /* \"#utility.yul\":2594:2597   */\n      dup4\n        /* \"#utility.yul\":2590:2601   */\n      add\n        /* \"#utility.yul\":2583:2618   */\n      mstore\n        /* \"#utility.yul\":2644:2646   */\n      0x20\n        /* \"#utility.yul\":2639:2642   */\n      dup3\n        /* \"#utility.yul\":2635:2647   */\n      add\n        /* \"#utility.yul\":2628:2647   */\n      swap1\n      pop\n        /* \"#utility.yul\":2489:2653   */\n      swap2\n      swap1\n      pop\n      jump\t// out\n        /* \"#utility.yul\":2659:2978   */\n    tag_117:\n      0x00\n        /* \"#utility.yul\":2822:2889   */\n      tag_119\n        /* \"#utility.yul\":2886:2888   */\n      0x15\n        /* \"#utility.yul\":2881:2884   */\n      dup4\n        /* \"#utility.yul\":2822:2889   */\n      tag_109\n      jump\t// in\n    tag_119:\n        /* \"#utility.yul\":2815:2889   */\n      swap2\n      pop\n        /* \"#utility.yul\":2919:2942   */\n      0x41756374696f6e20616c726561647920656e6465640000000000000000000000\n        /* \"#utility.yul\":2915:2916   */\n      0x00\n        /* \"#utility.yul\":2910:2913   */\n      dup4\n        /* \"#utility.yul\":2906:2917   */\n      add\n        /* \"#utility.yul\":2899:2943   */\n      mstore\n        /* \"#utility.yul\":2969:2971   */\n      0x20\n        /* \"#utility.yul\":2964:2967   */\n      dup3\n        /* \"#utility.yul\":2960:2972   */\n      add\n        /* \"#utility.yul\":2953:2972   */\n      swap1\n      pop\n        /* \"#utility.yul\":2805:2978   */\n      swap2\n      swap1\n      pop\n      jump\t// out\n        /* \"#utility.yul\":2984:3313   */\n    tag_120:\n      0x00\n        /* \"#utility.yul\":3147:3214   */\n      tag_122\n        /* \"#utility.yul\":3211:3213   */\n      0x1f\n        /* \"#utility.yul\":3206:3209   */\n      dup4\n        /* \"#utility.yul\":3147:3214   */\n      tag_109\n      jump\t// in\n    tag_122:\n        /* \"#utility.yul\":3140:3214   */\n      swap2\n      pop\n        /* \"#utility.yul\":3244:3277   */\n      0x4475726174696f6e206d7573742062652067726561746572207468616e203000\n        /* \"#utility.yul\":3240:3241   */\n      0x00\n        /* \"#utility.yul\":3235:3238   */\n      dup4\n        /* \"#utility.yul\":3231:3242   */\n      add\n        /* \"#utility.yul\":3224:3278   */\n      mstore\n        /* \"#utility.yul\":3304:3306   */\n      0x20\n        /* \"#utility.yul\":3299:3302   */\n      dup3\n        /* \"#utility.yul\":3295:3307   */\n      add\n        /* \"#utility.yul\":3288:3307   */\n      swap1\n      pop\n        /* \"#utility.yul\":3130:3313   */\n      swap2\n      swap1\n      pop\n      jump\t// out\n        /* \"#utility.yul\":3319:3688   */\n    tag_123:\n      0x00\n        /* \"#utility.yul\":3482:3549   */\n      tag_125\n        /* \"#utility.yul\":3546:3548   */\n      0x25\n        /* \"#utility.yul\":3541:3544   */\n      dup4\n        /* \"#utility.yul\":3482:3549   */\n      tag_109\n      jump\t// in\n    tag_125:\n        /* \"#utility.yul\":3475:3549   */\n      swap2\n      pop\n        /* \"#utility.yul\":3579:3613   */\n      0x5374617274696e67207072696365206d75737420626520677265617465722074\n        /* \"#utility.yul\":3575:3576   */\n      0x00\n        /* \"#utility.yul\":3570:3573   */\n      dup4\n        /* \"#utility.yul\":3566:3577   */\n      add\n        /* \"#utility.yul\":3559:3614   */\n      mstore\n        /* \"#utility.yul\":3645:3652   */\n      0x68616e2030000000000000000000000000000000000000000000000000000000\n        /* \"#utility.yul\":3640:3642   */\n      0x20\n        /* \"#utility.yul\":3635:3638   */\n      dup4\n        /* \"#utility.yul\":3631:3643   */\n      add\n        /* \"#utility.yul\":3624:3653   */\n      mstore\n        /* \"#utility.yul\":3679:3681   */\n      0x40\n        /* \"#utility.yul\":3674:3677   */\n      dup3\n        /* \"#utility.yul\":3670:3682   */\n      add\n        /* \"#utility.yul\":3663:3682   */\n      swap1\n      pop\n        /* \"#utility.yul\":3465:3688   */\n      swap2\n      swap1\n      pop\n      jump\t// out\n        /* \"#utility.yul\":3694:3812   */\n    tag_126:\n        /* \"#utility.yul\":3781:3805   */\n      tag_128\n        /* \"#utility.yul\":3799:3804   */\n      dup2\n        /* \"#utility.yul\":3781:3805   */\n      tag_129\n      jump\t// in\n    tag_128:\n        /* \"#utility.yul\":3776:3779   */\n      dup3\n        /* \"#utility.yul\":3769:3806   */\n      mstore\n        /* \"#utility.yul\":3759:3812   */\n      pop\n      pop\n      jump\t// out\n        /* \"#utility.yul\":3818:4040   */\n    tag_25:\n      0x00\n        /* \"#utility.yul\":3949:3951   */\n      0x20\n        /* \"#utility.yul\":3938:3947   */\n      dup3\n        /* \"#utility.yul\":3934:3952   */\n      add\n        /* \"#utility.yul\":3926:3952   */\n      swap1\n      pop\n        /* \"#utility.yul\":3962:4033   */\n      tag_131\n        /* \"#utility.yul\":4030:4031   */\n      0x00\n        /* \"#utility.yul\":4019:4028   */\n      dup4\n        /* \"#utility.yul\":4015:4032   */\n      add\n        /* \"#utility.yul\":4006:4012   */\n      dup5\n        /* \"#utility.yul\":3962:4033   */\n      tag_96\n      jump\t// in\n    tag_131:\n        /* \"#utility.yul\":3916:4040   */\n      swap3\n      swap2\n      pop\n      pop\n      jump\t// out\n        /* \"#utility.yul\":4046:4465   */\n    tag_54:\n      0x00\n        /* \"#utility.yul\":4250:4252   */\n      0x20\n        /* \"#utility.yul\":4239:4248   */\n      dup3\n        /* \"#utility.yul\":4235:4253   */\n      add\n        /* \"#utility.yul\":4227:4253   */\n      swap1\n      pop\n        /* \"#utility.yul\":4299:4308   */\n      dup2\n        /* \"#utility.yul\":4293:4297   */\n      dup2\n        /* \"#utility.yul\":4289:4309   */\n      sub\n        /* \"#utility.yul\":4285:4286   */\n      0x00\n        /* \"#utility.yul\":4274:4283   */\n      dup4\n        /* \"#utility.yul\":4270:4287   */\n      add\n        /* \"#utility.yul\":4263:4310   */\n      mstore\n        /* \"#utility.yul\":4327:4458   */\n      tag_133\n        /* \"#utility.yul\":4453:4457   */\n      dup2\n        /* \"#utility.yul\":4327:4458   */\n      tag_114\n      jump\t// in\n    tag_133:\n        /* \"#utility.yul\":4319:4458   */\n      swap1\n      pop\n        /* \"#utility.yul\":4217:4465   */\n      swap2\n      swap1\n      pop\n      jump\t// out\n        /* \"#utility.yul\":4471:4890   */\n    tag_57:\n      0x00\n        /* \"#utility.yul\":4675:4677   */\n      0x20\n        /* \"#utility.yul\":4664:4673   */\n      dup3\n        /* \"#utility.yul\":4660:4678   */\n      add\n        /* \"#utility.yul\":4652:4678   */\n      swap1\n      pop\n        /* \"#utility.yul\":4724:4733   */\n      dup2\n        /* \"#utility.yul\":4718:4722   */\n      dup2\n        /* \"#utility.yul\":4714:4734   */\n      sub\n        /* \"#utility.yul\":4710:4711   */\n      0x00\n        /* \"#utility.yul\":4699:4708   */\n      dup4\n        /* \"#utility.yul\":4695:4712   */\n      add\n        /* \"#utility.yul\":4688:4735   */\n      mstore\n        /* \"#utility.yul\":4752:4883   */\n      tag_135\n        /* \"#utility.yul\":4878:4882   */\n      dup2\n        /* \"#utility.yul\":4752:4883   */\n      tag_117\n      jump\t// in\n    tag_135:\n        /* \"#utility.yul\":4744:4883   */\n      swap1\n      pop\n        /* \"#utility.yul\":4642:4890   */\n      swap2\n      swap1\n      pop\n      jump\t// out\n        /* \"#utility.yul\":4896:5315   */\n    tag_35:\n      0x00\n        /* \"#utility.yul\":5100:5102   */\n      0x20\n        /* \"#utility.yul\":5089:5098   */\n      dup3\n        /* \"#utility.yul\":5085:5103   */\n      add\n        /* \"#utility.yul\":5077:5103   */\n      swap1\n      pop\n        /* \"#utility.yul\":5149:5158   */\n      dup2\n        /* \"#utility.yul\":5143:5147   */\n      dup2\n        /* \"#utility.yul\":5139:5159   */\n      sub\n        /* \"#utility.yul\":5135:5136   */\n      0x00\n        /* \"#utility.yul\":5124:5133   */\n      dup4\n        /* \"#utility.yul\":5120:5137   */\n      add\n        /* \"#utility.yul\":5113:5160   */\n      mstore\n        /* \"#utility.yul\":5177:5308   */\n      tag_137\n        /* \"#utility.yul\":5303:5307   */\n      dup2\n        /* \"#utility.yul\":5177:5308   */\n      tag_120\n      jump\t// in\n    tag_137:\n        /* \"#utility.yul\":5169:5308   */\n      swap1\n      pop\n        /* \"#utility.yul\":5067:5315   */\n      swap2\n      swap1\n      pop\n      jump\t// out\n        /* \"#utility.yul\":5321:5740   */\n    tag_32:\n      0x00\n        /* \"#utility.yul\":5525:5527   */\n      0x20\n        /* \"#utility.yul\":5514:5523   */\n      dup3\n        /* \"#utility.yul\":5510:5528   */\n      add\n        /* \"#utility.yul\":5502:5528   */\n      swap1\n      pop\n        /* \"#utility.yul\":5574:5583   */\n      dup2\n        /* \"#utility.yul\":5568:5572   */\n      dup2\n        /* \"#utility.yul\":5564:5584   */\n      sub\n        /* \"#utility.yul\":5560:5561   */\n      0x00\n        /* \"#utility.yul\":5549:5558   */\n      dup4\n        /* \"#utility.yul\":5545:5562   */\n      add\n        /* \"#utility.yul\":5538:5585   */\n      mstore\n        /* \"#utility.yul\":5602:5733   */\n      tag_139\n        /* \"#utility.yul\":5728:5732   */\n      dup2\n        /* \"#utility.yul\":5602:5733   */\n      tag_123\n      jump\t// in\n    tag_139:\n        /* \"#utility.yul\":5594:5733   */\n      swap1\n      pop\n        /* \"#utility.yul\":5492:5740   */\n      swap2\n      swap1\n      pop\n      jump\t// out\n        /* \"#utility.yul\":5746:5968   */\n    tag_11:\n      0x00\n        /* \"#utility.yul\":5877:5879   */\n      0x20\n        /* \"#utility.yul\":5866:5875   */\n      dup3\n        /* \"#utility.yul\":5862:5880   */\n      add\n        /* \"#utility.yul\":5854:5880   */\n      swap1\n      pop\n        /* \"#utility.yul\":5890:5961   */\n      tag_141\n        /* \"#utility.yul\":5958:5959   */\n      0x00\n        /* \"#utility.yul\":5947:5956   */\n      dup4\n        /* \"#utility.yul\":5943:5960   */\n      add\n        /* \"#utility.yul\":5934:5940   */\n      dup5\n        /* \"#utility.yul\":5890:5961   */\n      tag_126\n      jump\t// in\n    tag_141:\n        /* \"#utility.yul\":5844:5968   */\n      swap3\n      swap2\n      pop\n      pop\n      jump\t// out\n        /* \"#utility.yul\":5974:6507   */\n    tag_43:\n      0x00\n        /* \"#utility.yul\":6181:6183   */\n      0x60\n        /* \"#utility.yul\":6170:6179   */\n      dup3\n        /* \"#utility.yul\":6166:6184   */\n      add\n        /* \"#utility.yul\":6158:6184   */\n      swap1\n      pop\n        /* \"#utility.yul\":6194:6265   */\n      tag_143\n        /* \"#utility.yul\":6262:6263   */\n      0x00\n        /* \"#utility.yul\":6251:6260   */\n      dup4\n        /* \"#utility.yul\":6247:6264   */\n      add\n        /* \"#utility.yul\":6238:6244   */\n      dup7\n        /* \"#utility.yul\":6194:6265   */\n      tag_126\n      jump\t// in\n    tag_143:\n        /* \"#utility.yul\":6275:6347   */\n      tag_144\n        /* \"#utility.yul\":6343:6345   */\n      0x20\n        /* \"#utility.yul\":6332:6341   */\n      dup4\n        /* \"#utility.yul\":6328:6346   */\n      add\n        /* \"#utility.yul\":6319:6325   */\n      dup6\n        /* \"#utility.yul\":6275:6347   */\n      tag_96\n      jump\t// in\n    tag_144:\n        /* \"#utility.yul\":6394:6403   */\n      dup2\n        /* \"#utility.yul\":6388:6392   */\n      dup2\n        /* \"#utility.yul\":6384:6404   */\n      sub\n        /* \"#utility.yul\":6379:6381   */\n      0x40\n        /* \"#utility.yul\":6368:6377   */\n      dup4\n        /* \"#utility.yul\":6364:6382   */\n      add\n        /* \"#utility.yul\":6357:6405   */\n      mstore\n        /* \"#utility.yul\":6422:6500   */\n      tag_145\n        /* \"#utility.yul\":6495:6499   */\n      dup2\n        /* \"#utility.yul\":6486:6492   */\n      dup5\n        /* \"#utility.yul\":6422:6500   */\n      tag_104\n      jump\t// in\n    tag_145:\n        /* \"#utility.yul\":6414:6500   */\n      swap1\n      pop\n        /* \"#utility.yul\":6148:6507   */\n      swap5\n      swap4\n      pop\n      pop\n      pop\n      pop\n      jump\t// out\n        /* \"#utility.yul\":6513:7367   */\n    tag_21:\n      0x00\n        /* \"#utility.yul\":6798:6801   */\n      0xc0\n        /* \"#utility.yul\":6787:6796   */\n      dup3\n        /* \"#utility.yul\":6783:6802   */\n      add\n        /* \"#utility.yul\":6775:6802   */\n      swap1\n      pop\n        /* \"#utility.yul\":6812:6883   */\n      tag_147\n        /* \"#utility.yul\":6880:6881   */\n      0x00\n        /* \"#utility.yul\":6869:6878   */\n      dup4\n        /* \"#utility.yul\":6865:6882   */\n      add\n        /* \"#utility.yul\":6856:6862   */\n      dup10\n        /* \"#utility.yul\":6812:6883   */\n      tag_126\n      jump\t// in\n    tag_147:\n        /* \"#utility.yul\":6893:6965   */\n      tag_148\n        /* \"#utility.yul\":6961:6963   */\n      0x20\n        /* \"#utility.yul\":6950:6959   */\n      dup4\n        /* \"#utility.yul\":6946:6964   */\n      add\n        /* \"#utility.yul\":6937:6943   */\n      dup9\n        /* \"#utility.yul\":6893:6965   */\n      tag_96\n      jump\t// in\n    tag_148:\n        /* \"#utility.yul\":7012:7021   */\n      dup2\n        /* \"#utility.yul\":7006:7010   */\n      dup2\n        /* \"#utility.yul\":7002:7022   */\n      sub\n        /* \"#utility.yul\":6997:6999   */\n      0x40\n        /* \"#utility.yul\":6986:6995   */\n      dup4\n        /* \"#utility.yul\":6982:7000   */\n      add\n        /* \"#utility.yul\":6975:7023   */\n      mstore\n        /* \"#utility.yul\":7040:7118   */\n      tag_149\n        /* \"#utility.yul\":7113:7117   */\n      dup2\n        /* \"#utility.yul\":7104:7110   */\n      dup8\n        /* \"#utility.yul\":7040:7118   */\n      tag_104\n      jump\t// in\n    tag_149:\n        /* \"#utility.yul\":7032:7118   */\n      swap1\n      pop\n        /* \"#utility.yul\":7128:7200   */\n      tag_150\n        /* \"#utility.yul\":7196:7198   */\n      0x60\n        /* \"#utility.yul\":7185:7194   */\n      dup4\n        /* \"#utility.yul\":7181:7199   */\n      add\n        /* \"#utility.yul\":7172:7178   */\n      dup7\n        /* \"#utility.yul\":7128:7200   */\n      tag_126\n      jump\t// in\n    tag_150:\n        /* \"#utility.yul\":7210:7283   */\n      tag_151\n        /* \"#utility.yul\":7278:7281   */\n      0x80\n        /* \"#utility.yul\":7267:7276   */\n      dup4\n        /* \"#utility.yul\":7263:7282   */\n      add\n        /* \"#utility.yul\":7254:7260   */\n      dup6\n        /* \"#utility.yul\":7210:7283   */\n      tag_126\n      jump\t// in\n    tag_151:\n        /* \"#utility.yul\":7293:7360   */\n      tag_152\n        /* \"#utility.yul\":7355:7358   */\n      0xa0\n        /* \"#utility.yul\":7344:7353   */\n      dup4\n        /* \"#utility.yul\":7340:7359   */\n      add\n        /* \"#utility.yul\":7331:7337   */\n      dup5\n        /* \"#utility.yul\":7293:7360   */\n      tag_100\n      jump\t// in\n    tag_152:\n        /* \"#utility.yul\":6765:7367   */\n      swap8\n      swap7\n      pop\n      pop\n      pop\n      pop\n      pop\n      pop\n      pop\n      jump\t// out\n        /* \"#utility.yul\":7373:7656   */\n    tag_75:\n      0x00\n        /* \"#utility.yul\":7439:7441   */\n      0x40\n        /* \"#utility.yul\":7433:7442   */\n      mload\n        /* \"#utility.yul\":7423:7442   */\n      swap1\n      pop\n        /* \"#utility.yul\":7481:7485   */\n      dup2\n        /* \"#utility.yul\":7473:7479   */\n      dup2\n        /* \"#utility.yul\":7469:7486   */\n      add\n        /* \"#utility.yul\":7588:7594   */\n      dup2\n        /* \"#utility.yul\":7576:7586   */\n      dup2\n        /* \"#utility.yul\":7573:7595   */\n      lt\n        /* \"#utility.yul\":7552:7570   */\n      0xffffffffffffffff\n        /* \"#utility.yul\":7540:7550   */\n      dup3\n        /* \"#utility.yul\":7537:7571   */\n      gt\n        /* \"#utility.yul\":7534:7596   */\n      or\n        /* \"#utility.yul\":7531:7533   */\n      iszero\n      tag_154\n      jumpi\n        /* \"#utility.yul\":7599:7617   */\n      tag_155\n      tag_156\n      jump\t// in\n    tag_155:\n        /* \"#utility.yul\":7531:7533   */\n    tag_154:\n        /* \"#utility.yul\":7639:7649   */\n      dup1\n        /* \"#utility.yul\":7635:7637   */\n      0x40\n        /* \"#utility.yul\":7628:7650   */\n      mstore\n        /* \"#utility.yul\":7413:7656   */\n      pop\n      swap2\n      swap1\n      pop\n      jump\t// out\n        /* \"#utility.yul\":7662:7994   */\n    tag_74:\n      0x00\n        /* \"#utility.yul\":7814:7832   */\n      0xffffffffffffffff\n        /* \"#utility.yul\":7806:7812   */\n      dup3\n        /* \"#utility.yul\":7803:7833   */\n      gt\n        /* \"#utility.yul\":7800:7802   */\n      iszero\n      tag_158\n      jumpi\n        /* \"#utility.yul\":7836:7854   */\n      tag_159\n      tag_156\n      jump\t// in\n    tag_159:\n        /* \"#utility.yul\":7800:7802   */\n    tag_158:\n        /* \"#utility.yul\":7921:7925   */\n      0x1f\n        /* \"#utility.yul\":7917:7926   */\n      not\n        /* \"#utility.yul\":7910:7914   */\n      0x1f\n        /* \"#utility.yul\":7902:7908   */\n      dup4\n        /* \"#utility.yul\":7898:7915   */\n      add\n        /* \"#utility.yul\":7894:7927   */\n      and\n        /* \"#utility.yul\":7886:7927   */\n      swap1\n      pop\n        /* \"#utility.yul\":7982:7986   */\n      0x20\n        /* \"#utility.yul\":7976:7980   */\n      dup2\n        /* \"#utility.yul\":7972:7987   */\n      add\n        /* \"#utility.yul\":7964:7987   */\n      swap1\n      pop\n        /* \"#utility.yul\":7729:7994   */\n      swap2\n      swap1\n      pop\n      jump\t// out\n        /* \"#utility.yul\":8000:8099   */\n    tag_107:\n      0x00\n        /* \"#utility.yul\":8086:8091   */\n      dup2\n        /* \"#utility.yul\":8080:8092   */\n      mload\n        /* \"#utility.yul\":8070:8092   */\n      swap1\n      pop\n        /* \"#utility.yul\":8059:8099   */\n      swap2\n      swap1\n      pop\n      jump\t// out\n        /* \"#utility.yul\":8105:8274   */\n    tag_109:\n      0x00\n        /* \"#utility.yul\":8223:8229   */\n      dup3\n        /* \"#utility.yul\":8218:8221   */\n      dup3\n        /* \"#utility.yul\":8211:8230   */\n      mstore\n        /* \"#utility.yul\":8263:8267   */\n      0x20\n        /* \"#utility.yul\":8258:8261   */\n      dup3\n        /* \"#utility.yul\":8254:8268   */\n      add\n        /* \"#utility.yul\":8239:8268   */\n      swap1\n      pop\n        /* \"#utility.yul\":8201:8274   */\n      swap3\n      swap2\n      pop\n      pop\n      jump\t// out\n        /* \"#utility.yul\":8280:8585   */\n    tag_39:\n      0x00\n        /* \"#utility.yul\":8339:8359   */\n      tag_163\n        /* \"#utility.yul\":8357:8358   */\n      dup3\n        /* \"#utility.yul\":8339:8359   */\n      tag_129\n      jump\t// in\n    tag_163:\n        /* \"#utility.yul\":8334:8359   */\n      swap2\n      pop\n        /* \"#utility.yul\":8373:8393   */\n      tag_164\n        /* \"#utility.yul\":8391:8392   */\n      dup4\n        /* \"#utility.yul\":8373:8393   */\n      tag_129\n      jump\t// in\n    tag_164:\n        /* \"#utility.yul\":8368:8393   */\n      swap3\n      pop\n        /* \"#utility.yul\":8527:8528   */\n      dup3\n        /* \"#utility.yul\":8459:8525   */\n      0xffffffffffffffffffffffffffffffffffffffffffffffffffffffffffffffff\n        /* \"#utility.yul\":8455:8529   */\n      sub\n        /* \"#utility.yul\":8452:8453   */\n      dup3\n        /* \"#utility.yul\":8449:8530   */\n      gt\n        /* \"#utility.yul\":8446:8448   */\n      iszero\n      tag_165\n      jumpi\n        /* \"#utility.yul\":8533:8551   */\n      tag_166\n      tag_167\n      jump\t// in\n    tag_166:\n        /* \"#utility.yul\":8446:8448   */\n    tag_165:\n        /* \"#utility.yul\":8577:8578   */\n      dup3\n        /* \"#utility.yul\":8574:8575   */\n      dup3\n        /* \"#utility.yul\":8570:8579   */\n      add\n        /* \"#utility.yul\":8563:8579   */\n      swap1\n      pop\n        /* \"#utility.yul\":8324:8585   */\n      swap3\n      swap2\n      pop\n      pop\n      jump\t// out\n        /* \"#utility.yul\":8591:8687   */\n    tag_99:\n      0x00\n        /* \"#utility.yul\":8657:8681   */\n      tag_169\n        /* \"#utility.yul\":8675:8680   */\n      dup3\n        /* \"#utility.yul\":8657:8681   */\n      tag_170\n      jump\t// in\n    tag_169:\n        /* \"#utility.yul\":8646:8681   */\n      swap1\n      pop\n        /* \"#utility.yul\":8636:8687   */\n      swap2\n      swap1\n      pop\n      jump\t// out\n        /* \"#utility.yul\":8693:8783   */\n    tag_103:\n      0x00\n        /* \"#utility.yul\":8770:8775   */\n      dup2\n        /* \"#utility.yul\":8763:8776   */\n      iszero\n        /* \"#utility.yul\":8756:8777   */\n      iszero\n        /* \"#utility.yul\":8745:8777   */\n      swap1\n      pop\n        /* \"#utility.yul\":8735:8783   */\n      swap2\n      swap1\n      pop\n      jump\t// out\n        /* \"#utility.yul\":8789:8915   */\n    tag_170:\n      0x00\n        /* \"#utility.yul\":8866:8908   */\n      0xffffffffffffffffffffffffffffffffffffffff\n        /* \"#utility.yul\":8859:8864   */\n      dup3\n        /* \"#utility.yul\":8855:8909   */\n      and\n        /* \"#utility.yul\":8844:8909   */\n      swap1\n      pop\n        /* \"#utility.yul\":8834:8915   */\n      swap2\n      swap1\n      pop\n      jump\t// out\n        /* \"#utility.yul\":8921:8998   */\n    tag_129:\n      0x00\n        /* \"#utility.yul\":8987:8992   */\n      dup2\n        /* \"#utility.yul\":8976:8992   */\n      swap1\n      pop\n        /* \"#utility.yul\":8966:8998   */\n      swap2\n      swap1\n      pop\n      jump\t// out\n        /* \"#utility.yul\":9004:9158   */\n    tag_78:\n        /* \"#utility.yul\":9088:9094   */\n      dup3\n        /* \"#utility.yul\":9083:9086   */\n      dup2\n        /* \"#utility.yul\":9078:9081   */\n      dup4\n        /* \"#utility.yul\":9065:9095   */\n      calldatacopy\n        /* \"#utility.yul\":9150:9151   */\n      0x00\n        /* \"#utility.yul\":9141:9147   */\n      dup4\n        /* \"#utility.yul\":9136:9139   */\n      dup4\n        /* \"#utility.yul\":9132:9148   */\n      add\n        /* \"#utility.yul\":9125:9152   */\n      mstore\n        /* \"#utility.yul\":9055:9158   */\n      pop\n      pop\n      pop\n      jump\t// out\n        /* \"#utility.yul\":9164:9471   */\n    tag_111:\n        /* \"#utility.yul\":9232:9233   */\n      0x00\n        /* \"#utility.yul\":9242:9355   */\n    tag_176:\n        /* \"#utility.yul\":9256:9262   */\n      dup4\n        /* \"#utility.yul\":9253:9254   */\n      dup2\n        /* \"#utility.yul\":9250:9263   */\n      lt\n        /* \"#utility.yul\":9242:9355   */\n      iszero\n      tag_178\n      jumpi\n        /* \"#utility.yul\":9341:9342   */\n      dup1\n        /* \"#utility.yul\":9336:9339   */\n      dup3\n        /* \"#utility.yul\":9332:9343   */\n      add\n        /* \"#utility.yul\":9326:9344   */\n      mload\n        /* \"#utility.yul\":9322:9323   */\n      dup2\n        /* \"#utility.yul\":9317:9320   */\n      dup5\n        /* \"#utility.yul\":9313:9324   */\n      add\n        /* \"#utility.yul\":9306:9345   */\n      mstore\n        /* \"#utility.yul\":9278:9280   */\n      0x20\n        /* \"#utility.yul\":9275:9276   */\n      dup2\n        /* \"#utility.yul\":9271:9281   */\n      add\n        /* \"#utility.yul\":9266:9281   */\n      swap1\n      pop\n        /* \"#utility.yul\":9242:9355   */\n      jump(tag_176)\n    tag_178:\n        /* \"#utility.yul\":9373:9379   */\n      dup4\n        /* \"#utility.yul\":9370:9371   */\n      dup2\n        /* \"#utility.yul\":9367:9380   */\n      gt\n        /* \"#utility.yul\":9364:9366   */\n      iszero\n      tag_179\n      jumpi\n        /* \"#utility.yul\":9453:9454   */\n      0x00\n        /* \"#utility.yul\":9444:9450   */\n      dup5\n        /* \"#utility.yul\":9439:9442   */\n      dup5\n        /* \"#utility.yul\":9435:9451   */\n      add\n        /* \"#utility.yul\":9428:9455   */\n      mstore\n        /* \"#utility.yul\":9364:9366   */\n    tag_179:\n        /* \"#utility.yul\":9213:9471   */\n      pop\n      pop\n      pop\n      pop\n      jump\t// out\n        /* \"#utility.yul\":9477:9797   */\n    tag_45:\n      0x00\n        /* \"#utility.yul\":9558:9559   */\n      0x02\n        /* \"#utility.yul\":9552:9556   */\n      dup3\n        /* \"#utility.yul\":9548:9560   */\n      div\n        /* \"#utility.yul\":9538:9560   */\n      swap1\n      pop\n        /* \"#utility.yul\":9605:9606   */\n      0x01\n        /* \"#utility.yul\":9599:9603   */\n      dup3\n        /* \"#utility.yul\":9595:9607   */\n      and\n        /* \"#utility.yul\":9626:9644   */\n      dup1\n        /* \"#utility.yul\":9616:9618   */\n      tag_181\n      jumpi\n        /* \"#utility.yul\":9682:9686   */\n      0x7f\n        /* \"#utility.yul\":9674:9680   */\n      dup3\n        /* \"#utility.yul\":9670:9687   */\n      and\n        /* \"#utility.yul\":9660:9687   */\n      swap2\n      pop\n        /* \"#utility.yul\":9616:9618   */\n    tag_181:\n        /* \"#utility.yul\":9744:9746   */\n      0x20\n        /* \"#utility.yul\":9736:9742   */\n      dup3\n        /* \"#utility.yul\":9733:9747   */\n      lt\n        /* \"#utility.yul\":9713:9731   */\n      dup2\n        /* \"#utility.yul\":9710:9748   */\n      eq\n        /* \"#utility.yul\":9707:9709   */\n      iszero\n      tag_182\n      jumpi\n        /* \"#utility.yul\":9763:9781   */\n      tag_183\n      tag_184\n      jump\t// in\n    tag_183:\n        /* \"#utility.yul\":9707:9709   */\n    tag_182:\n        /* \"#utility.yul\":9528:9797   */\n      pop\n      swap2\n      swap1\n      pop\n      jump\t// out\n        /* \"#utility.yul\":9803:10036   */\n    tag_37:\n      0x00\n        /* \"#utility.yul\":9865:9889   */\n      tag_186\n        /* \"#utility.yul\":9883:9888   */\n      dup3\n        /* \"#utility.yul\":9865:9889   */\n      tag_129\n      jump\t// in\n    tag_186:\n        /* \"#utility.yul\":9856:9889   */\n      swap2\n      pop\n        /* \"#utility.yul\":9911:9977   */\n      0xffffffffffffffffffffffffffffffffffffffffffffffffffffffffffffffff\n        /* \"#utility.yul\":9904:9909   */\n      dup3\n        /* \"#utility.yul\":9901:9978   */\n      eq\n        /* \"#utility.yul\":9898:9900   */\n      iszero\n      tag_187\n      jumpi\n        /* \"#utility.yul\":9981:9999   */\n      tag_188\n      tag_167\n      jump\t// in\n    tag_188:\n        /* \"#utility.yul\":9898:9900   */\n    tag_187:\n        /* \"#utility.yul\":10028:10029   */\n      0x01\n        /* \"#utility.yul\":10021:10026   */\n      dup3\n        /* \"#utility.yul\":10017:10030   */\n      add\n        /* \"#utility.yul\":10010:10030   */\n      swap1\n      pop\n        /* \"#utility.yul\":9846:10036   */\n      swap2\n      swap1\n      pop\n      jump\t// out\n        /* \"#utility.yul\":10042:10222   */\n    tag_167:\n        /* \"#utility.yul\":10090:10167   */\n      0x4e487b7100000000000000000000000000000000000000000000000000000000\n        /* \"#utility.yul\":10087:10088   */\n      0x00\n        /* \"#utility.yul\":10080:10168   */\n      mstore\n        /* \"#utility.yul\":10187:10191   */\n      0x11\n        /* \"#utility.yul\":10184:10185   */\n      0x04\n        /* \"#utility.yul\":10177:10192   */\n      mstore\n        /* \"#utility.yul\":10211:10215   */\n      0x24\n        /* \"#utility.yul\":10208:10209   */\n      0x00\n        /* \"#utility.yul\":10201:10216   */\n      revert\n        /* \"#utility.yul\":10228:10408   */\n    tag_184:\n        /* \"#utility.yul\":10276:10353   */\n      0x4e487b7100000000000000000000000000000000000000000000000000000000\n        /* \"#utility.yul\":10273:10274   */\n      0x00\n        /* \"#utility.yul\":10266:10354   */\n      mstore\n        /* \"#utility.yul\":10373:10377   */\n      0x22\n        /* \"#utility.yul\":10370:10371   */\n      0x04\n        /* \"#utility.yul\":10363:10378   */\n      mstore\n        /* \"#utility.yul\":10397:10401   */\n      0x24\n        /* \"#utility.yul\":10394:10395   */\n      0x00\n        /* \"#utility.yul\":10387:10402   */\n      revert\n        /* \"#utility.yul\":10414:10594   */\n    tag_156:\n        /* \"#utility.yul\":10462:10539   */\n      0x4e487b7100000000000000000000000000000000000000000000000000000000\n        /* \"#utility.yul\":10459:10460   */\n      0x00\n        /* \"#utility.yul\":10452:10540   */\n      mstore\n        /* \"#utility.yul\":10559:10563   */\n      0x41\n        /* \"#utility.yul\":10556:10557   */\n      0x04\n        /* \"#utility.yul\":10549:10564   */\n      mstore\n        /* \"#utility.yul\":10583:10587   */\n      0x24\n        /* \"#utility.yul\":10580:10581   */\n      0x00\n        /* \"#utility.yul\":10573:10588   */\n      revert\n        /* \"#utility.yul\":10600:10702   */\n    tag_113:\n      0x00\n        /* \"#utility.yul\":10692:10694   */\n      0x1f\n        /* \"#utility.yul\":10688:10695   */\n      not\n        /* \"#utility.yul\":10683:10685   */\n      0x1f\n        /* \"#utility.yul\":10676:10681   */\n      dup4\n        /* \"#utility.yul\":10672:10686   */\n      add\n        /* \"#utility.yul\":10668:10696   */\n      and\n        /* \"#utility.yul\":10658:10696   */\n      swap1\n      pop\n        /* \"#utility.yul\":10648:10702   */\n      swap2\n      swap1\n      pop\n      jump\t// out\n        /* \"#utility.yul\":10708:10830   */\n    tag_86:\n        /* \"#utility.yul\":10781:10805   */\n      tag_194\n        /* \"#utility.yul\":10799:10804   */\n      dup2\n        /* \"#utility.yul\":10781:10805   */\n      tag_129\n      jump\t// in\n    tag_194:\n        /* \"#utility.yul\":10774:10779   */\n      dup2\n        /* \"#utility.yul\":10771:10806   */\n      eq\n        /* \"#utility.yul\":10761:10763   */\n      tag_195\n      jumpi\n        /* \"#utility.yul\":10820:10821   */\n      0x00\n        /* \"#utility.yul\":10817:10818   */\n      dup1\n        /* \"#utility.yul\":10810:10822   */\n      revert\n        /* \"#utility.yul\":10761:10763   */\n    tag_195:\n        /* \"#utility.yul\":10751:10830   */\n      pop\n      jump\t// out\n\n    auxdata: 0xa26469706673582212207ae950d0a5b8eda32cb4c7b40d37508c45d415f177b3324c6b0d52a66fdd694164736f6c63430008000033\n}\n",
				"bytecode": {
					"linkReferences": {},
					"object": "608060405234801561001057600080fd5b50336000806101000a81548173ffffffffffffffffffffffffffffffffffffffff021916908373ffffffffffffffffffffffffffffffffffffffff1602179055506000600281905550610d2c806100686000396000f3fe608060405234801561001057600080fd5b50600436106100575760003560e01c80632ad715731461005c5780632dbddb411461007a578063571a26a0146100965780638da5cb5b146100cb578063b9a2de3a146100e9575b600080fd5b610064610105565b60405161007191906109a8565b60405180910390f35b610094600480360381019061008f91906106f1565b61010b565b005b6100b060048036038101906100ab9190610758565b6102f6565b6040516100c296959493929190610a01565b60405180910390f35b6100d36103e7565b6040516100e0919061090d565b60405180910390f35b61010360048036038101906100fe9190610758565b61040b565b005b60025481565b6000821161014e576040517f08c379a000000000000000000000000000000000000000000000000000000000815260040161014590610988565b60405180910390fd5b60008111610191576040517f08c379a000000000000000000000000000000000000000000000000000000000815260040161018890610968565b60405180910390fd5b6000600260008154809291906101a690610bf8565b9190505590506040518060c001604052808281526020013373ffffffffffffffffffffffffffffffffffffffff16815260200185815260200184815260200183426101f19190610ae6565b815260200160011515815250600160008381526020019081526020016000206000820151816000015560208201518160010160006101000a81548173ffffffffffffffffffffffffffffffffffffffff021916908373ffffffffffffffffffffffffffffffffffffffff160217905550604082015181600201908051906020019061027d9291906105d1565b50606082015181600301556080820151816004015560a08201518160050160006101000a81548160ff0219169083151502179055509050507fb928fabb4287b33fb3d59644b08cfd2e726532740f8ba9d42f17ece23fbff37f8133866040516102e8939291906109c3565b60405180910390a150505050565b60016020528060005260406000206000915090508060000154908060010160009054906101000a900473ffffffffffffffffffffffffffffffffffffffff169080600201805461034590610bc6565b80601f016020809104026020016040519081016040528092919081815260200182805461037190610bc6565b80156103be5780601f10610393576101008083540402835291602001916103be565b820191906000526020600020905b8154815290600101906020018083116103a157829003601f168201915b5050505050908060030154908060040154908060050160009054906101000a900460ff16905086565b60008054906101000a900473ffffffffffffffffffffffffffffffffffffffff1681565b60008054906101000a900473ffffffffffffffffffffffffffffffffffffffff1673ffffffffffffffffffffffffffffffffffffffff163373ffffffffffffffffffffffffffffffffffffffff1614806104c657506001600082815260200190815260200160002060010160009054906101000a900473ffffffffffffffffffffffffffffffffffffffff1673ffffffffffffffffffffffffffffffffffffffff163373ffffffffffffffffffffffffffffffffffffffff16145b610505576040517f08c379a00000000000000000000000000000000000000000000000000000000081526004016104fc90610928565b60405180910390fd5b6001600082815260200190815260200160002060050160009054906101000a900460ff16610568576040517f08c379a000000000000000000000000000000000000000000000000000000000815260040161055f90610948565b60405180910390fd5b60006001600083815260200190815260200160002060050160006101000a81548160ff0219169083151502179055507f45806e512b1f4f10e33e8b3cb64d1d11d998d8c554a95e0841fc1c701278bd5d816040516105c691906109a8565b60405180910390a150565b8280546105dd90610bc6565b90600052602060002090601f0160209004810192826105ff5760008555610646565b82601f1061061857805160ff1916838001178555610646565b82800160010185558215610646579182015b8281111561064557825182559160200191906001019061062a565b5b5090506106539190610657565b5090565b5b80821115610670576000816000905550600101610658565b5090565b600061068761068284610a9a565b610a69565b90508281526020810184848401111561069f57600080fd5b6106aa848285610b84565b509392505050565b600082601f8301126106c357600080fd5b81356106d3848260208601610674565b91505092915050565b6000813590506106eb81610cdf565b92915050565b60008060006060848603121561070657600080fd5b600084013567ffffffffffffffff81111561072057600080fd5b61072c868287016106b2565b935050602061073d868287016106dc565b925050604061074e868287016106dc565b9150509250925092565b60006020828403121561076a57600080fd5b6000610778848285016106dc565b91505092915050565b61078a81610b3c565b82525050565b61079981610b4e565b82525050565b60006107aa82610aca565b6107b48185610ad5565b93506107c4818560208601610b93565b6107cd81610cce565b840191505092915050565b60006107e5600c83610ad5565b91507f556e617574686f72697a656400000000000000000000000000000000000000006000830152602082019050919050565b6000610825601583610ad5565b91507f41756374696f6e20616c726561647920656e64656400000000000000000000006000830152602082019050919050565b6000610865601f83610ad5565b91507f4475726174696f6e206d7573742062652067726561746572207468616e2030006000830152602082019050919050565b60006108a5602583610ad5565b91507f5374617274696e67207072696365206d7573742062652067726561746572207460008301527f68616e20300000000000000000000000000000000000000000000000000000006020830152604082019050919050565b61090781610b7a565b82525050565b60006020820190506109226000830184610781565b92915050565b60006020820190508181036000830152610941816107d8565b9050919050565b6000602082019050818103600083015261096181610818565b9050919050565b6000602082019050818103600083015261098181610858565b9050919050565b600060208201905081810360008301526109a181610898565b9050919050565b60006020820190506109bd60008301846108fe565b92915050565b60006060820190506109d860008301866108fe565b6109e56020830185610781565b81810360408301526109f7818461079f565b9050949350505050565b600060c082019050610a1660008301896108fe565b610a236020830188610781565b8181036040830152610a35818761079f565b9050610a4460608301866108fe565b610a5160808301856108fe565b610a5e60a0830184610790565b979650505050505050565b6000604051905081810181811067ffffffffffffffff82111715610a9057610a8f610c9f565b5b8060405250919050565b600067ffffffffffffffff821115610ab557610ab4610c9f565b5b601f19601f8301169050602081019050919050565b600081519050919050565b600082825260208201905092915050565b6000610af182610b7a565b9150610afc83610b7a565b9250827fffffffffffffffffffffffffffffffffffffffffffffffffffffffffffffffff03821115610b3157610b30610c41565b5b828201905092915050565b6000610b4782610b5a565b9050919050565b60008115159050919050565b600073ffffffffffffffffffffffffffffffffffffffff82169050919050565b6000819050919050565b82818337600083830152505050565b60005b83811015610bb1578082015181840152602081019050610b96565b83811115610bc0576000848401525b50505050565b60006002820490506001821680610bde57607f821691505b60208210811415610bf257610bf1610c70565b5b50919050565b6000610c0382610b7a565b91507fffffffffffffffffffffffffffffffffffffffffffffffffffffffffffffffff821415610c3657610c35610c41565b5b600182019050919050565b7f4e487b7100000000000000000000000000000000000000000000000000000000600052601160045260246000fd5b7f4e487b7100000000000000000000000000000000000000000000000000000000600052602260045260246000fd5b7f4e487b7100000000000000000000000000000000000000000000000000000000600052604160045260246000fd5b6000601f19601f8301169050919050565b610ce881610b7a565b8114610cf357600080fd5b5056fea26469706673582212207ae950d0a5b8eda32cb4c7b40d37508c45d415f177b3324c6b0d52a66fdd694164736f6c63430008000033",
					"opcodes": "PUSH1 0x80 PUSH1 0x40 MSTORE CALLVALUE DUP1 ISZERO PUSH2 0x10 JUMPI PUSH1 0x0 DUP1 REVERT JUMPDEST POP CALLER PUSH1 0x0 DUP1 PUSH2 0x100 EXP DUP2 SLOAD DUP2 PUSH20 0xFFFFFFFFFFFFFFFFFFFFFFFFFFFFFFFFFFFFFFFF MUL NOT AND SWAP1 DUP4 PUSH20 0xFFFFFFFFFFFFFFFFFFFFFFFFFFFFFFFFFFFFFFFF AND MUL OR SWAP1 SSTORE POP PUSH1 0x0 PUSH1 0x2 DUP2 SWAP1 SSTORE POP PUSH2 0xD2C DUP1 PUSH2 0x68 PUSH1 0x0 CODECOPY PUSH1 0x0 RETURN INVALID PUSH1 0x80 PUSH1 0x40 MSTORE CALLVALUE DUP1 ISZERO PUSH2 0x10 JUMPI PUSH1 0x0 DUP1 REVERT JUMPDEST POP PUSH1 0x4 CALLDATASIZE LT PUSH2 0x57 JUMPI PUSH1 0x0 CALLDATALOAD PUSH1 0xE0 SHR DUP1 PUSH4 0x2AD71573 EQ PUSH2 0x5C JUMPI DUP1 PUSH4 0x2DBDDB41 EQ PUSH2 0x7A JUMPI DUP1 PUSH4 0x571A26A0 EQ PUSH2 0x96 JUMPI DUP1 PUSH4 0x8DA5CB5B EQ PUSH2 0xCB JUMPI DUP1 PUSH4 0xB9A2DE3A EQ PUSH2 0xE9 JUMPI JUMPDEST PUSH1 0x0 DUP1 REVERT JUMPDEST PUSH2 0x64 PUSH2 0x105 JUMP JUMPDEST PUSH1 0x40 MLOAD PUSH2 0x71 SWAP2 SWAP1 PUSH2 0x9A8 JUMP JUMPDEST PUSH1 0x40 MLOAD DUP1 SWAP2 SUB SWAP1 RETURN JUMPDEST PUSH2 0x94 PUSH1 0x4 DUP1 CALLDATASIZE SUB DUP2 ADD SWAP1 PUSH2 0x8F SWAP2 SWAP1 PUSH2 0x6F1 JUMP JUMPDEST PUSH2 0x10B JUMP JUMPDEST STOP JUMPDEST PUSH2 0xB0 PUSH1 0x4 DUP1 CALLDATASIZE SUB DUP2 ADD SWAP1 PUSH2 0xAB SWAP2 SWAP1 PUSH2 0x758 JUMP JUMPDEST PUSH2 0x2F6 JUMP JUMPDEST PUSH1 0x40 MLOAD PUSH2 0xC2 SWAP7 SWAP6 SWAP5 SWAP4 SWAP3 SWAP2 SWAP1 PUSH2 0xA01 JUMP JUMPDEST PUSH1 0x40 MLOAD DUP1 SWAP2 SUB SWAP1 RETURN JUMPDEST PUSH2 0xD3 PUSH2 0x3E7 JUMP JUMPDEST PUSH1 0x40 MLOAD PUSH2 0xE0 SWAP2 SWAP1 PUSH2 0x90D JUMP JUMPDEST PUSH1 0x40 MLOAD DUP1 SWAP2 SUB SWAP1 RETURN JUMPDEST PUSH2 0x103 PUSH1 0x4 DUP1 CALLDATASIZE SUB DUP2 ADD SWAP1 PUSH2 0xFE SWAP2 SWAP1 PUSH2 0x758 JUMP JUMPDEST PUSH2 0x40B JUMP JUMPDEST STOP JUMPDEST PUSH1 0x2 SLOAD DUP2 JUMP JUMPDEST PUSH1 0x0 DUP3 GT PUSH2 0x14E JUMPI PUSH1 0x40 MLOAD PUSH32 0x8C379A000000000000000000000000000000000000000000000000000000000 DUP2 MSTORE PUSH1 0x4 ADD PUSH2 0x145 SWAP1 PUSH2 0x988 JUMP JUMPDEST PUSH1 0x40 MLOAD DUP1 SWAP2 SUB SWAP1 REVERT JUMPDEST PUSH1 0x0 DUP2 GT PUSH2 0x191 JUMPI PUSH1 0x40 MLOAD PUSH32 0x8C379A000000000000000000000000000000000000000000000000000000000 DUP2 MSTORE PUSH1 0x4 ADD PUSH2 0x188 SWAP1 PUSH2 0x968 JUMP JUMPDEST PUSH1 0x40 MLOAD DUP1 SWAP2 SUB SWAP1 REVERT JUMPDEST PUSH1 0x0 PUSH1 0x2 PUSH1 0x0 DUP2 SLOAD DUP1 SWAP3 SWAP2 SWAP1 PUSH2 0x1A6 SWAP1 PUSH2 0xBF8 JUMP JUMPDEST SWAP2 SWAP1 POP SSTORE SWAP1 POP PUSH1 0x40 MLOAD DUP1 PUSH1 0xC0 ADD PUSH1 0x40 MSTORE DUP1 DUP3 DUP2 MSTORE PUSH1 0x20 ADD CALLER PUSH20 0xFFFFFFFFFFFFFFFFFFFFFFFFFFFFFFFFFFFFFFFF AND DUP2 MSTORE PUSH1 0x20 ADD DUP6 DUP2 MSTORE PUSH1 0x20 ADD DUP5 DUP2 MSTORE PUSH1 0x20 ADD DUP4 TIMESTAMP PUSH2 0x1F1 SWAP2 SWAP1 PUSH2 0xAE6 JUMP JUMPDEST DUP2 MSTORE PUSH1 0x20 ADD PUSH1 0x1 ISZERO ISZERO DUP2 MSTORE POP PUSH1 0x1 PUSH1 0x0 DUP4 DUP2 MSTORE PUSH1 0x20 ADD SWAP1 DUP2 MSTORE PUSH1 0x20 ADD PUSH1 0x0 KECCAK256 PUSH1 0x0 DUP3 ADD MLOAD DUP2 PUSH1 0x0 ADD SSTORE PUSH1 0x20 DUP3 ADD MLOAD DUP2 PUSH1 0x1 ADD PUSH1 0x0 PUSH2 0x100 EXP DUP2 SLOAD DUP2 PUSH20 0xFFFFFFFFFFFFFFFFFFFFFFFFFFFFFFFFFFFFFFFF MUL NOT AND SWAP1 DUP4 PUSH20 0xFFFFFFFFFFFFFFFFFFFFFFFFFFFFFFFFFFFFFFFF AND MUL OR SWAP1 SSTORE POP PUSH1 0x40 DUP3 ADD MLOAD DUP2 PUSH1 0x2 ADD SWAP1 DUP1 MLOAD SWAP1 PUSH1 0x20 ADD SWAP1 PUSH2 0x27D SWAP3 SWAP2 SWAP1 PUSH2 0x5D1 JUMP JUMPDEST POP PUSH1 0x60 DUP3 ADD MLOAD DUP2 PUSH1 0x3 ADD SSTORE PUSH1 0x80 DUP3 ADD MLOAD DUP2 PUSH1 0x4 ADD SSTORE PUSH1 0xA0 DUP3 ADD MLOAD DUP2 PUSH1 0x5 ADD PUSH1 0x0 PUSH2 0x100 EXP DUP2 SLOAD DUP2 PUSH1 0xFF MUL NOT AND SWAP1 DUP4 ISZERO ISZERO MUL OR SWAP1 SSTORE POP SWAP1 POP POP PUSH32 0xB928FABB4287B33FB3D59644B08CFD2E726532740F8BA9D42F17ECE23FBFF37F DUP2 CALLER DUP7 PUSH1 0x40 MLOAD PUSH2 0x2E8 SWAP4 SWAP3 SWAP2 SWAP1 PUSH2 0x9C3 JUMP JUMPDEST PUSH1 0x40 MLOAD DUP1 SWAP2 SUB SWAP1 LOG1 POP POP POP POP JUMP JUMPDEST PUSH1 0x1 PUSH1 0x20 MSTORE DUP1 PUSH1 0x0 MSTORE PUSH1 0x40 PUSH1 0x0 KECCAK256 PUSH1 0x0 SWAP2 POP SWAP1 POP DUP1 PUSH1 0x0 ADD SLOAD SWAP1 DUP1 PUSH1 0x1 ADD PUSH1 0x0 SWAP1 SLOAD SWAP1 PUSH2 0x100 EXP SWAP1 DIV PUSH20 0xFFFFFFFFFFFFFFFFFFFFFFFFFFFFFFFFFFFFFFFF AND SWAP1 DUP1 PUSH1 0x2 ADD DUP1 SLOAD PUSH2 0x345 SWAP1 PUSH2 0xBC6 JUMP JUMPDEST DUP1 PUSH1 0x1F ADD PUSH1 0x20 DUP1 SWAP2 DIV MUL PUSH1 0x20 ADD PUSH1 0x40 MLOAD SWAP1 DUP2 ADD PUSH1 0x40 MSTORE DUP1 SWAP3 SWAP2 SWAP1 DUP2 DUP2 MSTORE PUSH1 0x20 ADD DUP3 DUP1 SLOAD PUSH2 0x371 SWAP1 PUSH2 0xBC6 JUMP JUMPDEST DUP1 ISZERO PUSH2 0x3BE JUMPI DUP1 PUSH1 0x1F LT PUSH2 0x393 JUMPI PUSH2 0x100 DUP1 DUP4 SLOAD DIV MUL DUP4 MSTORE SWAP2 PUSH1 0x20 ADD SWAP2 PUSH2 0x3BE JUMP JUMPDEST DUP3 ADD SWAP2 SWAP1 PUSH1 0x0 MSTORE PUSH1 0x20 PUSH1 0x0 KECCAK256 SWAP1 JUMPDEST DUP2 SLOAD DUP2 MSTORE SWAP1 PUSH1 0x1 ADD SWAP1 PUSH1 0x20 ADD DUP1 DUP4 GT PUSH2 0x3A1 JUMPI DUP3 SWAP1 SUB PUSH1 0x1F AND DUP3 ADD SWAP2 JUMPDEST POP POP POP POP POP SWAP1 DUP1 PUSH1 0x3 ADD SLOAD SWAP1 DUP1 PUSH1 0x4 ADD SLOAD SWAP1 DUP1 PUSH1 0x5 ADD PUSH1 0x0 SWAP1 SLOAD SWAP1 PUSH2 0x100 EXP SWAP1 DIV PUSH1 0xFF AND SWAP1 POP DUP7 JUMP JUMPDEST PUSH1 0x0 DUP1 SLOAD SWAP1 PUSH2 0x100 EXP SWAP1 DIV PUSH20 0xFFFFFFFFFFFFFFFFFFFFFFFFFFFFFFFFFFFFFFFF AND DUP2 JUMP JUMPDEST PUSH1 0x0 DUP1 SLOAD SWAP1 PUSH2 0x100 EXP SWAP1 DIV PUSH20 0xFFFFFFFFFFFFFFFFFFFFFFFFFFFFFFFFFFFFFFFF AND PUSH20 0xFFFFFFFFFFFFFFFFFFFFFFFFFFFFFFFFFFFFFFFF AND CALLER PUSH20 0xFFFFFFFFFFFFFFFFFFFFFFFFFFFFFFFFFFFFFFFF AND EQ DUP1 PUSH2 0x4C6 JUMPI POP PUSH1 0x1 PUSH1 0x0 DUP3 DUP2 MSTORE PUSH1 0x20 ADD SWAP1 DUP2 MSTORE PUSH1 0x20 ADD PUSH1 0x0 KECCAK256 PUSH1 0x1 ADD PUSH1 0x0 SWAP1 SLOAD SWAP1 PUSH2 0x100 EXP SWAP1 DIV PUSH20 0xFFFFFFFFFFFFFFFFFFFFFFFFFFFFFFFFFFFFFFFF AND PUSH20 0xFFFFFFFFFFFFFFFFFFFFFFFFFFFFFFFFFFFFFFFF AND CALLER PUSH20 0xFFFFFFFFFFFFFFFFFFFFFFFFFFFFFFFFFFFFFFFF AND EQ JUMPDEST PUSH2 0x505 JUMPI PUSH1 0x40 MLOAD PUSH32 0x8C379A000000000000000000000000000000000000000000000000000000000 DUP2 MSTORE PUSH1 0x4 ADD PUSH2 0x4FC SWAP1 PUSH2 0x928 JUMP JUMPDEST PUSH1 0x40 MLOAD DUP1 SWAP2 SUB SWAP1 REVERT JUMPDEST PUSH1 0x1 PUSH1 0x0 DUP3 DUP2 MSTORE PUSH1 0x20 ADD SWAP1 DUP2 MSTORE PUSH1 0x20 ADD PUSH1 0x0 KECCAK256 PUSH1 0x5 ADD PUSH1 0x0 SWAP1 SLOAD SWAP1 PUSH2 0x100 EXP SWAP1 DIV PUSH1 0xFF AND PUSH2 0x568 JUMPI PUSH1 0x40 MLOAD PUSH32 0x8C379A000000000000000000000000000000000000000000000000000000000 DUP2 MSTORE PUSH1 0x4 ADD PUSH2 0x55F SWAP1 PUSH2 0x948 JUMP JUMPDEST PUSH1 0x40 MLOAD DUP1 SWAP2 SUB SWAP1 REVERT JUMPDEST PUSH1 0x0 PUSH1 0x1 PUSH1 0x0 DUP4 DUP2 MSTORE PUSH1 0x20 ADD SWAP1 DUP2 MSTORE PUSH1 0x20 ADD PUSH1 0x0 KECCAK256 PUSH1 0x5 ADD PUSH1 0x0 PUSH2 0x100 EXP DUP2 SLOAD DUP2 PUSH1 0xFF MUL NOT AND SWAP1 DUP4 ISZERO ISZERO MUL OR SWAP1 SSTORE POP PUSH32 0x45806E512B1F4F10E33E8B3CB64D1D11D998D8C554A95E0841FC1C701278BD5D DUP2 PUSH1 0x40 MLOAD PUSH2 0x5C6 SWAP2 SWAP1 PUSH2 0x9A8 JUMP JUMPDEST PUSH1 0x40 MLOAD DUP1 SWAP2 SUB SWAP1 LOG1 POP JUMP JUMPDEST DUP3 DUP1 SLOAD PUSH2 0x5DD SWAP1 PUSH2 0xBC6 JUMP JUMPDEST SWAP1 PUSH1 0x0 MSTORE PUSH1 0x20 PUSH1 0x0 KECCAK256 SWAP1 PUSH1 0x1F ADD PUSH1 0x20 SWAP1 DIV DUP2 ADD SWAP3 DUP3 PUSH2 0x5FF JUMPI PUSH1 0x0 DUP6 SSTORE PUSH2 0x646 JUMP JUMPDEST DUP3 PUSH1 0x1F LT PUSH2 0x618 JUMPI DUP1 MLOAD PUSH1 0xFF NOT AND DUP4 DUP1 ADD OR DUP6 SSTORE PUSH2 0x646 JUMP JUMPDEST DUP3 DUP1 ADD PUSH1 0x1 ADD DUP6 SSTORE DUP3 ISZERO PUSH2 0x646 JUMPI SWAP2 DUP3 ADD JUMPDEST DUP3 DUP2 GT ISZERO PUSH2 0x645 JUMPI DUP3 MLOAD DUP3 SSTORE SWAP2 PUSH1 0x20 ADD SWAP2 SWAP1 PUSH1 0x1 ADD SWAP1 PUSH2 0x62A JUMP JUMPDEST JUMPDEST POP SWAP1 POP PUSH2 0x653 SWAP2 SWAP1 PUSH2 0x657 JUMP JUMPDEST POP SWAP1 JUMP JUMPDEST JUMPDEST DUP1 DUP3 GT ISZERO PUSH2 0x670 JUMPI PUSH1 0x0 DUP2 PUSH1 0x0 SWAP1 SSTORE POP PUSH1 0x1 ADD PUSH2 0x658 JUMP JUMPDEST POP SWAP1 JUMP JUMPDEST PUSH1 0x0 PUSH2 0x687 PUSH2 0x682 DUP5 PUSH2 0xA9A JUMP JUMPDEST PUSH2 0xA69 JUMP JUMPDEST SWAP1 POP DUP3 DUP2 MSTORE PUSH1 0x20 DUP2 ADD DUP5 DUP5 DUP5 ADD GT ISZERO PUSH2 0x69F JUMPI PUSH1 0x0 DUP1 REVERT JUMPDEST PUSH2 0x6AA DUP5 DUP3 DUP6 PUSH2 0xB84 JUMP JUMPDEST POP SWAP4 SWAP3 POP POP POP JUMP JUMPDEST PUSH1 0x0 DUP3 PUSH1 0x1F DUP4 ADD SLT PUSH2 0x6C3 JUMPI PUSH1 0x0 DUP1 REVERT JUMPDEST DUP2 CALLDATALOAD PUSH2 0x6D3 DUP5 DUP3 PUSH1 0x20 DUP7 ADD PUSH2 0x674 JUMP JUMPDEST SWAP2 POP POP SWAP3 SWAP2 POP POP JUMP JUMPDEST PUSH1 0x0 DUP2 CALLDATALOAD SWAP1 POP PUSH2 0x6EB DUP2 PUSH2 0xCDF JUMP JUMPDEST SWAP3 SWAP2 POP POP JUMP JUMPDEST PUSH1 0x0 DUP1 PUSH1 0x0 PUSH1 0x60 DUP5 DUP7 SUB SLT ISZERO PUSH2 0x706 JUMPI PUSH1 0x0 DUP1 REVERT JUMPDEST PUSH1 0x0 DUP5 ADD CALLDATALOAD PUSH8 0xFFFFFFFFFFFFFFFF DUP2 GT ISZERO PUSH2 0x720 JUMPI PUSH1 0x0 DUP1 REVERT JUMPDEST PUSH2 0x72C DUP7 DUP3 DUP8 ADD PUSH2 0x6B2 JUMP JUMPDEST SWAP4 POP POP PUSH1 0x20 PUSH2 0x73D DUP7 DUP3 DUP8 ADD PUSH2 0x6DC JUMP JUMPDEST SWAP3 POP POP PUSH1 0x40 PUSH2 0x74E DUP7 DUP3 DUP8 ADD PUSH2 0x6DC JUMP JUMPDEST SWAP2 POP POP SWAP3 POP SWAP3 POP SWAP3 JUMP JUMPDEST PUSH1 0x0 PUSH1 0x20 DUP3 DUP5 SUB SLT ISZERO PUSH2 0x76A JUMPI PUSH1 0x0 DUP1 REVERT JUMPDEST PUSH1 0x0 PUSH2 0x778 DUP5 DUP3 DUP6 ADD PUSH2 0x6DC JUMP JUMPDEST SWAP2 POP POP SWAP3 SWAP2 POP POP JUMP JUMPDEST PUSH2 0x78A DUP2 PUSH2 0xB3C JUMP JUMPDEST DUP3 MSTORE POP POP JUMP JUMPDEST PUSH2 0x799 DUP2 PUSH2 0xB4E JUMP JUMPDEST DUP3 MSTORE POP POP JUMP JUMPDEST PUSH1 0x0 PUSH2 0x7AA DUP3 PUSH2 0xACA JUMP JUMPDEST PUSH2 0x7B4 DUP2 DUP6 PUSH2 0xAD5 JUMP JUMPDEST SWAP4 POP PUSH2 0x7C4 DUP2 DUP6 PUSH1 0x20 DUP7 ADD PUSH2 0xB93 JUMP JUMPDEST PUSH2 0x7CD DUP2 PUSH2 0xCCE JUMP JUMPDEST DUP5 ADD SWAP2 POP POP SWAP3 SWAP2 POP POP JUMP JUMPDEST PUSH1 0x0 PUSH2 0x7E5 PUSH1 0xC DUP4 PUSH2 0xAD5 JUMP JUMPDEST SWAP2 POP PUSH32 0x556E617574686F72697A65640000000000000000000000000000000000000000 PUSH1 0x0 DUP4 ADD MSTORE PUSH1 0x20 DUP3 ADD SWAP1 POP SWAP2 SWAP1 POP JUMP JUMPDEST PUSH1 0x0 PUSH2 0x825 PUSH1 0x15 DUP4 PUSH2 0xAD5 JUMP JUMPDEST SWAP2 POP PUSH32 0x41756374696F6E20616C726561647920656E6465640000000000000000000000 PUSH1 0x0 DUP4 ADD MSTORE PUSH1 0x20 DUP3 ADD SWAP1 POP SWAP2 SWAP1 POP JUMP JUMPDEST PUSH1 0x0 PUSH2 0x865 PUSH1 0x1F DUP4 PUSH2 0xAD5 JUMP JUMPDEST SWAP2 POP PUSH32 0x4475726174696F6E206D7573742062652067726561746572207468616E203000 PUSH1 0x0 DUP4 ADD MSTORE PUSH1 0x20 DUP3 ADD SWAP1 POP SWAP2 SWAP1 POP JUMP JUMPDEST PUSH1 0x0 PUSH2 0x8A5 PUSH1 0x25 DUP4 PUSH2 0xAD5 JUMP JUMPDEST SWAP2 POP PUSH32 0x5374617274696E67207072696365206D75737420626520677265617465722074 PUSH1 0x0 DUP4 ADD MSTORE PUSH32 0x68616E2030000000000000000000000000000000000000000000000000000000 PUSH1 0x20 DUP4 ADD MSTORE PUSH1 0x40 DUP3 ADD SWAP1 POP SWAP2 SWAP1 POP JUMP JUMPDEST PUSH2 0x907 DUP2 PUSH2 0xB7A JUMP JUMPDEST DUP3 MSTORE POP POP JUMP JUMPDEST PUSH1 0x0 PUSH1 0x20 DUP3 ADD SWAP1 POP PUSH2 0x922 PUSH1 0x0 DUP4 ADD DUP5 PUSH2 0x781 JUMP JUMPDEST SWAP3 SWAP2 POP POP JUMP JUMPDEST PUSH1 0x0 PUSH1 0x20 DUP3 ADD SWAP1 POP DUP2 DUP2 SUB PUSH1 0x0 DUP4 ADD MSTORE PUSH2 0x941 DUP2 PUSH2 0x7D8 JUMP JUMPDEST SWAP1 POP SWAP2 SWAP1 POP JUMP JUMPDEST PUSH1 0x0 PUSH1 0x20 DUP3 ADD SWAP1 POP DUP2 DUP2 SUB PUSH1 0x0 DUP4 ADD MSTORE PUSH2 0x961 DUP2 PUSH2 0x818 JUMP JUMPDEST SWAP1 POP SWAP2 SWAP1 POP JUMP JUMPDEST PUSH1 0x0 PUSH1 0x20 DUP3 ADD SWAP1 POP DUP2 DUP2 SUB PUSH1 0x0 DUP4 ADD MSTORE PUSH2 0x981 DUP2 PUSH2 0x858 JUMP JUMPDEST SWAP1 POP SWAP2 SWAP1 POP JUMP JUMPDEST PUSH1 0x0 PUSH1 0x20 DUP3 ADD SWAP1 POP DUP2 DUP2 SUB PUSH1 0x0 DUP4 ADD MSTORE PUSH2 0x9A1 DUP2 PUSH2 0x898 JUMP JUMPDEST SWAP1 POP SWAP2 SWAP1 POP JUMP JUMPDEST PUSH1 0x0 PUSH1 0x20 DUP3 ADD SWAP1 POP PUSH2 0x9BD PUSH1 0x0 DUP4 ADD DUP5 PUSH2 0x8FE JUMP JUMPDEST SWAP3 SWAP2 POP POP JUMP JUMPDEST PUSH1 0x0 PUSH1 0x60 DUP3 ADD SWAP1 POP PUSH2 0x9D8 PUSH1 0x0 DUP4 ADD DUP7 PUSH2 0x8FE JUMP JUMPDEST PUSH2 0x9E5 PUSH1 0x20 DUP4 ADD DUP6 PUSH2 0x781 JUMP JUMPDEST DUP2 DUP2 SUB PUSH1 0x40 DUP4 ADD MSTORE PUSH2 0x9F7 DUP2 DUP5 PUSH2 0x79F JUMP JUMPDEST SWAP1 POP SWAP5 SWAP4 POP POP POP POP JUMP JUMPDEST PUSH1 0x0 PUSH1 0xC0 DUP3 ADD SWAP1 POP PUSH2 0xA16 PUSH1 0x0 DUP4 ADD DUP10 PUSH2 0x8FE JUMP JUMPDEST PUSH2 0xA23 PUSH1 0x20 DUP4 ADD DUP9 PUSH2 0x781 JUMP JUMPDEST DUP2 DUP2 SUB PUSH1 0x40 DUP4 ADD MSTORE PUSH2 0xA35 DUP2 DUP8 PUSH2 0x79F JUMP JUMPDEST SWAP1 POP PUSH2 0xA44 PUSH1 0x60 DUP4 ADD DUP7 PUSH2 0x8FE JUMP JUMPDEST PUSH2 0xA51 PUSH1 0x80 DUP4 ADD DUP6 PUSH2 0x8FE JUMP JUMPDEST PUSH2 0xA5E PUSH1 0xA0 DUP4 ADD DUP5 PUSH2 0x790 JUMP JUMPDEST SWAP8 SWAP7 POP POP POP POP POP POP POP JUMP JUMPDEST PUSH1 0x0 PUSH1 0x40 MLOAD SWAP1 POP DUP2 DUP2 ADD DUP2 DUP2 LT PUSH8 0xFFFFFFFFFFFFFFFF DUP3 GT OR ISZERO PUSH2 0xA90 JUMPI PUSH2 0xA8F PUSH2 0xC9F JUMP JUMPDEST JUMPDEST DUP1 PUSH1 0x40 MSTORE POP SWAP2 SWAP1 POP JUMP JUMPDEST PUSH1 0x0 PUSH8 0xFFFFFFFFFFFFFFFF DUP3 GT ISZERO PUSH2 0xAB5 JUMPI PUSH2 0xAB4 PUSH2 0xC9F JUMP JUMPDEST JUMPDEST PUSH1 0x1F NOT PUSH1 0x1F DUP4 ADD AND SWAP1 POP PUSH1 0x20 DUP2 ADD SWAP1 POP SWAP2 SWAP1 POP JUMP JUMPDEST PUSH1 0x0 DUP2 MLOAD SWAP1 POP SWAP2 SWAP1 POP JUMP JUMPDEST PUSH1 0x0 DUP3 DUP3 MSTORE PUSH1 0x20 DUP3 ADD SWAP1 POP SWAP3 SWAP2 POP POP JUMP JUMPDEST PUSH1 0x0 PUSH2 0xAF1 DUP3 PUSH2 0xB7A JUMP JUMPDEST SWAP2 POP PUSH2 0xAFC DUP4 PUSH2 0xB7A JUMP JUMPDEST SWAP3 POP DUP3 PUSH32 0xFFFFFFFFFFFFFFFFFFFFFFFFFFFFFFFFFFFFFFFFFFFFFFFFFFFFFFFFFFFFFFFF SUB DUP3 GT ISZERO PUSH2 0xB31 JUMPI PUSH2 0xB30 PUSH2 0xC41 JUMP JUMPDEST JUMPDEST DUP3 DUP3 ADD SWAP1 POP SWAP3 SWAP2 POP POP JUMP JUMPDEST PUSH1 0x0 PUSH2 0xB47 DUP3 PUSH2 0xB5A JUMP JUMPDEST SWAP1 POP SWAP2 SWAP1 POP JUMP JUMPDEST PUSH1 0x0 DUP2 ISZERO ISZERO SWAP1 POP SWAP2 SWAP1 POP JUMP JUMPDEST PUSH1 0x0 PUSH20 0xFFFFFFFFFFFFFFFFFFFFFFFFFFFFFFFFFFFFFFFF DUP3 AND SWAP1 POP SWAP2 SWAP1 POP JUMP JUMPDEST PUSH1 0x0 DUP2 SWAP1 POP SWAP2 SWAP1 POP JUMP JUMPDEST DUP3 DUP2 DUP4 CALLDATACOPY PUSH1 0x0 DUP4 DUP4 ADD MSTORE POP POP POP JUMP JUMPDEST PUSH1 0x0 JUMPDEST DUP4 DUP2 LT ISZERO PUSH2 0xBB1 JUMPI DUP1 DUP3 ADD MLOAD DUP2 DUP5 ADD MSTORE PUSH1 0x20 DUP2 ADD SWAP1 POP PUSH2 0xB96 JUMP JUMPDEST DUP4 DUP2 GT ISZERO PUSH2 0xBC0 JUMPI PUSH1 0x0 DUP5 DUP5 ADD MSTORE JUMPDEST POP POP POP POP JUMP JUMPDEST PUSH1 0x0 PUSH1 0x2 DUP3 DIV SWAP1 POP PUSH1 0x1 DUP3 AND DUP1 PUSH2 0xBDE JUMPI PUSH1 0x7F DUP3 AND SWAP2 POP JUMPDEST PUSH1 0x20 DUP3 LT DUP2 EQ ISZERO PUSH2 0xBF2 JUMPI PUSH2 0xBF1 PUSH2 0xC70 JUMP JUMPDEST JUMPDEST POP SWAP2 SWAP1 POP JUMP JUMPDEST PUSH1 0x0 PUSH2 0xC03 DUP3 PUSH2 0xB7A JUMP JUMPDEST SWAP2 POP PUSH32 0xFFFFFFFFFFFFFFFFFFFFFFFFFFFFFFFFFFFFFFFFFFFFFFFFFFFFFFFFFFFFFFFF DUP3 EQ ISZERO PUSH2 0xC36 JUMPI PUSH2 0xC35 PUSH2 0xC41 JUMP JUMPDEST JUMPDEST PUSH1 0x1 DUP3 ADD SWAP1 POP SWAP2 SWAP1 POP JUMP JUMPDEST PUSH32 0x4E487B7100000000000000000000000000000000000000000000000000000000 PUSH1 0x0 MSTORE PUSH1 0x11 PUSH1 0x4 MSTORE PUSH1 0x24 PUSH1 0x0 REVERT JUMPDEST PUSH32 0x4E487B7100000000000000000000000000000000000000000000000000000000 PUSH1 0x0 MSTORE PUSH1 0x22 PUSH1 0x4 MSTORE PUSH1 0x24 PUSH1 0x0 REVERT JUMPDEST PUSH32 0x4E487B7100000000000000000000000000000000000000000000000000000000 PUSH1 0x0 MSTORE PUSH1 0x41 PUSH1 0x4 MSTORE PUSH1 0x24 PUSH1 0x0 REVERT JUMPDEST PUSH1 0x0 PUSH1 0x1F NOT PUSH1 0x1F DUP4 ADD AND SWAP1 POP SWAP2 SWAP1 POP JUMP JUMPDEST PUSH2 0xCE8 DUP2 PUSH2 0xB7A JUMP JUMPDEST DUP2 EQ PUSH2 0xCF3 JUMPI PUSH1 0x0 DUP1 REVERT JUMPDEST POP JUMP INVALID LOG2 PUSH5 0x6970667358 0x22 SLT KECCAK256 PUSH27 0xE950D0A5B8EDA32CB4C7B40D37508C45D415F177B3324C6B0D52A6 PUSH16 0xDD694164736F6C634300080000330000 "
				},
				"gasEstimates": {
					"creation": {
						"codeDepositCost": "674400",
						"executionCost": "26588",
						"totalCost": "700988"
					},
					"external": {
						"auctionCount()": "1107",
						"auctions(uint256)": "infinite",
						"createAuction(string,uint256,uint256)": "infinite",
						"endAuction(uint256)": "infinite",
						"owner()": "1255"
					}
				},
				"methodIdentifiers": {
					"auctionCount()": "2ad71573",
					"auctions(uint256)": "571a26a0",
					"createAuction(string,uint256,uint256)": "2dbddb41",
					"endAuction(uint256)": "b9a2de3a",
					"owner()": "8da5cb5b"
				}
			},
			"storageLayout": {
				"storage": [
					{
						"astId": 3,
						"contract": "contracts/AuctionManager.sol:AuctionManager",
						"label": "owner",
						"offset": 0,
						"slot": "0",
						"type": "t_address"
					},
					{
						"astId": 8,
						"contract": "contracts/AuctionManager.sol:AuctionManager",
						"label": "auctions",
						"offset": 0,
						"slot": "1",
						"type": "t_mapping(t_uint256,t_struct(Auction)23_storage)"
					},
					{
						"astId": 10,
						"contract": "contracts/AuctionManager.sol:AuctionManager",
						"label": "auctionCount",
						"offset": 0,
						"slot": "2",
						"type": "t_uint256"
					}
				],
				"types": {
					"t_address": {
						"encoding": "inplace",
						"label": "address",
						"numberOfBytes": "20"
					},
					"t_bool": {
						"encoding": "inplace",
						"label": "bool",
						"numberOfBytes": "1"
					},
					"t_mapping(t_uint256,t_struct(Auction)23_storage)": {
						"encoding": "mapping",
						"key": "t_uint256",
						"label": "mapping(uint256 => struct AuctionManager.Auction)",
						"numberOfBytes": "32",
						"value": "t_struct(Auction)23_storage"
					},
					"t_string_storage": {
						"encoding": "bytes",
						"label": "string",
						"numberOfBytes": "32"
					},
					"t_struct(Auction)23_storage": {
						"encoding": "inplace",
						"label": "struct AuctionManager.Auction",
						"members": [
							{
								"astId": 12,
								"contract": "contracts/AuctionManager.sol:AuctionManager",
								"label": "id",
								"offset": 0,
								"slot": "0",
								"type": "t_uint256"
							},
							{
								"astId": 14,
								"contract": "contracts/AuctionManager.sol:AuctionManager",
								"label": "seller",
								"offset": 0,
								"slot": "1",
								"type": "t_address"
							},
							{
								"astId": 16,
								"contract": "contracts/AuctionManager.sol:AuctionManager",
								"label": "itemDescription",
								"offset": 0,
								"slot": "2",
								"type": "t_string_storage"
							},
							{
								"astId": 18,
								"contract": "contracts/AuctionManager.sol:AuctionManager",
								"label": "startingPrice",
								"offset": 0,
								"slot": "3",
								"type": "t_uint256"
							},
							{
								"astId": 20,
								"contract": "contracts/AuctionManager.sol:AuctionManager",
								"label": "endTime",
								"offset": 0,
								"slot": "4",
								"type": "t_uint256"
							},
							{
								"astId": 22,
								"contract": "contracts/AuctionManager.sol:AuctionManager",
								"label": "isActive",
								"offset": 0,
								"slot": "5",
								"type": "t_bool"
							}
						],
						"numberOfBytes": "192"
					},
					"t_uint256": {
						"encoding": "inplace",
						"label": "uint256",
						"numberOfBytes": "32"
					}
				}
			},
			"userdoc": {
				"kind": "user",
				"methods": {},
				"version": 1
			}
		}
	}
}